:020000040000FA
:040000001CEF00F001
:100008005482FACF01F0FBCF02F0F2BC9DA005D0DC
:100018009EA003D0DFEC35F005D0F2BAF2A402D0EE
:1000280033EC35F002C0FBFF01C0FAFF5492110017
:0400380041EF34F070
:100F00000042535044205374617465004765617218
:100F1000205368696674004761696E2F4C6F737364
:100F200000416E7469204C6167005761726E696E92
:100F300067004C61756E636800436C75746368008C
:100F40004E6F726D616C0053706565640052616430
:100F5000696F005761746572004572726F72004C60
:100F6000696D69740049646C65004675656C004183
:100F700075746F0042696173005465737400455461
:100F800043004B50480052504D004F696C00545084
:100F90000025002B002D002E0056006B0000FF0ED8
:100FA000116EFF0E126EFF0E136E040E146E82ECA5
:100FB00034F00C0E116EFF0E126EFF0E136EFF0E4C
:100FC000146E82EC34F04F50196E50501A6E1B6A3A
:100FD0001C6A000E1924046E800E1A20056E100E75
:100FE0001B20066E000E1C20076E010E096EA20E5D
:100FF000086E5AEC35F0020E9BEC35F04F50196E2E
:1010000050501A6E1B6A1C6A000E1924046E800E62
:101010001A20056E100E1B20066E000E1C20076E97
:10102000000E096E950E086E5AEC35F0020E9BEC20
:1010300035F04F50196E50501A6E1B6A1C6A000E24
:101040001924046E800E1A20056E100E1B20066EE9
:10105000000E1C20076E000E096E1C0E086E5AEC66
:1010600035F0020E9BEC35F04F50196E50501A6E51
:101070001B6A1C6A000E1924046E800E1A20056E6D
:10108000100E1B20066E000E1C20076E000E096E4F
:10109000000E086E5AEC35F0020E9BEC35F04F5006
:1010A000196E50501A6E1B6A1C6A000E1924096EC4
:1010B000800E1A200A6E100E1B200B6E000E1C20D4
:1010C0000C6E820E0D6E0F0E0E6E79EC33F09BECF3
:1010D00035F00C0E116EFF0E126EFF0E136EFF0E2A
:1010E000146E82EC34F04F50196E50501A6E1B6A19
:1010F0001C6A000E1924046E800E1A20056E100E54
:101100001B20066E000E1C20076E010E096E9A0E43
:10111000086E5AEC35F0020E9BEC35F04F50196E0C
:1011200050501A6E1B6A1C6A000E1924046E800E41
:101130001A20056E100E1B20066E000E1C20076E76
:10114000000E096EBE0E086E5AEC35F0020E9BECD6
:1011500035F04F50196E50501A6E1B6A1C6A000E03
:101160001924046E800E1A20056E100E1B20066EC8
:10117000000E1C20076E000E096E1B0E086E5AEC46
:1011800035F0020E9BEC35F04F50196E50501A6E30
:101190001B6A1C6A000E1924046E800E1A20056E4C
:1011A000100E1B20066E000E1C20076E060E096E28
:1011B000000E086E5AEC35F0020E9BEC35F04F50E5
:1011C000196E50501A6E1B6A1C6A000E1924096EA3
:1011D000800E1A200A6E100E1B200B6E000E1C20B3
:1011E0000C6E170E0D6E0F0E0E6E79EC33F09BEC3D
:1011F00035F00C0E116EFF0E126EFF0E136EFF0E09
:10120000146E82EC34F04F50196E50501A6E1B6AF7
:101210001C6A000E1924046E800E1A20056E100E32
:101220001B20066E000E1C20076E000E096E2F0E8E
:10123000086E5AEC35F0020E9BEC35F04F50196EEB
:1012400050501A6E1B6A1C6A000E1924046E800E20
:101250001A20056E100E1B20066E000E1C20076E55
:10126000000E096E2D0E086E5AEC35F0020E9BEC46
:1012700035F04F50196E50501A6E1B6A1C6A000EE2
:101280001924046E800E1A20056E100E1B20066EA7
:10129000000E1C20076E000E096E1C0E086E5AEC24
:1012A00035F0020E9BEC35F04F50196E50501A6E0F
:1012B0001B6A1C6A000E1924046E800E1A20056E2B
:1012C000100E1B20066E000E1C20076E060E096E07
:1012D000000E086E5AEC35F0020E9BEC35F04F50C4
:1012E000196E50501A6E1B6A1C6A000E1924096E82
:1012F000800E1A200A6E100E1B200B6E000E1C2092
:101300000C6E530E0D6E0F0E0E6E79EC33F09BECDF
:1013100035F00C0E116EFF0E126EFF0E136EFF0EE7
:10132000146E82EC34F04F50196E50501A6E1B6AD6
:101330001C6A000E1924046E800E1A20056E100E11
:101340001B20066E000E1C20076E000E096E8B0E11
:10135000086E5AEC35F0020E9BEC35F04F50196ECA
:1013600050501A6E1B6A1C6A000E1924046E800EFF
:101370001A20056E100E1B20066E000E1C20076E34
:10138000000E096E2D0E086E5AEC35F0020E9BEC25
:1013900035F04F50196E50501A6E1B6A1C6A000EC1
:1013A0001924046E800E1A20056E100E1B20066E86
:1013B000000E1C20076E000E096E1C0E086E5AEC03
:1013C00035F0020E9BEC35F04F50196E50501A6EEE
:1013D0001B6A1C6A000E1924046E800E1A20056E0A
:1013E000100E1B20066E000E1C20076E060E096EE6
:1013F000000E086E5AEC35F0020E9BEC35F04F50A3
:10140000196E50501A6E1B6A1C6A000E1924096E60
:10141000800E1A200A6E100E1B200B6E000E1C2070
:101420000C6E8A0E0D6E0F0E0E6E79EC33F09BEC87
:1014300035F00C0E116EFF0E126EFF0E136EFF0EC6
:10144000146E82EC34F04F50196E50501A6E1B6AB5
:101450001C6A000E1924046E800E1A20056E100EF0
:101460001B20066E000E1C20076E010E096E810EF9
:10147000086E5AEC35F0020E9BEC35F04F50196EA9
:1014800050501A6E1B6A1C6A000E1924046E800EDE
:101490001A20056E100E1B20066E000E1C20076E13
:1014A000000E096E2D0E086E5AEC35F0020E9BEC04
:1014B00035F04F50196E50501A6E1B6A1C6A000EA0
:1014C0001924046E800E1A20056E100E1B20066E65
:1014D000000E1C20076E000E096E1C0E086E5AECE2
:1014E00035F0020E9BEC35F04F50196E50501A6ECD
:1014F0001B6A1C6A000E1924046E800E1A20056EE9
:10150000100E1B20066E000E1C20076E060E096EC4
:10151000000E086E5AEC35F0020E9BEC35F04F5081
:10152000196E50501A6E1B6A1C6A000E1924096E3F
:10153000800E1A200A6E100E1B200B6E000E1C204F
:101540000C6E860E0D6E0F0E0E6E79EC33F09BEC6A
:1015500035F00C0E116EFF0E126EFF0E136EFF0EA5
:10156000146E82EC34F04F50196E50501A6E1B6A94
:101570001C6A000E1924046E800E1A20056E100ECF
:101580001B20066E000E1C20076E010E096E810ED8
:10159000086E5AEC35F0020E9BEC35F04F50196E88
:1015A00050501A6E1B6A1C6A000E1924046E800EBD
:1015B0001A20056E100E1B20066E000E1C20076EF2
:1015C000000E096E780E086E5AEC35F0020E9BEC98
:1015D00035F04F50196E50501A6E1B6A1C6A000E7F
:1015E0001924046E800E1A20056E100E1B20066E44
:1015F000000E1C20076E000E096E1C0E086E5AECC1
:1016000035F0020E9BEC35F04F50196E50501A6EAB
:101610001B6A1C6A000E1924046E800E1A20056EC7
:10162000100E1B20066E000E1C20076E060E096EA3
:10163000000E086E5AEC35F0020E9BEC35F04F5060
:10164000196E50501A6E1B6A1C6A000E1924096E1E
:10165000800E1A200A6E100E1B200B6E000E1C202E
:101660000C6E470E0D6E0F0E0E6E79EC33F09BEC88
:1016700035F00C0E116EFF0E126EFF0E136EFF0E84
:10168000146E82EC34F04F50196E50501A6E1B6A73
:101690001C6A000E1924046E800E1A20056E100EAE
:1016A0001B20066E000E1C20076E000E096E410EF8
:1016B000086E5AEC35F0020E9BEC35F04F50196E67
:1016C00050501A6E1B6A1C6A000E1924046E800E9C
:1016D0001A20056E100E1B20066E000E1C20076ED1
:1016E000000E096EF50E086E5AEC35F0020E9BECFA
:1016F00035F04F50196E50501A6E1B6A1C6A000E5E
:101700001924046E800E1A20056E100E1B20066E22
:10171000000E1C20076E000E096E1C0E086E5AEC9F
:1017200035F0020E9BEC35F04F50196E50501A6E8A
:101730001B6A1C6A000E1924046E800E1A20056EA6
:10174000100E1B20066E000E1C20076E000E096E88
:10175000000E086E5AEC35F0020E9BEC35F04F503F
:10176000196E50501A6E1B6A1C6A000E1924096EFD
:10177000800E1A200A6E100E1B200B6E000E1C200D
:101780000C6E740E0D6E0F0E0E6E79EC33F09BEC3A
:1017900035F00C0E116EFF0E126EFF0E136EFF0E63
:1017A000146E82EC34F04F50196E50501A6E1B6A52
:1017B0001C6A000E1924046E800E1A20056E100E8D
:1017C0001B20066E000E1C20076E000E096E2D0EEB
:1017D000086E5AEC35F0020E9BEC35F04F50196E46
:1017E00050501A6E1B6A1C6A000E1924046E800E7B
:1017F0001A20056E100E1B20066E000E1C20076EB0
:10180000000E096EF50E086E5AEC35F0020E9BECD8
:1018100035F04F50196E50501A6E1B6A1C6A000E3C
:101820001924046E800E1A20056E100E1B20066E01
:10183000000E1C20076E000E096E1C0E086E5AEC7E
:1018400035F0020E9BEC35F04F50196E50501A6E69
:101850001B6A1C6A000E1924046E800E1A20056E85
:10186000100E1B20066E000E1C20076E000E096E67
:10187000000E086E5AEC35F0020E9BEC35F04F501E
:10188000196E50501A6E1B6A1C6A000E1924096EDC
:10189000800E1A200A6E100E1B200B6E000E1C20EC
:1018A0000C6E910E0D6E0F0E0E6E79EC33F09BECFC
:1018B00035F00C0E116EFF0E126EFF0E136EFF0E42
:1018C000146E82EC34F04F50196E50501A6E1B6A31
:1018D0001C6A000E1924046E800E1A20056E100E6C
:1018E0001B20066E000E1C20076E010E096E720E84
:1018F000086E5AEC35F0020E9BEC35F04F50196E25
:1019000050501A6E1B6A1C6A000E1924046E800E59
:101910001A20056E100E1B20066E000E1C20076E8E
:10192000000E096EF50E086E5AEC35F0020E9BECB7
:1019300035F04F50196E50501A6E1B6A1C6A000E1B
:101940001924046E800E1A20056E100E1B20066EE0
:10195000000E1C20076E000E096E1C0E086E5AEC5D
:1019600035F0020E9BEC35F04F50196E50501A6E48
:101970001B6A1C6A000E1924046E800E1A20056E64
:10198000100E1B20066E000E1C20076E000E096E46
:10199000000E086E5AEC35F0020E9BEC35F04F50FD
:1019A000196E50501A6E1B6A1C6A000E1924096EBB
:1019B000800E1A200A6E100E1B200B6E000E1C20CB
:1019C0000C6E8E0E0D6E0F0E0E6E79EC33F09BECDE
:1019D00035F00C0E116EFF0E126EFF0E136EFF0E21
:1019E000146E82EC34F04F50196E50501A6E1B6A10
:1019F0001C6A000E1924046E800E1A20056E100E4B
:101A00001B20066E000E1C20076E010E096ECB0E09
:101A1000086E5AEC35F0020E9BEC35F04F50196E03
:101A200050501A6E1B6A1C6A000E1924046E800E38
:101A30001A20056E100E1B20066E000E1C20076E6D
:101A4000000E096EF50E086E5AEC35F0020E9BEC96
:101A500035F04F50196E50501A6E1B6A1C6A000EFA
:101A60001924046E800E1A20056E100E1B20066EBF
:101A7000000E1C20076E000E096E1C0E086E5AEC3C
:101A800035F0020E9BEC35F04F50196E50501A6E27
:101A90001B6A1C6A000E1924046E800E1A20056E43
:101AA000100E1B20066E000E1C20076E000E096E25
:101AB000000E086E5AEC35F0020E9BEC35F04F50DC
:101AC000196E50501A6E1B6A1C6A000E1924096E9A
:101AD000800E1A200A6E100E1B200B6E000E1C20AA
:101AE0000C6E910E0D6E0F0E0E6E79EC33F09BECBA
:101AF00035F00C0E116EFF0E126EFF0E136EFF0E00
:101B0000146E82EC34F04F50196E50501A6E1B6AEE
:101B10001C6A000E1924046E800E1A20056E100E29
:101B20001B20066E000E1C20076E000E096E8B0E29
:101B3000086E5AEC35F0020E9BEC35F04F50196EE2
:101B400050501A6E1B6A1C6A000E1924046E800E17
:101B50001A20056E100E1B20066E000E1C20076E4C
:101B6000000E096E7D0E086E5AEC35F0020E9BECED
:101B700035F04F50196E50501A6E1B6A1C6A000ED9
:101B80001924046E800E1A20056E100E1B20066E9E
:101B9000000E1C20076E000E096E1B0E086E5AEC1C
:101BA00035F0020E9BEC35F04F50196E50501A6E06
:101BB0001B6A1C6A000E1924046E800E1A20056E22
:101BC000100E1B20066E000E1C20076E060E096EFE
:101BD000000E086E5AEC35F0020E9BEC35F04F50BB
:101BE000196E50501A6E1B6A1C6A000E1924096E79
:101BF000800E1A200A6E100E1B200B6E000E1C2089
:101C00000C6E7E0E0D6E0F0E0E6E79EC33F09BECAB
:101C100035F00C0E116EFF0E126EFF0E136EFF0EDE
:101C2000146E82EC34F04F50196E50501A6E1B6ACD
:101C30001C6A000E1924046E800E1A20056E100E08
:101C40001B20066E000E1C20076E010E096E0E0E84
:101C5000086E5AEC35F0020E9BEC35F04F50196EC1
:101C600050501A6E1B6A1C6A000E1924046E800EF6
:101C70001A20056E100E1B20066E000E1C20076E2B
:101C8000000E096EF50E086E5AEC35F0020E9BEC54
:101C900035F04F50196E50501A6E1B6A1C6A000EB8
:101CA0001924046E800E1A20056E100E1B20066E7D
:101CB000000E1C20076E000E096E1C0E086E5AECFA
:101CC00035F0020E9BEC35F04F50196E50501A6EE5
:101CD0001B6A1C6A000E1924046E800E1A20056E01
:101CE000100E1B20066E000E1C20076E000E096EE3
:101CF000000E086E5AEC35F0020E9BEC35F04F509A
:101D0000196E50501A6E1B6A1C6A000E1924096E57
:101D1000800E1A200A6E100E1B200B6E000E1C2067
:101D20000C6E990E0D6E0F0E0E6E79EC33F09BEC6F
:101D300035F00C0E116EFF0E126EFF0E136EFF0EBD
:101D4000146E82EC34F04F50196E50501A6E1B6AAC
:101D50001C6A000E1924046E800E1A20056E100EE7
:101D60001B20066E000E1C20076E000E096E2F0E43
:101D7000086E5AEC35F0020E9BEC35F04F50196EA0
:101D800050501A6E1B6A1C6A000E1924046E800ED5
:101D90001A20056E100E1B20066E000E1C20076E0A
:101DA000000E096E7D0E086E5AEC35F0020E9BECAB
:101DB00035F04F50196E50501A6E1B6A1C6A000E97
:101DC0001924046E800E1A20056E100E1B20066E5C
:101DD000000E1C20076E000E096E1C0E086E5AECD9
:101DE00035F0020E9BEC35F04F50196E50501A6EC4
:101DF0001B6A1C6A000E1924046E800E1A20056EE0
:101E0000100E1B20066E000E1C20076E060E096EBB
:101E1000000E086E5AEC35F0020E9BEC35F04F5078
:101E2000196E50501A6E1B6A1C6A000E1924096E36
:101E3000800E1A200A6E100E1B200B6E000E1C2046
:101E40000C6E6A0E0D6E0F0E0E6E79EC33F09BEC7D
:101E500035F00C0E116EFF0E126EFF0E136EFF0E9C
:101E6000146E82EC34F04F50196E50501A6E1B6A8B
:101E70001C6A000E1924046E800E1A20056E100EC6
:101E80001B20066E000E1C20076E010E096E0C0E44
:101E9000086E5AEC35F0020E9BEC35F04F50196E7F
:101EA00050501A6E1B6A1C6A000E1924046E800EB4
:101EB0001A20056E100E1B20066E000E1C20076EE9
:101EC000000E096EBE0E086E5AEC35F0020E9BEC49
:101ED00035F04F50196E50501A6E1B6A1C6A000E76
:101EE0001924046E800E1A20056E100E1B20066E3B
:101EF000000E1C20076E000E096E1B0E086E5AECB9
:101F000035F0020E9BEC35F04F50196E50501A6EA2
:101F10001B6A1C6A000E1924046E800E1A20056EBE
:101F2000100E1B20066E000E1C20076E060E096E9A
:101F3000000E086E5AEC35F0020E9BEC35F04F5057
:101F4000196E50501A6E1B6A1C6A000E1924096E15
:101F5000800E1A200A6E100E1B200B6E000E1C2025
:101F60000C6E010E0D6E0F0E0E6E79EC33F09BECC5
:101F700035F0120066D30C0E116EFF0E126EFF0EBE
:101F8000136EFF0E146E82EC34F04F501B6E5050E7
:101F90001C6E1D6A1E6A000E1B24046E800E1C201F
:101FA000056E100E1D20066E000E1E20076E000E20
:101FB000096E8B0E086E5AEC35F0020E9BEC35F074
:101FC0004F501B6E50501C6E1D6A1E6A000E1B2463
:101FD000046E800E1C20056E100E1D20066E000E75
:101FE0001E20076E000E096E920E086E5AEC35F038
:101FF000020E9BEC35F04F501B6E50501C6E1D6A4C
:102000001E6A000E1B24046E800E1C20056E100E2E
:102010001D20066E000E1E20076E000E096E1B0EA0
:10202000086E5AEC35F0020E9BEC35F04F501B6EEB
:1020300050501C6E1D6A1E6A000E1B24046E800E1A
:102040001C20056E100E1D20066E000E1E20076E51
:10205000020E096E000E086E5AEC35F0020E9BEC73
:1020600035F04F501B6E50501C6E1D6A1E6A000EDC
:102070001B24096E800E1C200A6E100E1D200B6E94
:10208000000E1E200C6E650E0D6E0F0E0E6E79EC9E
:1020900033F09BEC35F012000C0E116EFF0E126E39
:1020A000FF0E136EFF0E146E82EC34F04F501B6E59
:1020B00050501C6E1D6A1E6A000E1B24046E800E9A
:1020C0001C20056E100E1D20066E000E1E20076ED1
:1020D000000E096E8B0E086E5AEC35F0020E9BEC6A
:1020E00035F04F501B6E50501C6E1D6A1E6A000E5C
:1020F0001B24046E800E1C20056E100E1D20066E23
:10210000000E1E20076E000E096E920E086E5AEC2D
:1021100035F0020E9BEC35F04F501B6E50501C6E8C
:102120001D6A1E6A000E1B24046E800E1C20056EA4
:10213000100E1D20066E000E1E20076E000E096E8A
:102140001B0E086E5AEC35F0020E9BEC35F04F502A
:102150001B6E50501C6E1D6A1E6A000E1B24046EFE
:10216000800E1C20056E100E1D20066E000E1E2017
:10217000076E020E096E000E086E5AEC35F0020E64
:102180009BEC35F04F501B6E50501C6E1D6A1E6A42
:10219000000E1B24096E800E1C200A6E100E1D20DE
:1021A0000B6E000E1E200C6E210E0D6E0F0E0E6EAD
:1021B00079EC33F09BEC35F012000C0E116EFF0E33
:1021C000126EFF0E136EFF0E146E82EC34F04F5041
:1021D0001B6E50501C6E1D6A1E6A000E1B24046E7E
:1021E000800E1C20056E100E1D20066E000E1E2097
:1021F000076E000E096E8B0E086E5AEC35F0020E5B
:102200009BEC35F04F501B6E50501C6E1D6A1E6AC1
:10221000000E1B24046E800E1C20056E100E1D2067
:10222000066E000E1E20076E000E096E920E086EDE
:102230005AEC35F0020E9BEC35F04F501B6E5050AF
:102240001C6E1D6A1E6A000E1B24046E800E1C206C
:10225000056E100E1D20066E000E1E20076E000E6D
:10226000096E1B0E086E5AEC35F0020E9BEC35F031
:102270004F501B6E50501C6E1D6A1E6A000E1B24B0
:10228000046E800E1C20056E100E1D20066E000EC2
:102290001E20076E020E096E000E086E5AEC35F015
:1022A000020E9BEC35F04F501B6E50501C6E1D6A99
:1022B0001E6A000E1B24096E800E1C200A6E100E72
:1022C0001D200B6E000E1E200C6E5F0E0D6E0F0E8D
:1022D0000E6E79EC33F09BEC35F012000C0E116EA3
:1022E000FF0E126EFF0E136EFF0E146E82EC34F0B2
:1022F0004F501B6E50501C6E1D6A1E6A000E1B2430
:10230000046E800E1C20056E100E1D20066E000E41
:102310001E20076E000E096E8B0E086E5AEC35F00B
:10232000020E9BEC35F04F501B6E50501C6E1D6A18
:102330001E6A000E1B24046E800E1C20056E100EFB
:102340001D20066E000E1E20076E000E096E920EF6
:10235000086E5AEC35F0020E9BEC35F04F501B6EB8
:1023600050501C6E1D6A1E6A000E1B24046E800EE7
:102370001C20056E100E1D20066E000E1E20076E1E
:10238000000E096E1B0E086E5AEC35F0020E9BEC27
:1023900035F04F501B6E50501C6E1D6A1E6A000EA9
:1023A0001B24046E800E1C20056E100E1D20066E70
:1023B000000E1E20076E020E096E000E086E5AEC0B
:1023C00035F0020E9BEC35F04F501B6E50501C6EDA
:1023D0001D6A1E6A000E1B24096E800E1C200A6EE8
:1023E000100E1D200B6E000E1E200C6E0C0E0D6EBE
:1023F0000F0E0E6E79EC33F09BEC35F012000C0EE4
:10240000116EFF0E126EFF0E136EFF0E146E82EC35
:1024100034F04F501B6E50501C6E1D6A1E6A000E29
:102420001B24046E800E1C20056E100E1D20066EEF
:10243000000E1E20076E000E096E8B0E086E5AEC01
:1024400035F0020E9BEC35F04F501B6E50501C6E59
:102450001D6A1E6A000E1B24046E800E1C20056E71
:10246000100E1D20066E000E1E20076E000E096E57
:10247000920E086E5AEC35F0020E9BEC35F04F5080
:102480001B6E50501C6E1D6A1E6A000E1B24046ECB
:10249000800E1C20056E100E1D20066E000E1E20E4
:1024A000076E000E096E1B0E086E5AEC35F0020E18
:1024B0009BEC35F04F501B6E50501C6E1D6A1E6A0F
:1024C000000E1B24046E800E1C20056E100E1D20B5
:1024D000066E000E1E20076E020E096E000E086EBC
:1024E0005AEC35F0020E9BEC35F04F501B6E5050FD
:1024F0001C6E1D6A1E6A000E1B24096E800E1C20B5
:102500000A6E100E1D200B6E000E1E200C6E790E32
:102510000D6E0F0E0E6E79EC33F09BEC35F0120061
:102520000C0E116EFF0E126EFF0E136EFF0E146E68
:1025300082EC34F04F501B6E50501C6E1D6A1E6AA8
:10254000000E1B24046E800E1C20056E100E1D2034
:10255000066E000E1E20076E000E096E8B0E086EB2
:102560005AEC35F0020E9BEC35F04F501B6E50507C
:102570001C6E1D6A1E6A000E1B24046E800E1C2039
:10258000056E100E1D20066E000E1E20076E000E3A
:10259000096E920E086E5AEC35F0020E9BEC35F087
:1025A0004F501B6E50501C6E1D6A1E6A000E1B247D
:1025B000046E800E1C20056E100E1D20066E000E8F
:1025C0001E20076E000E096E1B0E086E5AEC35F0C9
:1025D000020E9BEC35F04F501B6E50501C6E1D6A66
:1025E0001E6A000E1B24046E800E1C20056E100E49
:1025F0001D20066E000E1E20076E020E096E000ED4
:10260000086E5AEC35F0020E9BEC35F04F501B6E05
:1026100050501C6E1D6A1E6A000E1B24096E800E2F
:102620001C200A6E100E1D200B6E000E1E200C6E5C
:10263000400E0D6E0F0E0E6E79EC33F09BEC35F004
:10264000120019C01BF01AC01CF01C50000AD8A4BC
:1026500067D71B50010AD8B48ED4030AD8B41CD54E
:10266000010AD8B4AAD5070AD8B438D6010AD8B412
:10267000C6D656D7206E090E116E000E126E000ED1
:10268000136E1F0E146E82EC34F02050D8B40BD0B1
:10269000000E116EFF0E126E000E136E040E146EFD
:1026A00082EC34F00AD03C0E116E3C0E126E3C0EE1
:1026B000136E040E146E82EC34F0000E116E700E68
:1026C000126E4D0E136E810E146E82EC34F0000EFD
:1026D000116E600E126E4E0E136E8B0E146E82EC27
:1026E00034F01950D8B40BD0000E116EFF0E126EDC
:1026F000000E136E040E146E82EC34F00AD03C0E01
:10270000116E3C0E126E3C0E136E040E146E82ECB3
:1027100034F0000E116E700E126E8D0E136E8C0E54
:10272000146E82EC34F0000E116E600E126E8E0E7E
:10273000136E960E146E82EC34F01A50D8B40BD08F
:10274000000E116EFF0E126E000E136E040E146E4C
:1027500082EC34F00AD03C0E116E3C0E126E3C0E30
:10276000136E040E146E82EC34F0000E116EE00E47
:10277000126E4B0E136E810E146E82EC34F0000E4E
:10278000116ED00E126E4C0E136E8B0E146E82EC08
:1027900034F01B50D8B40BD0000E116EFF0E126E29
:1027A000000E136E040E146E82EC34F00AD03C0E50
:1027B000116E3C0E126E3C0E136E040E146E82EC03
:1027C00034F0000E116EE00E126E8B0E136E8C0E36
:1027D000146E82EC34F0000E116ED00E126E8C0E60
:1027E000136E960E146E82EC34F02050D8B40BD0D9
:1027F000000E116E000E126E000E136E040E146E9B
:1028000082EC34F00AD0FF0E116EFF0E126EFF0E36
:10281000136E040E146E82EC34F00C0E116EFF0E6B
:10282000126EFF0E136EFF0E146E82EC34F04F50DA
:102830001C6E50501D6E1E6A1F6A000E1C24046E12
:10284000800E1D20056E100E1E20066E000E1F202D
:10285000076E000E096E320E086E5AEC35F0020E4D
:102860009BEC35F04F501C6E50501D6E1E6A1F6A57
:10287000000E1C24046E800E1D20056E100E1E20FE
:10288000066E000E1F20076E000E096EDE0E086E2B
:102890005AEC35F0020E9BEC35F04F501C6E505048
:1028A0001D6E1E6A1F6A000E1C24046E800E1D2001
:1028B000056E100E1E20066E000E1F20076E000E05
:1028C000096E1C0E086E5AEC35F0020E9BEC35F0CA
:1028D0004F501C6E50501D6E1E6A1F6A000E1C2445
:1028E000046E800E1D20056E100E1E20066E000E5A
:1028F0001F20076E060E096E000E086E5AEC35F0AA
:10290000020E9BEC35F04F501C6E50501D6E1E6A2F
:102910001F6A000E1C24096E800E1D200A6E100E08
:102920001E200B6E000E1F200C6E320E0D6E0F0E51
:102930000E6E79EC33F09BEC35F01950D8B40BD017
:10294000000E116E000E126E000E136E040E146E49
:1029500082EC34F00AD0FF0E116EFF0E126EFF0EE5
:10296000136E040E146E82EC34F00C0E116EFF0E1A
:10297000126EFF0E136EFF0E146E82EC34F04F5089
:102980001C6E50501D6E1E6A1F6A000E1C24046EC1
:10299000800E1D20056E100E1E20066E000E1F20DC
:1029A000076E000E096E8C0E086E5AEC35F0020EA2
:1029B0009BEC35F04F501C6E50501D6E1E6A1F6A06
:1029C000000E1C24046E800E1D20056E100E1E20AD
:1029D000066E000E1F20076E000E096EDE0E086EDA
:1029E0005AEC35F0020E9BEC35F04F501C6E5050F7
:1029F0001D6E1E6A1F6A000E1C24046E800E1D20B0
:102A0000056E100E1E20066E000E1F20076E000EB3
:102A1000096E1C0E086E5AEC35F0020E9BEC35F078
:102A20004F501C6E50501D6E1E6A1F6A000E1C24F3
:102A3000046E800E1D20056E100E1E20066E000E08
:102A40001F20076E060E096E000E086E5AEC35F058
:102A5000020E9BEC35F04F501C6E50501D6E1E6ADE
:102A60001F6A000E1C24096E800E1D200A6E100EB7
:102A70001E200B6E000E1F200C6E6F0E0D6E0F0EC3
:102A80000E6E79EC33F09BEC35F01A50D8B40BD0C5
:102A9000000E116E000E126E000E136E040E146EF8
:102AA00082EC34F00AD0FF0E116EFF0E126EFF0E94
:102AB000136E040E146E82EC34F00C0E116EFF0EC9
:102AC000126EFF0E136EFF0E146E82EC34F04F5038
:102AD0001C6E50501D6E1E6A1F6A000E1C24046E70
:102AE000800E1D20056E100E1E20066E000E1F208B
:102AF000076E000E096E320E086E5AEC35F0020EAB
:102B00009BEC35F04F501C6E50501D6E1E6A1F6AB4
:102B1000000E1C24046E800E1D20056E100E1E205B
:102B2000066E000E1F20076E000E096EC50E086EA1
:102B30005AEC35F0020E9BEC35F04F501C6E5050A5
:102B40001D6E1E6A1F6A000E1C24046E800E1D205E
:102B5000056E100E1E20066E000E1F20076E000E62
:102B6000096E1C0E086E5AEC35F0020E9BEC35F027
:102B70004F501C6E50501D6E1E6A1F6A000E1C24A2
:102B8000046E800E1D20056E100E1E20066E000EB7
:102B90001F20076E060E096E000E086E5AEC35F007
:102BA000020E9BEC35F04F501C6E50501D6E1E6A8D
:102BB0001F6A000E1C24096E800E1D200A6E100E66
:102BC0001E200B6E000E1F200C6E390E0D6E0F0EA8
:102BD0000E6E79EC33F09BEC35F01B50D8B40BD073
:102BE000000E116E000E126E000E136E040E146EA7
:102BF00082EC34F00AD0FF0E116EFF0E126EFF0E43
:102C0000136E040E146E82EC34F00C0E116EFF0E77
:102C1000126EFF0E136EFF0E146E82EC34F04F50E6
:102C20001C6E50501D6E1E6A1F6A000E1C24046E1E
:102C3000800E1D20056E100E1E20066E000E1F2039
:102C4000076E000E096E8C0E086E5AEC35F0020EFF
:102C50009BEC35F04F501C6E50501D6E1E6A1F6A63
:102C6000000E1C24046E800E1D20056E100E1E200A
:102C7000066E000E1F20076E000E096EC50E086E50
:102C80005AEC35F0020E9BEC35F04F501C6E505054
:102C90001D6E1E6A1F6A000E1C24046E800E1D200D
:102CA000056E100E1E20066E000E1F20076E000E11
:102CB000096E1C0E086E5AEC35F0020E9BEC35F0D6
:102CC0004F501C6E50501D6E1E6A1F6A000E1C2451
:102CD000046E800E1D20056E100E1E20066E000E66
:102CE0001F20076E060E096E000E086E5AEC35F0B6
:102CF000020E9BEC35F04F501C6E50501D6E1E6A3C
:102D00001F6A000E1C24096E800E1D200A6E100E14
:102D10001E200B6E000E1F200C6E4D0E0D6E0F0E42
:102D20000E6E79EC33F09BEC35F012001DC029F0EB
:102D30001EC02AF0291E2A1E294A2A2A2150292487
:102D40002F6E22502A20306E1FC029F020C02AF09A
:102D5000291E2A1E294A2A2A235029242D6E24504E
:102D60002A202E6E30BEA0D0305003E12F04D8A010
:102D70009BD0000E116E000E126EFF0E136E040E2D
:102D8000146E82EC34F00C0E116EFF0E126EFF0EFC
:102D9000136EFF0E146E82EC34F04F50296E5050BB
:102DA0002A6E2B6A2C6A000E2924046E800E2A20BB
:102DB000056E100E2B20066E000E2C20076E010EE5
:102DC000096E6A0E086E5AEC35F0020E9BEC35F077
:102DD0004F50296E50502A6E2B6A2C6A000E2924FF
:102DE000046E800E2A20056E100E2B20066E000E3B
:102DF0002C20076E000E096EC30E086E5AEC35F0DB
:102E0000020E9BEC35F04F50296E50502A6E2B6A03
:102E10002C6A000E2924046E800E2A20056E100EE6
:102E20002B20066E000E2C20076E000E096E1E0E63
:102E3000086E5AEC35F0020E9BEC35F04F50296EBF
:102E400050502A6E2B6A2C6A000E2924046E800EC4
:102E50002A20056E100E2B20066E000E2C20076E09
:102E6000000E096E000E086E5AEC35F0020E9BEC57
:102E700035F04F50296E50502A6E2B6A2C6A000E86
:102E80002924096E800E2A200A6E100E2B200B6E4C
:102E9000000E2C200C6E930E0D6E0F0E0E6E79EC44
:102EA00033F09BEC35F09AD0000E116EFF0E126ECF
:102EB000000E136E040E146E82EC34F00C0E116EC4
:102EC000FF0E126EFF0E136EFF0E146E82EC34F0C6
:102ED0004F50296E50502A6E2B6A2C6A000E2924FE
:102EE000046E800E2A20056E100E2B20066E000E3A
:102EF0002C20076E010E096E6A0E086E5AEC35F032
:102F0000020E9BEC35F04F50296E50502A6E2B6A02
:102F10002C6A000E2924046E800E2A20056E100EE5
:102F20002B20066E000E2C20076E000E096EC30EBD
:102F3000086E5AEC35F0020E9BEC35F04F50296EBE
:102F400050502A6E2B6A2C6A000E2924046E800EC3
:102F50002A20056E100E2B20066E000E2C20076E08
:102F6000000E096E1E0E086E5AEC35F0020E9BEC38
:102F700035F04F50296E50502A6E2B6A2C6A000E85
:102F80002924046E800E2A20056E100E2B20066E5A
:102F9000000E2C20076E000E096E000E086E5AEC13
:102FA00035F0020E9BEC35F04F50296E50502A6ED2
:102FB0002B6A2C6A000E2924096E800E2A200A6EC4
:102FC000100E2B200B6E000E2C200C6E950E0D6E2D
:102FD0000F0E0E6E79EC33F09BEC35F00C0E116E8B
:102FE000FF0E126EFF0E136EFF0E146E82EC34F0A5
:102FF0004F50296E50502A6E2B6A2C6A000E2924DD
:10300000046E800E2A20056E100E2B20066E000E18
:103010002C20076E010E096E9F0E086E5AEC35F0DB
:10302000020E9BEC35F04F50296E50502A6E2B6AE1
:103030002C6A000E2924046E800E2A20056E100EC4
:103040002B20066E000E2C20076E000E096EC30E9C
:10305000086E5AEC35F0020E9BEC35F04F50296E9D
:1030600050502A6E2B6A2C6A000E2924046E800EA2
:103070002A20056E100E2B20066E000E2C20076EE7
:10308000000E096E1E0E086E5AEC35F0020E9BEC17
:1030900035F04F50296E50502A6E2B6A2C6A000E64
:1030A0002924046E800E2A20056E100E2B20066E39
:1030B000000E2C20076E000E096E000E086E5AECF2
:1030C00035F0020E9BEC35F04F50296E50502A6EB1
:1030D0002B6A2C6A000E2924096E800E2A200A6EA3
:1030E000100E2B200B6E000E2C200C6E970E0D6E0A
:1030F0000F0E0E6E79EC33F09BEC35F02E0E116E48
:10310000FF0E126EFF0E136EFF0E146E82EC34F083
:103110004F50296E50502A6E2B6A2C6A000E2924BB
:10312000046E800E2A20056E100E2B20066E000EF7
:103130002C20076E010E096E9A0E086E5AEC35F0BF
:10314000020E9BEC35F04F50296E50502A6E2B6AC0
:103150002C6A000E2924046E800E2A20056E100EA3
:103160002B20066E000E2C20076E000E096EC30E7B
:10317000086E5AEC35F0020E9BEC35F04F50296E7C
:1031800050502A6E2B6A2C6A000E2924046E800E81
:103190002A20056E100E2B20066E000E2C20076EC6
:1031A000000E096E1E0E086E5AEC35F0020E9BECF6
:1031B00035F04F50296E50502A6E2B6A2C6A000E43
:1031C0002924046E800E2A20056E100E2B20066E18
:1031D000000E2C20076E080E096E000E086E5AECC9
:1031E00035F0020E9BEC35F02FC011F030C012F01C
:1031F000000E12BEFF0E136E146E82EC34F02E0E13
:10320000116EFF0E126EFF0E136EFF0E146E82EC27
:1032100034F04F50296E50502A6E2B6A2C6A000EE3
:103220002924046E800E2A20056E100E2B20066EB7
:10323000000E2C20076E010E096EA90E086E5AECC6
:1032400035F0020E9BEC35F04F50296E50502A6E2F
:103250002B6A2C6A000E2924046E800E2A20056E2B
:10326000100E2B20066E000E2C20076E000E096E2D
:10327000C30E086E5AEC35F0020E9BEC35F04F5041
:10328000296E50502A6E2B6A2C6A000E2924046E77
:10329000800E2A20056E100E2B20066E000E2C20AC
:1032A000076E000E096E1E0E086E5AEC35F0020E07
:1032B0009BEC35F04F50296E50502A6E2B6A2C6AC9
:1032C000000E2924046E800E2A20056E100E2B207D
:1032D000066E000E2C20076E000E096E000E086EA2
:1032E0005AEC35F0020E9BEC35F02DC011F02EC0DB
:1032F00012F0000E12BEFF0E136E146E82EC34F04C
:10330000120020EED2F010EE99F0150EDBCFE3FFA5
:10331000E806FCE2000E0001746F000E816F20EEE3
:10332000AFF010EE60F0130EDBCFE3FFE806FCE237
:10333000000E856F000E846F000E776F000E766FA3
:10334000000E876F000E866F000E986F000E976F4D
:10335000000E896F000E886F000E8B6F000E8A6F53
:10336000000E8D6F000E8C6F000E8F6F000E8E6F33
:10337000000E916F000E906F000E796F000E786F47
:10338000000E936F000E926F000E956F000E946FFB
:10339000000E806F000E7F6F000E836F000E826F35
:1033A000000E7B6F000E7A6F000E966FA9EC35F061
:1033B0007DEC35F07080708A709E708C608A609CA5
:1033C000609476907692779A779CC80E0E01E86F9B
:1033D000400EE96FFE0EF86F1F0EF96FFE0EFC6FC8
:1033E000110EFD6FC79EC78CC68AC688C650F00BEB
:1033F0000209C66EC7EC29F0A9EC35F0C650F00BF7
:103400000109C66E84C02DF085C02EF076C02FF065
:1034100077C030F092C031F093C032F086C033F004
:1034200087C034F097C035F098C036F082C037F0CE
:1034300083C038F094C039F095C03AF088C03BF0B2
:1034400089C03CF08AC03DF08BC03EF08CC03FF09C
:103450008DC040F08EC041F08FC042F090C043F06C
:1034600091C044F0B1EC32F0FA0E036E6B0E046EB4
:10347000F3EC35F001EC36F0F28EF28CC40E166EE1
:10348000000E176E80EC2CF00009D8B458D1400E15
:103490000001C51944E1060EC619C711C811D8A408
:1034A0003ED0CB51CAC045F0466A45C046F0456A99
:1034B0004510846F4650856FCD51CCC045F0466AAB
:1034C00045C046F0456A4510036E4650046E000E36
:1034D000066E0A0E056E37EC33F003C076F004C0BA
:1034E00077F00001CF51CEC045F0466A45C046F0A6
:1034F000456A4510036E4650046E000E066E0A0EB5
:10350000056E37EC33F003C092F004C093F0D0C0E6
:1035100097F00001986BD1C088F0896B10D1410EF3
:10352000C51923E1060EC619C711C811D8A41DD0AC
:10353000CB51CAC045F0466A45C046F0456A4510C1
:10354000036E4650046E000E066E0A0E056E37ECD2
:1035500033F003C07AF004C07BF0D0C08AF00001E1
:103560008B6BD1C078F0796BEAD0420EC51910E1AF
:10357000060EC619C711C811D8A40AD0CAC08CF04B
:103580008D6BCBC08EF08F6BCCC090F0916BD7D091
:10359000430EC5195BE1060EC619C711C811D8A4A0
:1035A00055D0CA45010BD8B402D0010E01D0000E8F
:1035B000816FCAC045F0060E466ED8904532462E41
:1035C000FCD745A002D0010E01D0000E756FCAC015
:1035D00045F0D8904532D8904532D8904532070E04
:1035E00045164550946F956BCAC045F0D89045324A
:1035F000D8904532010E45164550866F876B456A57
:10360000CBAF01D0452A45A002D0010E01D0000E5B
:103610007C6FCBC045F0060E466ED8904532462EE4
:10362000FCD745A002D0010E01D0000E7D6FCBC0AB
:1036300045F0050E466ED8904532462EFCD745A083
:1036400002D0010E01D0000E7E6F79D0440EC51954
:1036500076E1060EC619C711C811D8A470D0CB5197
:10366000CAC045F0466A45C046F0456A4510A16F9C
:103670004650A26FCD51CCC045F0466A45C046F0D9
:10368000456A4510996F46509A6FCF51CEC045F0AC
:10369000466A45C046F0456A45109B6F46509C6F90
:1036A000A1C003F0A2C004F0000E066E640E056E09
:1036B00037EC33F003C0A3F004C0A4F0A1C00BF0BA
:1036C000A2C00CF0000E0E6E640E0D6EB5EC33F061
:1036D0000BC0A5F00CC0A6F099C003F09AC004F08E
:1036E000000E066E640E056E37EC33F003C09DF0DD
:1036F00004C09EF099C00BF09AC00CF0000E0E6E44
:10370000640E0D6EB5EC33F00BC09FF00CC0A0F052
:103710000001A751995D9A51800A456EA851800A0F
:103720004558D8B00CD099C0A7F09AC0A8F09DC059
:10373000ABF09EC0ACF09FC0ADF0A0C0AEF00001F9
:10374000C351D8B49BD69651D8A438D098BF2DD0A9
:10375000985104E1160E975DD8A027D0EC0E116E9B
:10376000510E126EB80E136E3F0E146E7AC003F037
:103770007BC004F0000E04BEFF0E056E066E010E47
:1037800037EC2EF003C015F004C016F005C017F09A
:1037900006C018F06BEC2FF0D8B007D000017F4BBB
:1037A000802B000E836F010E08D0000E0001806F89
:1037B000000E7F6F000E836F000E826F80BF08D0F7
:1037C000805104E1210E7F5DD8A002D0010E966FDA
:1037D0009651D8B404D0000E836F020E826FA2EC13
:1037E00034F0CFEC07F04EEC1FF090C01FF091C00A
:1037F00020F097C021F098C022F068EC32F084C02D
:1038000019F085C01AF069EC1CF088C019F089C065
:103810001AF087EC30F08CC019F08DC01AF0FBEC78
:103820002FF08EC019F08FC01AF013EC31F094C055
:1038300019F095C01AF0BAEC0FF078C019F079C001
:103840001AF0D7EC2EF092C019F093C01AF020ECC9
:1038500028F08AC019F08BC01AF015EC22F086C04F
:1038600019F087C01AF046EC2BF07DC019F07EC02D
:103870001AF081C01BF000017C513AEC13F09DC09E
:1038800019F09EC01AF09FC01BF0A0C01CF0ABC086
:103890001DF0ACC01EF0ADC01FF0AEC020F0A3C044
:1038A00021F0A4C022F0A5C023F0A6C024F09BC044
:1038B00025F09CC026F0A9C027F0AAC028F096ECFD
:1038C00016F01EEC34F0000E0001C36FEEEC35F084
:1038D000D5D519C003F01AC004F0030E066EE80E29
:1038E000056E37EC33F003C023F004C024F0000E63
:1038F000066E640E056E19C003F01AC004F037ECB2
:1039000033F003C00BF004C00CF0000E0E6E0A0E74
:103910000D6EB5EC33F00BC025F00CC026F0020E96
:10392000286E910E276E19C003F01AC004F027C04C
:1039300005F028C006F037EC33F003C029F004C0CE
:103940002AF02E0E116EFF0E126EFF0E136EFF0E7A
:10395000146E82EC34F04F501B6E50501C6E1D6A7A
:103960001E6A000E1B24046E800E1C20056E100EB5
:103970001D20066E000E1E20076E010E096E7C0EC5
:10398000086E5AEC35F0020E9BEC35F04F501B6E72
:1039900050501C6E1D6A1E6A000E1B24046E800EA1
:1039A0001C20056E100E1D20066E000E1E20076ED8
:1039B000000E096E370E086E5AEC35F0020E9BECC5
:1039C00035F04F501B6E50501C6E1D6A1E6A000E63
:1039D0001B24046E800E1C20056E100E1D20066E2A
:1039E000000E1E20076E000E096E1F0E086E5AECA8
:1039F00035F0020E9BEC35F04F501B6E50501C6E94
:103A00001D6A1E6A000E1B24046E800E1C20056EAB
:103A1000100E1D20066E000E1E20076E080E096E89
:103A2000000E086E5AEC35F0020E9BEC35F023C008
:103A300011F024C012F0000E12BEFF0E136E146EB1
:103A400082EC34F02E0E116EFF0E126EFF0E136E0E
:103A5000FF0E146E82EC34F04F501B6E50501C6EF3
:103A60001D6A1E6A000E1B24046E800E1C20056E4B
:103A7000100E1D20066E000E1E20076E010E096E30
:103A80008D0E086E5AEC35F0020E9BEC35F04F505F
:103A90001B6E50501C6E1D6A1E6A000E1B24046EA5
:103AA000800E1C20056E100E1D20066E000E1E20BE
:103AB000076E000E096E370E086E5AEC35F0020ED6
:103AC0009BEC35F04F501B6E50501C6E1D6A1E6AE9
:103AD000000E1B24046E800E1C20056E100E1D208F
:103AE000066E000E1E20076E000E096E1F0E086E79
:103AF0005AEC35F0020E9BEC35F04F501B6E5050D7
:103B00001C6E1D6A1E6A000E1B24046E800E1C2093
:103B1000056E100E1D20066E000E1E20076E000E94
:103B2000096E000E086E5AEC35F0020E9BEC35F073
:103B300025C011F026C012F0000E12BEFF0E136E4B
:103B4000146E82EC34F00C0E116EFF0E126EFF0E2E
:103B5000136EFF0E146E82EC34F04F501B6E5050FB
:103B60001C6E1D6A1E6A000E1B24046E800E1C2033
:103B7000056E100E1D20066E000E1E20076E010E33
:103B8000096E7C0E086E5AEC35F0020E9BEC35F097
:103B90004F501B6E50501C6E1D6A1E6A000E1B2477
:103BA000046E800E1C20056E100E1D20066E000E89
:103BB0001E20076E000E096E370E086E5AEC35F0A7
:103BC000020E9BEC35F04F501B6E50501C6E1D6A60
:103BD0001E6A000E1B24046E800E1C20056E100E43
:103BE0001D20066E000E1E20076E000E096E1F0EB1
:103BF000086E5AEC35F0020E9BEC35F04F501B6E00
:103C000050501C6E1D6A1E6A000E1B24046E800E2E
:103C10001C20056E100E1D20066E000E1E20076E65
:103C2000000E096E000E086E5AEC35F0020E9BEC89
:103C300035F04F501B6E50501C6E1D6A1E6A000EF0
:103C40001B24096E800E1C200A6E100E1D200B6EA8
:103C5000000E1E200C6E970E0D6E0F0E0E6E79EC80
:103C600033F09BEC35F00C0E116EFF0E126EFF0E52
:103C7000136EFF0E146E82EC34F04F501B6E5050DA
:103C80001C6E1D6A1E6A000E1B24046E800E1C2012
:103C9000056E100E1D20066E000E1E20076E010E12
:103CA000096EA90E086E5AEC35F0020E9BEC35F049
:103CB0004F501B6E50501C6E1D6A1E6A000E1B2456
:103CC000046E800E1C20056E100E1D20066E000E68
:103CD0001E20076E000E096E4A0E086E5AEC35F073
:103CE000020E9BEC35F04F501B6E50501C6E1D6A3F
:103CF0001E6A000E1B24046E800E1C20056E100E22
:103D00001D20066E000E1E20076E000E096E1C0E92
:103D1000086E5AEC35F0020E9BEC35F04F501B6EDE
:103D200050501C6E1D6A1E6A000E1B24046E800E0D
:103D30001C20056E100E1D20066E000E1E20076E44
:103D4000000E096E000E086E5AEC35F0020E9BEC68
:103D500035F04F501B6E50501C6E1D6A1E6A000ECF
:103D60001B24096E800E1C200A6E100E1D200B6E87
:103D7000000E1E200C6E9B0E0D6E0F0E0E6E79EC5B
:103D800033F09BEC35F0020E116E000E126E000E39
:103D9000136E1F0E146E82EC34F0960E116E000E30
:103DA000126E000E136E0D0E146E82EC34F0000EC7
:103DB000116EFF0E126E000E136E040E146E82EC66
:103DC00034F0000E2C6E000E2B6E5DD02CBE10D089
:103DD0002C5004E10A0E2B5CD8A00AD0000E116E04
:103DE000FF0E126EFF0E136E040E146E82EC34F092
:103DF0002CBE10D02C5004E10F0E2B5CD8A00AD0A2
:103E0000000E116E000E126EFF0E136E040E146E75
:103E100082EC34F02BC003F02CC004F0000E066ED0
:103E2000190E056E47EC35F00F0E03241B6E000EC5
:103E300004201C6E1D6A1CBE1D061D501E6EFF0E4A
:103E40001B141F6E010E1C14206E000E1D14216E1B
:103E5000000E1E14226E150ED8901F362036213605
:103E60002236E82EF9D7000E1F10116E400E2010DA
:103E7000126E010E2110136E800E2210146E82EC51
:103E800034F02B4A2C2A29502B5C2C50800A1B6EB4
:103E90002A50800A1B58D8B0120098D7040E116E11
:103EA000000E126E000E136E1F0E146E82EC34F0B4
:103EB0000A0E116E000E126E000E136E0E0E146EB0
:103EC00082EC34F0000E116ED00E126EE20E136E04
:103ED000810E146E82EC34F0000E116ED00E126E54
:103EE000A20E136E800E146E82EC34F0000E116E72
:103EF000E00E126EA60E136E800E146E82EC34F07D
:103F0000000E116EE00E126E460E136E8B0E146EC6
:103F100082EC34F0000E116ED00E126E420E136E53
:103F20008B0E146E82EC34F0000E116ED00E126EF9
:103F3000020E136E8A0E146E82EC34F0000E116EB7
:103F4000000E126E000E136E210E146E82EC34F011
:103F5000040E116E000E126E000E136E1F0E146E04
:103F600082EC34F0000E116ED00E126E620E136EE3
:103F70008F0E146E82EC34F0000E116ED00E126EA5
:103F8000420E136E8C0E146E82EC34F0000E116E25
:103F9000E00E126E460E136E8C0E146E82EC34F030
:103FA000000E116EE00E126E860E136E960E146EDB
:103FB00082EC34F0000E116ED00E126E820E136E73
:103FC000960E146E82EC34F0000E116ED00E126E4E
:103FD000620E136E930E146E82EC34F0000E116EAE
:103FE000000E126E000E136E210E146E82EC34F071
:103FF000040E116E000E126E000E136E1F0E146E64
:1040000082EC34F00A0E116E000E126E000E136E6A
:104010000E0E146E82EC34F0000E116ED00E126E85
:10402000870E136E820E146E82EC34F0000E116E49
:10403000D00E126EA70E136E800E146E82EC34F04A
:10404000000E116E400E126EAB0E136E800E146ECB
:1040500082EC34F0000E116E400E126E4B0E136E99
:104060008B0E146E82EC34F0000E116ED00E126EB8
:10407000470E136E8B0E146E82EC34F0000E116E30
:10408000D00E126E070E136E8A0E146E82EC34F090
:10409000000E116E000E126E000E136E210E146EC5
:1040A00082EC34F0040E116E000E126E000E136ED0
:1040B0001F0E146E82EC34F00A0E116E000E126E9A
:1040C000000E136E0E0E146E82EC34F0000E116EA4
:1040D000D00E126E070E136E8F0E146E82EC34F03B
:1040E000000E116ED00E126E470E136E8C0E146EF3
:1040F00082EC34F0000E116E400E126E4B0E136EF9
:104100008C0E146E82EC34F0000E116E400E126EA6
:104110008B0E136E960E146E82EC34F0000E116E40
:10412000D00E126E870E136E960E146E82EC34F063
:10413000000E116ED00E126EC70E136E930E146E1B
:1041400082EC34F0000E116E000E126E000E136E33
:10415000210E146E82EC34F0040E116E000E126EFD
:10416000000E136E1F0E146E82EC34F00A0E116EE8
:10417000000E126E000E136E0E0E146E82EC34F0F2
:10418000000E116ED00E126E020E136EAD0E146E76
:1041900082EC34F0000E116ED00E126E820E136E91
:1041A000A50E146E82EC34F0000E116E900E126E9D
:1041B000860E136EA50E146E82EC34F0000E116E96
:1041C000900E126EC60E136EBA0E146E82EC34F0A0
:1041D000000E116ED00E126EC20E136EBA0E146E59
:1041E00082EC34F0000E116ED00E126E420E136E81
:1041F000B30E146E82EC34F0000E116E000E126ECF
:10420000000E136E210E146E82EC34F0040E116E4B
:10421000000E126E000E136E1F0E146E82EC34F040
:104220000A0E116E000E126E000E136E0E0E146E3C
:1042300082EC34F0000E116E800E126EC70E136EFB
:10424000AB0E146E82EC34F0000E116E800E126E06
:10425000870E136EA50E146E82EC34F0000E116EF4
:10426000400E126E8B0E136EA50E146E82EC34F09F
:10427000000E116E400E126ECB0E136EBA0E146E3F
:1042800082EC34F0000E116E800E126EC70E136EAB
:10429000BA0E146E82EC34F0000E116E800E126EA7
:1042A000870E136EB40E146E82EC34F0000E116E95
:1042B000000E126E000E136E210E146E82EC34F09E
:1042C000040E116E000E126E000E136E1F0E146E91
:1042D00082EC34F00A0E116E000E126E000E136E98
:1042E0000E0E146E82EC34F0000E116EE00E126EA3
:1042F0008B0E136E9B0E146E82EC34F0000E116E5A
:10430000E00E126ECB0E136E970E146E82EC34F02C
:10431000000E116E600E126ECE0E136E970E146E9E
:1043200082EC34F0000E116E600E126E2E0E136EC3
:10433000AB0E146E82EC34F0000E116EE00E126EB5
:104340002B0E136EAB0E146E82EC34F0000E116E59
:10435000E00E126E6B0E136EA70E146E82EC34F02C
:10436000000E116E000E126E000E136E210E146EF2
:1043700082EC34F0040E116E000E126E000E136EFD
:104380001F0E146E82EC34F00A0E116E000E126EC7
:10439000000E136E0E0E146E82EC34F0000E116ED1
:1043A000E00E126EAB0E136EAD0E146E82EC34F096
:1043B000000E116EE00E126E6B0E136EAC0E146ECC
:1043C00082EC34F0000E116E600E126E6E0E136EE3
:1043D000AC0E146E82EC34F0000E116E600E126E94
:1043E0002E0E136EBA0E146E82EC34F0000E116EA7
:1043F000E00E126E2B0E136EBA0E146E82EC34F0B9
:10440000000E116EE00E126EEB0E136EB80E146EEF
:1044100082EC34F0000E116E000E126E000E136E60
:10442000210E146E82EC34F01200600E116E000E3C
:10443000126E000E136E0E0E146E82EC34F0000E2F
:10444000116E7D0E126ECA0E136E040E146E82EC87
:1044500034F0030E116E000E126E000E136E1F0E5E
:10446000146E82EC34F037D2000E116ED00E126E44
:10447000020E136E990E146E82EC34F0000E116E63
:10448000500E126E0A0E136E990E146E82EC34F0FA
:10449000000E116ED00E126E020E136E990E146E77
:1044A00082EC34F0000E116E500E126E0A0E136E76
:1044B000A30E146E82EC34F0000E116E500E126ECC
:1044C0000A0E136EA30E146E82EC34F0000E116E01
:1044D000D00E126E020E136EA30E146E82EC34F028
:1044E0001200000E116ED00E126E020E136E9E0E92
:1044F000146E82EC34F0000E116E400E126E0A0E35
:10450000136E9E0E146E82EC34F0000E116ED00EFF
:10451000126EE20E136E9D0E146E82EC34F0000EDD
:10452000116E700E126E830E136E9B0E146E82EC63
:1045300034F0000E116E500E126E8A0E136E9B0E2A
:10454000146E82EC34F0000E116E500E126E0A0ED4
:10455000136E9E0E146E82EC34F01200000E116E7B
:10456000D00E126E020E136E990E146E82EC34F0A1
:10457000000E116ED00E126E020E136EA30E146E8C
:1045800082EC34F0000E116EE00E126E020E136E0D
:10459000A30E146E82EC34F0000E116E800E126EBB
:1045A000060E136EA30E146E82EC34F0000E116E24
:1045B000900E126EE60E136EA20E146E82EC34F0A4
:1045C000000E116E900E126E060E136E990E146E82
:1045D00082EC34F0000E116EA00E126E060E136EF9
:1045E000990E146E82EC34F0000E116E500E126EA5
:1045F0000A0E136E990E146E82EC34F0000E116EDA
:10460000500E126E2A0E136E990E146E82EC34F058
:10461000000E116E500E126E0A0E136EA30E146E63
:1046200082EC34F01200000E116ED00E126E020EEB
:10463000136E990E146E82EC34F0000E116ED00ED3
:10464000126EE20E136EA20E146E82EC34F0000EA7
:10465000116ED00E126E020E136EA30E146E82EC4B
:1046600034F0000E116E500E126E0A0E136EA30E71
:10467000146E82EC34F0000E116E900E126EE60E87
:10468000136EA20E146E82EC34F0000E116E900EBA
:10469000126E060E136E990E146E82EC34F0000E3C
:1046A000116E500E126E0A0E136E990E146E82EC7D
:1046B00034F0000E116E500E126EEA0E136EA20E42
:1046C000146E82EC34F01200000E116ED00E126ED9
:1046D000020E136E990E146E82EC34F0000E116E01
:1046E000800E126E060E136E990E146E82EC34F06C
:1046F000000E116ED00E126E020E136EA30E146E0B
:1047000082EC34F0000E116E500E126E0A0E136E13
:10471000A30E146E82EC34F0000E116E900E126E29
:10472000E60E136EA20E146E82EC34F0000E116EC3
:10473000900E126E260E136E990E146E82EC34F0EB
:104740001200000E116ED00E126E020E136E990E34
:10475000146E82EC34F0000E116ED00E126E020E4A
:10476000136EA30E146E82EC34F0000E116EE00E88
:10477000126E020E136E990E146E82EC34F0000E5F
:10478000116E800E126E060E136E990E146E82EC70
:1047900034F0000E116E900E126EE60E136EA20E25
:1047A000146E82EC34F0000E116E900E126E060E36
:1047B000136E990E146E82EC34F0000E116EA00E82
:1047C000126E060E136EA30E146E82EC34F0000E01
:1047D000116E400E126E0A0E136EA30E146E82EC52
:1047E00034F0000E116E500E126E2A0E136E990EDA
:1047F000146E82EC34F0000E116E500E126E0A0E22
:10480000136EA30E146E82EC34F01200000E116EC3
:10481000D00E126E220E136E990E146E82EC34F0CE
:10482000000E116ED00E126E020E136EA30E146ED9
:1048300082EC34F0000E116EE00E126E020E136E5A
:10484000990E146E82EC34F0000E116E400E126E52
:104850000A0E136E990E146E82EC34F0000E116E77
:10486000900E126E260E136E990E146E82EC34F0BA
:10487000000E116E900E126E060E136EA30E146EC5
:1048800082EC34F0000E116EA00E126E060E136E46
:10489000A30E146E82EC34F0000E116E400E126EF8
:1048A0000A0E136EA30E146E82EC34F0000E116E1D
:1048B000500E126E0A0E136E990E146E82EC34F0C6
:1048C000000E116E500E126EEA0E136EA20E146ED2
:1048D00082EC34F0120019C01BF01AC01CF01C50FE
:1048E000000AD8A412001B50000AD8B4BDD5010A92
:1048F000D8B4F7D5030AD8B431D6010AD8B493D6C0
:10490000070AD8B4E1D6010AD8B41BD7030AD8A441
:1049100012007CD7D1D1000E116EFF0E126E000E68
:10492000136E040E146E82EC34F00C0E116EFF0E3A
:10493000126EFF0E136EFF0E146E82EC34F04F50A9
:104940001B6E50501C6E1D6A1E6A000E1B24046EE6
:10495000800E1C20056E100E1D20066E000E1E20FF
:10496000076E010E096E0C0E086E5AEC35F0020E41
:104970009BEC35F04F501B6E50501C6E1D6A1E6A2A
:10498000000E1B24046E800E1C20056E100E1D20D0
:10499000066E000E1E20076E000E096ED40E086E05
:1049A0005AEC35F0020E9BEC35F04F501B6E505018
:1049B0001C6E1D6A1E6A000E1B24046E800E1C20D5
:1049C000056E100E1D20066E000E1E20076E000ED6
:1049D000096E1C0E086E5AEC35F0020E9BEC35F099
:1049E0004F501B6E50501C6E1D6A1E6A000E1B2419
:1049F000046E800E1C20056E100E1D20066E000E2B
:104A00001E20076E060E096E000E086E5AEC35F079
:104A1000020E9BEC35F04F501B6E50501C6E1D6A01
:104A20001E6A000E1B24096E800E1C200A6E100EDA
:104A30001D200B6E000E1E200C6E400E0D6E0F0E14
:104A40000E6E79EC33F09BEC35F01200000E116E17
:104A5000FF0E126EFF0E136E040E146E82EC34F015
:104A60000C0E116EFF0E126EFF0E136EFF0E146E03
:104A700082EC34F04F501B6E50501C6E1D6A1E6A43
:104A8000000E1B24046E800E1C20056E100E1D20CF
:104A9000066E000E1E20076E010E096E0C0E086ECB
:104AA0005AEC35F0020E9BEC35F04F501B6E505017
:104AB0001C6E1D6A1E6A000E1B24046E800E1C20D4
:104AC000056E100E1D20066E000E1E20076E000ED5
:104AD000096ED40E086E5AEC35F0020E9BEC35F0E0
:104AE0004F501B6E50501C6E1D6A1E6A000E1B2418
:104AF000046E800E1C20056E100E1D20066E000E2A
:104B00001E20076E000E096E1C0E086E5AEC35F062
:104B1000020E9BEC35F04F501B6E50501C6E1D6A00
:104B20001E6A000E1B24046E800E1C20056E100EE3
:104B30001D20066E000E1E20076E060E096E000E6A
:104B4000086E5AEC35F0020E9BEC35F04F501B6EA0
:104B500050501C6E1D6A1E6A000E1B24096E800ECA
:104B60001C200A6E100E1D200B6E000E1E200C6EF7
:104B70002A0E0D6E0F0E0E6E79EC33F09BEC35F0B5
:104B80001200000E116E000E126EFF0E136E040E58
:104B9000146E82EC34F00C0E116EFF0E126EFF0ECE
:104BA000136EFF0E146E82EC34F04F501B6E50509B
:104BB0001C6E1D6A1E6A000E1B24046E800E1C20D3
:104BC000056E100E1D20066E000E1E20076E010ED3
:104BD000096E0C0E086E5AEC35F0020E9BEC35F0A7
:104BE0004F501B6E50501C6E1D6A1E6A000E1B2417
:104BF000046E800E1C20056E100E1D20066E000E29
:104C00001E20076E000E096ED40E086E5AEC35F0A9
:104C1000020E9BEC35F04F501B6E50501C6E1D6AFF
:104C20001E6A000E1B24046E800E1C20056E100EE2
:104C30001D20066E000E1E20076E000E096E1C0E53
:104C4000086E5AEC35F0020E9BEC35F04F501B6E9F
:104C500050501C6E1D6A1E6A000E1B24046E800ECE
:104C60001C20056E100E1D20066E000E1E20076E05
:104C7000060E096E000E086E5AEC35F0020E9BEC23
:104C800035F04F501B6E50501C6E1D6A1E6A000E90
:104C90001B24096E800E1C200A6E100E1D200B6E48
:104CA000000E1E200C6E590E0D6E0F0E0E6E79EC5E
:104CB00033F09BEC35F0120019C01BF01AC01CF049
:104CC0001C50000AD8A412001B50000AD8B423D6E6
:104CD000010AD8B4BBD6030AD8A4120052D7FF0EDB
:104CE000116EFF0E126EFF0E136E040E146E82EC28
:104CF00034F02E0E116EFF0E126EFF0E136EFF0EAD
:104D0000146E82EC34F04F501B6E50501C6E1D6AB6
:104D10001E6A000E1B24046E800E1C20056E100EF1
:104D20001D20066E000E1E20076E000E096EF00E8E
:104D3000086E5AEC35F0020E9BEC35F04F501B6EAE
:104D400050501C6E1D6A1E6A000E1B24046E800EDD
:104D50001C20056E100E1D20066E000E1E20076E14
:104D6000000E096EEC0E086E5AEC35F0020E9BEC4C
:104D700035F04F501B6E50501C6E1D6A1E6A000E9F
:104D80001B24046E800E1C20056E100E1D20066E66
:104D9000000E1E20076E000E096E1E0E086E5AECE5
:104DA00035F0020E9BEC35F04F501B6E50501C6ED0
:104DB0001D6A1E6A000E1B24046E800E1C20056EE8
:104DC000100E1D20066E000E1E20076E080E096EC6
:104DD000000E086E5AEC35F0020E9BEC35F019C04F
:104DE00003F01AC004F0000E066E0A0E056E37ECD2
:104DF00033F003C011F004C012F0000E12BEFF0E1B
:104E0000136E146E82EC34F00C0E116EFF0E126EE7
:104E1000FF0E136EFF0E146E82EC34F04F501B6EBB
:104E200050501C6E1D6A1E6A000E1B24046E800EFC
:104E30001C20056E100E1D20066E000E1E20076E33
:104E4000000E096EF00E086E5AEC35F0020E9BEC67
:104E500035F04F501B6E50501C6E1D6A1E6A000EBE
:104E60001B24046E800E1C20056E100E1D20066E85
:104E7000000E1E20076E000E096EEC0E086E5AEC36
:104E800035F0020E9BEC35F04F501B6E50501C6EEF
:104E90001D6A1E6A000E1B24046E800E1C20056E07
:104EA000100E1D20066E000E1E20076E000E096EED
:104EB0001E0E086E5AEC35F0020E9BEC35F04F508A
:104EC0001B6E50501C6E1D6A1E6A000E1B24046E61
:104ED000800E1C20056E100E1D20066E000E1E207A
:104EE000076E000E096E000E086E5AEC35F0020EC9
:104EF0009BEC35F04F501B6E50501C6E1D6A1E6AA5
:104F0000000E1B24096E800E1C200A6E100E1D2040
:104F10000B6E000E1E200C6E970E0D6E0F0E0E6E99
:104F200079EC33F09BEC35F02E0E116EFF0E126E05
:104F3000FF0E136EFF0E146E82EC34F04F501B6E9A
:104F400050501C6E1D6A1E6A000E1B24046E800EDB
:104F50001C20056E100E1D20066E000E1E20076E12
:104F6000000E096EF80E086E5AEC35F0020E9BEC3E
:104F700035F04F501B6E50501C6E1D6A1E6A000E9D
:104F80001B24046E800E1C20056E100E1D20066E64
:104F9000000E1E20076E000E096EEC0E086E5AEC15
:104FA00035F0020E9BEC35F04F501B6E50501C6ECE
:104FB0001D6A1E6A000E1B24046E800E1C20056EE6
:104FC000100E1D20066E000E1E20076E000E096ECC
:104FD0001E0E086E5AEC35F0020E9BEC35F04F5069
:104FE0001B6E50501C6E1D6A1E6A000E1B24046E40
:104FF000800E1C20056E100E1D20066E000E1E2059
:10500000076E000E096E000E086E5AEC35F0020EA7
:105010009BEC35F019C00BF01AC00CF0000E0E6EB0
:105020000A0E0D6EB5EC33F00BC011F00CC012F08F
:10503000000E12BEFF0E136E146E82EC34F01200DE
:105040002E0E116EFF0E126EFF0E136EFF0E146EFB
:1050500082EC34F04F501B6E50501C6E1D6A1E6A5D
:10506000000E1B24046E800E1C20056E100E1D20E9
:10507000066E000E1E20076E010E096E330E086EBE
:105080005AEC35F0020E9BEC35F04F501B6E505031
:105090001C6E1D6A1E6A000E1B24046E800E1C20EE
:1050A000056E100E1D20066E000E1E20076E000EEF
:1050B000096EC30E086E5AEC35F0020E9BEC35F00B
:1050C0004F501B6E50501C6E1D6A1E6A000E1B2432
:1050D000046E800E1C20056E100E1D20066E000E44
:1050E0001E20076E000E096E1E0E086E5AEC35F07B
:1050F000020E9BEC35F04F501B6E50501C6E1D6A1B
:105100001E6A000E1B24046E800E1C20056E100EFD
:105110001D20066E000E1E20076E080E096E000E82
:10512000086E5AEC35F0020E9BEC35F019C003F016
:105130001AC004F0000E066E0A0E056E37EC33F04E
:1051400003C011F004C012F0000E12BEFF0E136E69
:10515000146E82EC34F00C0E116EFF0E126EFF0E08
:10516000136EFF0E146E82EC34F04F501B6E5050D5
:105170001C6E1D6A1E6A000E1B24046E800E1C200D
:10518000056E100E1D20066E000E1E20076E010E0D
:10519000096E360E086E5AEC35F0020E9BEC35F0B7
:1051A0004F501B6E50501C6E1D6A1E6A000E1B2451
:1051B000046E800E1C20056E100E1D20066E000E63
:1051C0001E20076E000E096EC30E086E5AEC35F0F5
:1051D000020E9BEC35F04F501B6E50501C6E1D6A3A
:1051E0001E6A000E1B24046E800E1C20056E100E1D
:1051F0001D20066E000E1E20076E000E096E1E0E8C
:10520000086E5AEC35F0020E9BEC35F04F501B6ED9
:1052100050501C6E1D6A1E6A000E1B24046E800E08
:105220001C20056E100E1D20066E000E1E20076E3F
:10523000000E096E000E086E5AEC35F0020E9BEC63
:1052400035F04F501B6E50501C6E1D6A1E6A000ECA
:105250001B24096E800E1C200A6E100E1D200B6E82
:10526000000E1E200C6E970E0D6E0F0E0E6E79EC5A
:1052700033F09BEC35F02E0E116EFF0E126EFF0E0A
:10528000136EFF0E146E82EC34F04F501B6E5050B4
:105290001C6E1D6A1E6A000E1B24046E800E1C20EC
:1052A000056E100E1D20066E000E1E20076E010EEC
:1052B000096E3E0E086E5AEC35F0020E9BEC35F08E
:1052C0004F501B6E50501C6E1D6A1E6A000E1B2430
:1052D000046E800E1C20056E100E1D20066E000E42
:1052E0001E20076E000E096EC30E086E5AEC35F0D4
:1052F000020E9BEC35F04F501B6E50501C6E1D6A19
:105300001E6A000E1B24046E800E1C20056E100EFB
:105310001D20066E000E1E20076E000E096E1E0E6A
:10532000086E5AEC35F0020E9BEC35F04F501B6EB8
:1053300050501C6E1D6A1E6A000E1B24046E800EE7
:105340001C20056E100E1D20066E000E1E20076E1E
:10535000000E096E000E086E5AEC35F0020E9BEC42
:1053600035F019C00BF01AC00CF0000E0E6E0A0ECC
:105370000D6EB5EC33F00BC011F00CC012F0000E46
:1053800012BEFF0E136E146E82EC34F012008B927C
:10539000020E116EA00E106E920EE82EFED7102E89
:1053A000FCD7112EFAD700D08B82020E116EA00E00
:1053B000106E920EE82EFED7102EFCD7112EFAD7C3
:1053C00000D0000EB6EC35F0440EB6EC35F0620EAF
:1053D000B6EC35F0300E046E240E056E100E066E1F
:1053E000000E076E010E096EE00E086E5AEC35F0E5
:1053F000440E046E240E056E100E066E000E076E2F
:10540000010E096E100E086E5AEC35F0280E046E6F
:10541000240E056E100E066E000E076E020E096E4B
:105420000D0E086E5AEC35F0340E046E240E056E27
:10543000100E066E000E076E000E096E000E086E4E
:105440005AEC35F0380E046E240E056E100E066E02
:10545000000E076E000E096E290E086E5AEC35F02C
:105460002C0E046E240E056E100E066E000E076ED6
:10547000000E096E2B0E086E5AEC35F03C0E046ED1
:10548000240E056E100E066E000E076E010E096EDC
:105490001E0E086E5AEC35F0480E046E240E056E92
:1054A000100E066E000E076E000E096E000E086EDE
:1054B0005AEC35F04C0E046E240E056E100E066E7E
:1054C000000E076E000E096E0A0E086E5AEC35F0DB
:1054D000400E046E240E056E100E066E000E076E52
:1054E000000E096E0C0E086E5AEC35F0640E046E58
:1054F000240E056E100E066E000E076E000E086E6E
:105500006DEC35F05C0E046E240E056E100E066E0A
:10551000000E076E000E086E6DEC35F0580E046E2E
:10552000240E056E100E066E000E076E010E096E3B
:10553000B60E086E5AEC35F0600E046E240E056E41
:10554000100E066E000E076E000E086E6DEC35F044
:10555000680E046E240E056E100E066E000E076EA9
:10556000000E086E6DEC35F0540E046E240E056EC0
:10557000100E066E000E076E000E086E6DEC35F014
:10558000000E046E000E056E100E066E000E076E05
:10559000000E086E1A0E096E000E0A6E020E0B6ED9
:1055A000EDEC33F0040E046E000E056E100E066E68
:1055B000000E076E070E086E000E096E000E0A6ED2
:1055C000260E0B6EEDEC33F0080E046E000E056E29
:1055D000100E066E000E076E000E086E000E096EAD
:1055E000000E0A6E000E0B6EEDEC33F0500E046EE2
:1055F000240E056E100E066E000E076E020E086E6B
:105600006DEC35F08C0E046E240E056E100E066ED9
:10561000000E076EFC0E086E6DEC35F0900E046EF9
:10562000240E056E100E066E000E076EFF0E086E3D
:105630006DEC35F06C0E046E240E056E100E066EC9
:10564000000E076E050E086E6DEC35F0E80E046E68
:10565000240E056E100E066E000E076EDFEC34F0A1
:1056600004C04FF005C050F0E40E046E240E056E29
:10567000100E066E000E076EDFEC34F04F5004186B
:10568000F3E150500518D8B41200EED719041A10DF
:10569000D8A49BD0FF0E116EFF0E126EFF0E136E7C
:1056A000040E146E82EC34F00C0E116EFF0E126EAE
:1056B000FF0E136EFF0E146E82EC34F04F501B6E13
:1056C00050501C6E1D6A1E6A000E1B24046E800E54
:1056D0001C20056E100E1D20066E000E1E20076E8B
:1056E000000E096E2F0E086E5AEC35F0020E9BEC80
:1056F00035F04F501B6E50501C6E1D6A1E6A000E16
:105700001B24046E800E1C20056E100E1D20066EDC
:10571000000E1E20076E000E096E8E0E086E5AECEB
:1057200035F0020E9BEC35F04F501B6E50501C6E46
:105730001D6A1E6A000E1B24046E800E1C20056E5E
:10574000100E1D20066E000E1E20076E000E096E44
:105750001C0E086E5AEC35F0020E9BEC35F04F50E3
:105760001B6E50501C6E1D6A1E6A000E1B24046EB8
:10577000800E1C20056E100E1D20066E000E1E20D1
:10578000076E020E096E000E086E5AEC35F0020E1E
:105790009BEC35F04F501B6E50501C6E1D6A1E6AFC
:1057A000000E1B24096E800E1C200A6E100E1D2098
:1057B0000B6E000E1E200C6E400E0D6E0F0E0E6E48
:1057C00079EC33F09BEC35F01200000E116E000EF8
:1057D000126EFF0E136E040E146E82EC34F00C0E7B
:1057E000116EFF0E126EFF0E136EFF0E146E82EC22
:1057F00034F04F501B6E50501C6E1D6A1E6A000E16
:105800001B24046E800E1C20056E100E1D20066EDB
:10581000000E1E20076E000E096E2F0E086E5AEC49
:1058200035F0020E9BEC35F04F501B6E50501C6E45
:105830001D6A1E6A000E1B24046E800E1C20056E5D
:10584000100E1D20066E000E1E20076E000E096E43
:105850008E0E086E5AEC35F0020E9BEC35F04F5070
:105860001B6E50501C6E1D6A1E6A000E1B24046EB7
:10587000800E1C20056E100E1D20066E000E1E20D0
:10588000076E000E096E1C0E086E5AEC35F0020E03
:105890009BEC35F04F501B6E50501C6E1D6A1E6AFB
:1058A000000E1B24046E800E1C20056E100E1D20A1
:1058B000066E000E1E20076E020E096E000E086EA8
:1058C0005AEC35F0020E9BEC35F04F501B6E5050E9
:1058D0001C6E1D6A1E6A000E1B24096E800E1C20A1
:1058E0000A6E100E1D200B6E000E1E200C6E2A0E6E
:1058F0000D6E0F0E0E6E79EC33F09BEC35F012004E
:10590000000E186E60AE83D062A61ED016C0D9FFFE
:1059100017C0DAFF020EDF6E64CF03F061CF04F030
:1059200062CF05F0635093EC2DF020EE01F016509D
:10593000D9261750DA2203C0DEFF04C0DEFF05C0FF
:10594000DEFF06C0DEFF19D016C0D9FF17C0DAFF90
:10595000010EDF6E62CF03F06150F4EC32F020EE06
:1059600001F01650D9261750DA2203C0DEFF04C01A
:10597000DEFF05C0DEFF06C0DEFF20EE05F016509C
:10598000D9261750DA2265CFDFFF20EE06F0165039
:10599000D9261750DA2266CFDFFF20EE07F0165027
:1059A000D9261750DA2267CFDFFF20EE08F0165015
:1059B000D9261750DA2268CFDFFF20EE09F0165003
:1059C000D9261750DA2269CFDFFF20EE0AF01650F1
:1059D000D9261750DA226ACFDFFF20EE0BF01650DF
:1059E000D9261750DA226BCFDFFF20EE0CF01650CD
:1059F000D9261750DA226CCFDFFF20EE0DF01650BB
:105A0000D9261750DA226DCFDFFF609E87D00F01B5
:105A100030AF86D032A71ED016C0D9FF17C0DAFF2C
:105A2000020EDF6E34CF03F031CF04F032CF05F039
:105A3000335193EC2DF020EE01F01650D92617507B
:105A4000DA2203C0DEFF04C0DEFF05C0DEFF06C0B1
:105A5000DEFF1AD016C0D9FF17C0DAFF010EDF6EC5
:105A600032CF03F00F013151F4EC32F020EE01F0AF
:105A70001650D9261750DA2203C0DEFF04C0DEFF1D
:105A800005C0DEFF06C0DEFF20EE05F01650D92669
:105A90001750DA2235CFDFFF20EE06F01650D92658
:105AA0001750DA2236CFDFFF20EE07F01650D92646
:105AB0001750DA2237CFDFFF20EE08F01650D92634
:105AC0001750DA2238CFDFFF20EE09F01650D92622
:105AD0001750DA2239CFDFFF20EE0AF01650D92610
:105AE0001750DA223ACFDFFF20EE0BF01650D926FE
:105AF0001750DA223BCFDFFF20EE0CF01650D926EC
:105B00001750DA223CCFDFFF20EE0DF01650D926D9
:105B10001750DA223DCFDFFF0F01309F010E186EC4
:105B20007792185012000B6E000E0C6E000E0D6E68
:105B3000000E0E6E000E0F6E000E126E000E136E33
:105B4000000E146E000E156E0550030B106E053816
:105B5000E842070B116E0450076E086AD8900736AA
:105B60000836D89007360836D8900736083607C06A
:105B700012F008C013F0000E13BEFF0E146E156E67
:105B800011501224126E000E1320136E000E1420FA
:105B9000146E000E1520156E12C007F013C008F029
:105BA00014C009F015C00AF0020ED8900736083666
:105BB00009360A36E82EF9D707C012F008C013F0EC
:105BC00009C014F00AC015F010501224126E000E15
:105BD0001320136E000E1420146E000E1520156E87
:105BE00012C008F013C009F014C00AF0076A07C019
:105BF00012F008C013F009C014F00AC015F00B50E1
:105C00001224126E000E1320136E000E1420146E58
:105C1000000E1520156E12C008F013C009F014C054
:105C20000AF0076A07C012F008C013F009C014F0A8
:105C30000AC015F003501224126E000E1320136ECA
:105C4000000E1420146E000E1520156E12C00CF0FC
:105C500013C00DF014C00EF015C00FF00CC003F00F
:105C60000DC004F00EC005F00FC006F012000B6E60
:105C70000B50D8A406AE1AD003C007F004C008F039
:105C800005C009F006C00AF0071E081E091E0A1EFC
:105C9000072A000E082209220A2207C00DF008C0B8
:105CA0000EF009C00FF00AC010F008D003C00DF0CC
:105CB00004C00EF005C00FF006C010F00350041031
:105CC00005100610D8A409D0000E036E000E046E55
:105CD000000E056E000E066E1200960E0C6E06D0BB
:105CE0000C2AD89010320F320E320D32000E0D14E5
:105CF000076E000E0E14086E000E0F14096EFE0ED5
:105D000010140A6E0750081009100A10D8B40DD0EC
:105D1000E7D70C2A010E0D26000E0E220F221022AC
:105D2000D89010320F320E320D32000E0D14076E65
:105D3000000E0E14086E000E0F14096EFF0E1014E4
:105D40000A6E0750081009100A10D8B407D0E1D71E
:105D50000C06D8900D360E360F3610360FBE03D017
:105D6000020E0C60F5D70CA00F9ED8900C320CC020
:105D700007F0086A096A0A6A07C00AF0096A086A2D
:105D8000076A07500D1208500E1209500F120A50E0
:105D900010120B50D8A406AE01D0108E0DC003F027
:105DA0000EC004F00FC005F010C006F01200FF0E88
:105DB000116EFF0E126EFF0E136E040E146E82EC47
:105DC00034F01ABE06D01A500EE1640E195CD8B039
:105DD0000AD02E0E116EFF0E126EFF0E136EFF0E06
:105DE000146E82EC34F04F501B6E50501C6E1D6AC6
:105DF0001E6A000E1B24046E800E1C20056E100E01
:105E00001D20066E000E1E20076E000E096E050E88
:105E1000086E5AEC35F0020E9BEC35F04F501B6EBD
:105E200050501C6E1D6A1E6A000E1B24046E800EEC
:105E30001C20056E100E1D20066E000E1E20076E23
:105E4000000E096EEC0E086E5AEC35F0020E9BEC5B
:105E500035F04F501B6E50501C6E1D6A1E6A000EAE
:105E60001B24046E800E1C20056E100E1D20066E75
:105E7000000E1E20076E000E096E1E0E086E5AECF4
:105E800035F0020E9BEC35F04F501B6E50501C6EDF
:105E90001D6A1E6A000E1B24046E800E1C20056EF7
:105EA000100E1D20066E000E1E20076E000E096EDD
:105EB000000E086E5AEC35F0020E9BEC35F019C05E
:105EC00011F01AC012F0000E12BEFF0E136E146E07
:105ED00082EC34F01200000E1114196E000E121430
:105EE0001A6E800E13141B6E7F0E14141C6E195044
:105EF0001A101B101C10D8A408D0000E116E000E32
:105F0000126E000E136E000E146E000E1514196E34
:105F1000000E16141A6E800E17141B6E7F0E1814C6
:105F20001C6E19501A101B101C10D8A408D0000E9B
:105F3000156E000E166E000E176E000E186E14AE63
:105F40001DD011C019F012C01AF013C01BF014C0FC
:105F50001CF0191E1A1E1B1E1C1E192A000E1A22C6
:105F60001B221C22000E1924116E000E1A20126E24
:105F7000000E1B20136E800E1C20146E18AE1DD058
:105F800015C019F016C01AF017C01BF018C01CF08D
:105F9000191E1A1E1B1E1C1E192A000E1A221B2255
:105FA0001C22000E1924156E000E1A20166E000E0B
:105FB0001B20176E800E1C20186E000E111A000E8A
:105FC000121A000E131A800E141A000E151A000E63
:105FD000161A000E171A800E181A1550115C16505A
:105FE00012581750135818501458D8B002D0D890DF
:105FF0001200D8801200FF0E116EFF0E126EFF0EFF
:10600000136E040E146E82EC34F02E0E116EFF0E21
:10601000126EFF0E136EFF0E146E82EC34F04F50B2
:106020001B6E50501C6E1D6A1E6A000E1B24046EEF
:10603000800E1C20056E100E1D20066E000E1E2008
:10604000076E000E096E2F0E086E5AEC35F0020E28
:106050009BEC35F04F501B6E50501C6E1D6A1E6A33
:10606000000E1B24046E800E1C20056E100E1D20D9
:10607000066E000E1E20076E000E096E3A0E086EA8
:106080005AEC35F0020E9BEC35F04F501B6E505021
:106090001C6E1D6A1E6A000E1B24046E800E1C20DE
:1060A000056E100E1D20066E000E1E20076E000EDF
:1060B000096E1F0E086E5AEC35F0020E9BEC35F09F
:1060C0004F501B6E50501C6E1D6A1E6A000E1B2422
:1060D000046E800E1C20056E100E1D20066E000E34
:1060E0001E20076E020E096E000E086E5AEC35F087
:1060F000020E9BEC35F019C011F01AC012F0000E20
:1061000012BEFF0E136E146E82EC34F01200FF0EFE
:10611000116EFF0E126EFF0E136E040E146E82ECE3
:1061200034F02E0E116EFF0E126EFF0E136EFF0E68
:10613000146E82EC34F04F501B6E50501C6E1D6A72
:106140001E6A000E1B24046E800E1C20056E100EAD
:106150001D20066E000E1E20076E010E096E980EA1
:10616000086E5AEC35F0020E9BEC35F04F501B6E6A
:1061700050501C6E1D6A1E6A000E1B24046E800E99
:106180001C20056E100E1D20066E000E1E20076ED0
:10619000000E096E820E086E5AEC35F0020E9BEC72
:1061A00035F04F501B6E50501C6E1D6A1E6A000E5B
:1061B0001B24046E800E1C20056E100E1D20066E22
:1061C000000E1E20076E000E096E1F0E086E5AECA0
:1061D00035F0020E9BEC35F04F501B6E50501C6E8C
:1061E0001D6A1E6A000E1B24046E800E1C20056EA4
:1061F000100E1D20066E000E1E20076E080E096E82
:10620000000E086E5AEC35F0020E9BEC35F019C00A
:1062100011F01AC012F0000E12BEFF0E136E146EB3
:1062200082EC34F012002E0E116EFF0E126EFF0E75
:10623000136EFF0E146E82EC34F04F501B6E5050F4
:106240001C6E1D6A1E6A000E1B24046E800E1C202C
:10625000056E100E1D20066E000E1E20076E000E2D
:10626000096E8B0E086E5AEC35F0020E9BEC35F081
:106270004F501B6E50501C6E1D6A1E6A000E1B2470
:10628000046E800E1C20056E100E1D20066E000E82
:106290001E20076E000E096E3A0E086E5AEC35F09D
:1062A000020E9BEC35F04F501B6E50501C6E1D6A59
:1062B0001E6A000E1B24046E800E1C20056E100E3C
:1062C0001D20066E000E1E20076E000E096E1F0EAA
:1062D000086E5AEC35F0020E9BEC35F04F501B6EF9
:1062E00050501C6E1D6A1E6A000E1B24046E800E28
:1062F0001C20056E100E1D20066E000E1E20076E5F
:10630000020E096E000E086E5AEC35F0020E9BEC80
:1063100035F019C011F01AC012F0000E12BEFF0EB7
:10632000136E146E82EC34F012002E0E116EFF0EFE
:10633000126EFF0E136EFF0E146E82EC34F04F508F
:106340001B6E50501C6E1D6A1E6A000E1B24046ECC
:10635000800E1C20056E100E1D20066E000E1E20E5
:10636000076E010E096EC70E086E5AEC35F0020E6C
:106370009BEC35F04F501B6E50501C6E1D6A1E6A10
:10638000000E1B24046E800E1C20056E100E1D20B6
:10639000066E000E1E20076E000E096EEC0E086ED3
:1063A0005AEC35F0020E9BEC35F04F501B6E5050FE
:1063B0001C6E1D6A1E6A000E1B24046E800E1C20BB
:1063C000056E100E1D20066E000E1E20076E000EBC
:1063D000096E1E0E086E5AEC35F0020E9BEC35F07D
:1063E0004F501B6E50501C6E1D6A1E6A000E1B24FF
:1063F000046E800E1C20056E100E1D20066E000E11
:106400001E20076E080E096E000E086E5AEC35F05D
:10641000020E9BEC35F019C011F01AC012F0000EFC
:1064200012BEFF0E136E146E82EC34F01200800E5A
:106430006F6E6E50E00B800AD8A4FBD7000E726E10
:106440000E01FA69FB69F869F969FE69FF69FC697F
:10645000FD69000EE26F000EE36F000EE06F000EAC
:10646000E16F000EE66F000EE76F000EE46F000EA6
:10647000E56F000EEA6F000EEB6F000EE86F000E86
:10648000E96F000EEE6F000EEF6F000EEC6F000E66
:10649000ED6F000EF26F000EF36F000EF06F000E46
:1064A000F16F000EF66F000EF76F000EF46F000E26
:1064B000F56F030E436F980E446F010E456F000E8B
:1064C0006F6E6ECF03F0E00E0316D8B41200F9D74A
:1064D000000E116E000E126EFF0E136E040E146E7F
:1064E00082EC34F0030E116E000E126E000E136E6D
:1064F0001F0E146E82EC34F01E0E116E000E126E22
:10650000000E136E0E0E146E82EC34F0000E116E3F
:10651000D00E126E0E0E136E800E146E82EC34F0DE
:10652000000E116ED00E126E0E0E136EBC0E146E97
:1065300082EC34F0000E116E000E126E000E136E1F
:10654000210E146E82EC34F01FC019F020C01AF036
:106550006FEC26F021C019F022C01AF095EC31F052
:106560001200A2EC34F0CFEC07F04EEC1FF043C069
:106570001FF044C020F035C021F036C022F068EC96
:1065800032F02DC019F02EC01AF069EC1CF03BC09F
:1065900019F03CC01AF087EC30F03FC019F040C051
:1065A0001AF0FBEC2FF041C019F042C01AF013ECC6
:1065B00031F039C019F03AC01AF0BAEC0FF03DC012
:1065C00019F03EC01AF015EC22F033C019F034C0B7
:1065D0001AF046EC2BF037C019F038C01AF08AECEC
:1065E00024F01EEC34F01200096E000E0A6E000E4C
:1065F0000B6E000E0C6E000E0D6E0950076E086AD1
:10660000D89007360836D89007360836D89007361F
:10661000083607C00EF008C00FF0000E0FBEFF0EC8
:10662000106E116E03C007F0050E086ED890073289
:10663000082EFCD707500E240E6E000E0F200F6E92
:10664000000E1020106E000E1120116E0EC00AF008
:106650000FC00BF010C00CF011C00DF00AC003F019
:106660000BC004F00CC005F00DC006F01200000EC7
:10667000086E06AE06D0056C061ED8B0062A010EBE
:10668000086E04AE06D0036C041ED8B0042A010EB6
:10669000081A000E0A6E000E096E05500610D8B4D6
:1066A0001CD0010E076E04D0D89005360636072A96
:1066B00006AEFAD7D89009360A360550035C065064
:1066C0000458D8A005D00550035E0650045A09802E
:1066D000D89006320532072EEDD70850D8B404D032
:1066E000096C0A1ED8B00A2A09C003F00AC004F0D7
:1066F00012008C900B508009D7EC35F00A50D7EC83
:1067000035F00950D7EC35F00DC003F00EC004F0A1
:1067100062EC34F00350116E000E126E14D0125061
:10672000010D0DC00FF00EC010F0F3500F26F45005
:1067300010220FC0F6FF10C0F7FFF86A0800F550EE
:10674000D7EC35F0122A1250115CD8A005D0E7D74B
:10675000000ED7EC35F0122A12C00FF0030E0F1600
:10676000D8A4F6D78C8012501200000E106E0CAE1A
:1067700006D00B6C0C1ED8B00C2A010E106E0EAE9B
:1067800004D00D6C0E1ED8B00E2A0D500E10D8B4C9
:1067900018D0010E0F6E04D0D8900D360E360F2A89
:1067A0000EAEFAD70D500B5C0E500C58D8A004D08A
:1067B0000D500B5E0E500C5AD8900E320D320F2E2B
:1067C000F1D71050D8B404D00B6C0C1ED8B00C2AE2
:1067D0000BC00BF00CC00CF012008C90065080091E
:1067E000D7EC35F00550D7EC35F00450D7EC35F048
:1067F0000850D7EC35F00950D7EC35F00A50D7ECFB
:1068000035F008C00CF009C00DF00AC00EF00BC046
:106810000FF0110E05D0D8900F320E320D320C321F
:10682000E82EF9D70DC00CF00EC00DF00FC00EF021
:106830000F6A0C50D7EC35F08C801200000E116EF0
:10684000000E126E000E136E000E146E82EC34F009
:10685000010E116EFF0E126EFF0E136EFF0E146E00
:1068600082EC34F0E80E046E240E056E100E066EF7
:10687000000E076E4FC008F050C009F05AEC35F01A
:106880001200860EF66E6B0EF76E000EF86E00EEBE
:10689000D2F010EE16F00900F5CFEEFFE550E15012
:1068A000FAE100EEAFF0230EEE6AE806FDE100EE3D
:1068B00047F00D0EEE6AE806FDE154905492000197
:1068C00081EF19F003C007F004C008F002D0034ABA
:1068D000042A03C0F6FF04C0F7FFF86A0800F55069
:1068E0000009D8A4F4D707C005F008C006F0051EBB
:1068F000061E054A062A03500524036E045006208E
:10690000046E12004F50156E5050166E176A186ABA
:10691000000E1524046E800E1620056E100E172032
:10692000066E000E1820076E11C008F012C009F0A4
:1069300013C00AF014C00BF0EDEC33F0040E9BEC26
:1069400035F01200000E116EFF0E126EFF0E136E68
:10695000FF0E146E82EC34F0000E116E000E126EFB
:10696000000E136E020E146E82EC34F0070E116EE0
:10697000000E126E000E136E260E146E82EC34F0B2
:106980001200300ECD6E000EAA6E150ECF6EA00E48
:10699000CE6ECE50CFCF05F0066A05C006F0056A70
