:020000040000FA
:040000001CEF00F001
:100008005482FACF01F0FBCF02F0F2BC9DA005D0DC
:100018009EA003D0CDEC35F005D0F2BAF2A402D000
:1000280021EC35F002C0FBFF01C0FAFF5492110029
:040038002FEF34F082
:100F00000042535044205374617465004765617218
:100F1000205368696674004761696E2F4C6F737364
:100F200000416E7469204C6167005761726E696E92
:100F300067004C61756E636800436C75746368008C
:100F40004E6F726D616C0053706565640052616430
:100F5000696F005761746572004572726F72004C60
:100F6000696D69740049646C65004675656C004183
:100F700075746F0042696173005465737400455461
:100F800043004B50480052504D004F696C00545084
:100F90000025002B002D002E0056006B0000FF0ED8
:100FA000116EFF0E126EFF0E136E040E146E70ECB7
:100FB00034F00C0E116EFF0E126EFF0E136EFF0E4C
:100FC000146E70EC34F04F50196E50501A6E1B6A4C
:100FD0001C6A000E1924046E800E1A20056E100E75
:100FE0001B20066E000E1C20076E010E096EA20E5D
:100FF000086E48EC35F0020E89EC35F04F50196E52
:1010000050501A6E1B6A1C6A000E1924046E800E62
:101010001A20056E100E1B20066E000E1C20076E97
:10102000000E096E950E086E48EC35F0020E89EC44
:1010300035F04F50196E50501A6E1B6A1C6A000E24
:101040001924046E800E1A20056E100E1B20066EE9
:10105000000E1C20076E000E096E1C0E086E48EC78
:1010600035F0020E89EC35F04F50196E50501A6E63
:101070001B6A1C6A000E1924046E800E1A20056E6D
:10108000100E1B20066E000E1C20076E000E096E4F
:10109000000E086E48EC35F0020E89EC35F04F502A
:1010A000196E50501A6E1B6A1C6A000E1924096EC4
:1010B000800E1A200A6E100E1B200B6E000E1C20D4
:1010C0000C6E820E0D6E0F0E0E6E67EC33F089EC17
:1010D00035F00C0E116EFF0E126EFF0E136EFF0E2A
:1010E000146E70EC34F04F50196E50501A6E1B6A2B
:1010F0001C6A000E1924046E800E1A20056E100E54
:101100001B20066E000E1C20076E010E096E9A0E43
:10111000086E48EC35F0020E89EC35F04F50196E30
:1011200050501A6E1B6A1C6A000E1924046E800E41
:101130001A20056E100E1B20066E000E1C20076E76
:10114000000E096EBE0E086E48EC35F0020E89ECFA
:1011500035F04F50196E50501A6E1B6A1C6A000E03
:101160001924046E800E1A20056E100E1B20066EC8
:10117000000E1C20076E000E096E1B0E086E48EC58
:1011800035F0020E89EC35F04F50196E50501A6E42
:101190001B6A1C6A000E1924046E800E1A20056E4C
:1011A000100E1B20066E000E1C20076E060E096E28
:1011B000000E086E48EC35F0020E89EC35F04F5009
:1011C000196E50501A6E1B6A1C6A000E1924096EA3
:1011D000800E1A200A6E100E1B200B6E000E1C20B3
:1011E0000C6E170E0D6E0F0E0E6E67EC33F089EC61
:1011F00035F00C0E116EFF0E126EFF0E136EFF0E09
:10120000146E70EC34F04F50196E50501A6E1B6A09
:101210001C6A000E1924046E800E1A20056E100E32
:101220001B20066E000E1C20076E000E096E2F0E8E
:10123000086E48EC35F0020E89EC35F04F50196E0F
:1012400050501A6E1B6A1C6A000E1924046E800E20
:101250001A20056E100E1B20066E000E1C20076E55
:10126000000E096E2D0E086E48EC35F0020E89EC6A
:1012700035F04F50196E50501A6E1B6A1C6A000EE2
:101280001924046E800E1A20056E100E1B20066EA7
:10129000000E1C20076E000E096E1C0E086E48EC36
:1012A00035F0020E89EC35F04F50196E50501A6E21
:1012B0001B6A1C6A000E1924046E800E1A20056E2B
:1012C000100E1B20066E000E1C20076E060E096E07
:1012D000000E086E48EC35F0020E89EC35F04F50E8
:1012E000196E50501A6E1B6A1C6A000E1924096E82
:1012F000800E1A200A6E100E1B200B6E000E1C2092
:101300000C6E530E0D6E0F0E0E6E67EC33F089EC03
:1013100035F00C0E116EFF0E126EFF0E136EFF0EE7
:10132000146E70EC34F04F50196E50501A6E1B6AE8
:101330001C6A000E1924046E800E1A20056E100E11
:101340001B20066E000E1C20076E000E096E8B0E11
:10135000086E48EC35F0020E89EC35F04F50196EEE
:1013600050501A6E1B6A1C6A000E1924046E800EFF
:101370001A20056E100E1B20066E000E1C20076E34
:10138000000E096E2D0E086E48EC35F0020E89EC49
:1013900035F04F50196E50501A6E1B6A1C6A000EC1
:1013A0001924046E800E1A20056E100E1B20066E86
:1013B000000E1C20076E000E096E1C0E086E48EC15
:1013C00035F0020E89EC35F04F50196E50501A6E00
:1013D0001B6A1C6A000E1924046E800E1A20056E0A
:1013E000100E1B20066E000E1C20076E060E096EE6
:1013F000000E086E48EC35F0020E89EC35F04F50C7
:10140000196E50501A6E1B6A1C6A000E1924096E60
:10141000800E1A200A6E100E1B200B6E000E1C2070
:101420000C6E8A0E0D6E0F0E0E6E67EC33F089ECAB
:1014300035F00C0E116EFF0E126EFF0E136EFF0EC6
:10144000146E70EC34F04F50196E50501A6E1B6AC7
:101450001C6A000E1924046E800E1A20056E100EF0
:101460001B20066E000E1C20076E010E096E810EF9
:10147000086E48EC35F0020E89EC35F04F50196ECD
:1014800050501A6E1B6A1C6A000E1924046E800EDE
:101490001A20056E100E1B20066E000E1C20076E13
:1014A000000E096E2D0E086E48EC35F0020E89EC28
:1014B00035F04F50196E50501A6E1B6A1C6A000EA0
:1014C0001924046E800E1A20056E100E1B20066E65
:1014D000000E1C20076E000E096E1C0E086E48ECF4
:1014E00035F0020E89EC35F04F50196E50501A6EDF
:1014F0001B6A1C6A000E1924046E800E1A20056EE9
:10150000100E1B20066E000E1C20076E060E096EC4
:10151000000E086E48EC35F0020E89EC35F04F50A5
:10152000196E50501A6E1B6A1C6A000E1924096E3F
:10153000800E1A200A6E100E1B200B6E000E1C204F
:101540000C6E860E0D6E0F0E0E6E67EC33F089EC8E
:1015500035F00C0E116EFF0E126EFF0E136EFF0EA5
:10156000146E70EC34F04F50196E50501A6E1B6AA6
:101570001C6A000E1924046E800E1A20056E100ECF
:101580001B20066E000E1C20076E010E096E810ED8
:10159000086E48EC35F0020E89EC35F04F50196EAC
:1015A00050501A6E1B6A1C6A000E1924046E800EBD
:1015B0001A20056E100E1B20066E000E1C20076EF2
:1015C000000E096E780E086E48EC35F0020E89ECBC
:1015D00035F04F50196E50501A6E1B6A1C6A000E7F
:1015E0001924046E800E1A20056E100E1B20066E44
:1015F000000E1C20076E000E096E1C0E086E48ECD3
:1016000035F0020E89EC35F04F50196E50501A6EBD
:101610001B6A1C6A000E1924046E800E1A20056EC7
:10162000100E1B20066E000E1C20076E060E096EA3
:10163000000E086E48EC35F0020E89EC35F04F5084
:10164000196E50501A6E1B6A1C6A000E1924096E1E
:10165000800E1A200A6E100E1B200B6E000E1C202E
:101660000C6E470E0D6E0F0E0E6E67EC33F089ECAC
:1016700035F00C0E116EFF0E126EFF0E136EFF0E84
:10168000146E70EC34F04F50196E50501A6E1B6A85
:101690001C6A000E1924046E800E1A20056E100EAE
:1016A0001B20066E000E1C20076E000E096E410EF8
:1016B000086E48EC35F0020E89EC35F04F50196E8B
:1016C00050501A6E1B6A1C6A000E1924046E800E9C
:1016D0001A20056E100E1B20066E000E1C20076ED1
:1016E000000E096EF50E086E48EC35F0020E89EC1E
:1016F00035F04F50196E50501A6E1B6A1C6A000E5E
:101700001924046E800E1A20056E100E1B20066E22
:10171000000E1C20076E000E096E1C0E086E48ECB1
:1017200035F0020E89EC35F04F50196E50501A6E9C
:101730001B6A1C6A000E1924046E800E1A20056EA6
:10174000100E1B20066E000E1C20076E000E096E88
:10175000000E086E48EC35F0020E89EC35F04F5063
:10176000196E50501A6E1B6A1C6A000E1924096EFD
:10177000800E1A200A6E100E1B200B6E000E1C200D
:101780000C6E740E0D6E0F0E0E6E67EC33F089EC5E
:1017900035F00C0E116EFF0E126EFF0E136EFF0E63
:1017A000146E70EC34F04F50196E50501A6E1B6A64
:1017B0001C6A000E1924046E800E1A20056E100E8D
:1017C0001B20066E000E1C20076E000E096E2D0EEB
:1017D000086E48EC35F0020E89EC35F04F50196E6A
:1017E00050501A6E1B6A1C6A000E1924046E800E7B
:1017F0001A20056E100E1B20066E000E1C20076EB0
:10180000000E096EF50E086E48EC35F0020E89ECFC
:1018100035F04F50196E50501A6E1B6A1C6A000E3C
:101820001924046E800E1A20056E100E1B20066E01
:10183000000E1C20076E000E096E1C0E086E48EC90
:1018400035F0020E89EC35F04F50196E50501A6E7B
:101850001B6A1C6A000E1924046E800E1A20056E85
:10186000100E1B20066E000E1C20076E000E096E67
:10187000000E086E48EC35F0020E89EC35F04F5042
:10188000196E50501A6E1B6A1C6A000E1924096EDC
:10189000800E1A200A6E100E1B200B6E000E1C20EC
:1018A0000C6E910E0D6E0F0E0E6E67EC33F089EC20
:1018B00035F00C0E116EFF0E126EFF0E136EFF0E42
:1018C000146E70EC34F04F50196E50501A6E1B6A43
:1018D0001C6A000E1924046E800E1A20056E100E6C
:1018E0001B20066E000E1C20076E010E096E720E84
:1018F000086E48EC35F0020E89EC35F04F50196E49
:1019000050501A6E1B6A1C6A000E1924046E800E59
:101910001A20056E100E1B20066E000E1C20076E8E
:10192000000E096EF50E086E48EC35F0020E89ECDB
:1019300035F04F50196E50501A6E1B6A1C6A000E1B
:101940001924046E800E1A20056E100E1B20066EE0
:10195000000E1C20076E000E096E1C0E086E48EC6F
:1019600035F0020E89EC35F04F50196E50501A6E5A
:101970001B6A1C6A000E1924046E800E1A20056E64
:10198000100E1B20066E000E1C20076E000E096E46
:10199000000E086E48EC35F0020E89EC35F04F5021
:1019A000196E50501A6E1B6A1C6A000E1924096EBB
:1019B000800E1A200A6E100E1B200B6E000E1C20CB
:1019C0000C6E8E0E0D6E0F0E0E6E67EC33F089EC02
:1019D00035F00C0E116EFF0E126EFF0E136EFF0E21
:1019E000146E70EC34F04F50196E50501A6E1B6A22
:1019F0001C6A000E1924046E800E1A20056E100E4B
:101A00001B20066E000E1C20076E010E096ECB0E09
:101A1000086E48EC35F0020E89EC35F04F50196E27
:101A200050501A6E1B6A1C6A000E1924046E800E38
:101A30001A20056E100E1B20066E000E1C20076E6D
:101A4000000E096EF50E086E48EC35F0020E89ECBA
:101A500035F04F50196E50501A6E1B6A1C6A000EFA
:101A60001924046E800E1A20056E100E1B20066EBF
:101A7000000E1C20076E000E096E1C0E086E48EC4E
:101A800035F0020E89EC35F04F50196E50501A6E39
:101A90001B6A1C6A000E1924046E800E1A20056E43
:101AA000100E1B20066E000E1C20076E000E096E25
:101AB000000E086E48EC35F0020E89EC35F04F5000
:101AC000196E50501A6E1B6A1C6A000E1924096E9A
:101AD000800E1A200A6E100E1B200B6E000E1C20AA
:101AE0000C6E910E0D6E0F0E0E6E67EC33F089ECDE
:101AF00035F00C0E116EFF0E126EFF0E136EFF0E00
:101B0000146E70EC34F04F50196E50501A6E1B6A00
:101B10001C6A000E1924046E800E1A20056E100E29
:101B20001B20066E000E1C20076E000E096E8B0E29
:101B3000086E48EC35F0020E89EC35F04F50196E06
:101B400050501A6E1B6A1C6A000E1924046E800E17
:101B50001A20056E100E1B20066E000E1C20076E4C
:101B6000000E096E7D0E086E48EC35F0020E89EC11
:101B700035F04F50196E50501A6E1B6A1C6A000ED9
:101B80001924046E800E1A20056E100E1B20066E9E
:101B9000000E1C20076E000E096E1B0E086E48EC2E
:101BA00035F0020E89EC35F04F50196E50501A6E18
:101BB0001B6A1C6A000E1924046E800E1A20056E22
:101BC000100E1B20066E000E1C20076E060E096EFE
:101BD000000E086E48EC35F0020E89EC35F04F50DF
:101BE000196E50501A6E1B6A1C6A000E1924096E79
:101BF000800E1A200A6E100E1B200B6E000E1C2089
:101C00000C6E7E0E0D6E0F0E0E6E67EC33F089ECCF
:101C100035F00C0E116EFF0E126EFF0E136EFF0EDE
:101C2000146E70EC34F04F50196E50501A6E1B6ADF
:101C30001C6A000E1924046E800E1A20056E100E08
:101C40001B20066E000E1C20076E010E096E0E0E84
:101C5000086E48EC35F0020E89EC35F04F50196EE5
:101C600050501A6E1B6A1C6A000E1924046E800EF6
:101C70001A20056E100E1B20066E000E1C20076E2B
:101C8000000E096EF50E086E48EC35F0020E89EC78
:101C900035F04F50196E50501A6E1B6A1C6A000EB8
:101CA0001924046E800E1A20056E100E1B20066E7D
:101CB000000E1C20076E000E096E1C0E086E48EC0C
:101CC00035F0020E89EC35F04F50196E50501A6EF7
:101CD0001B6A1C6A000E1924046E800E1A20056E01
:101CE000100E1B20066E000E1C20076E000E096EE3
:101CF000000E086E48EC35F0020E89EC35F04F50BE
:101D0000196E50501A6E1B6A1C6A000E1924096E57
:101D1000800E1A200A6E100E1B200B6E000E1C2067
:101D20000C6E990E0D6E0F0E0E6E67EC33F089EC93
:101D300035F00C0E116EFF0E126EFF0E136EFF0EBD
:101D4000146E70EC34F04F50196E50501A6E1B6ABE
:101D50001C6A000E1924046E800E1A20056E100EE7
:101D60001B20066E000E1C20076E000E096E2F0E43
:101D7000086E48EC35F0020E89EC35F04F50196EC4
:101D800050501A6E1B6A1C6A000E1924046E800ED5
:101D90001A20056E100E1B20066E000E1C20076E0A
:101DA000000E096E7D0E086E48EC35F0020E89ECCF
:101DB00035F04F50196E50501A6E1B6A1C6A000E97
:101DC0001924046E800E1A20056E100E1B20066E5C
:101DD000000E1C20076E000E096E1C0E086E48ECEB
:101DE00035F0020E89EC35F04F50196E50501A6ED6
:101DF0001B6A1C6A000E1924046E800E1A20056EE0
:101E0000100E1B20066E000E1C20076E060E096EBB
:101E1000000E086E48EC35F0020E89EC35F04F509C
:101E2000196E50501A6E1B6A1C6A000E1924096E36
:101E3000800E1A200A6E100E1B200B6E000E1C2046
:101E40000C6E6A0E0D6E0F0E0E6E67EC33F089ECA1
:101E500035F00C0E116EFF0E126EFF0E136EFF0E9C
:101E6000146E70EC34F04F50196E50501A6E1B6A9D
:101E70001C6A000E1924046E800E1A20056E100EC6
:101E80001B20066E000E1C20076E010E096E0C0E44
:101E9000086E48EC35F0020E89EC35F04F50196EA3
:101EA00050501A6E1B6A1C6A000E1924046E800EB4
:101EB0001A20056E100E1B20066E000E1C20076EE9
:101EC000000E096EBE0E086E48EC35F0020E89EC6D
:101ED00035F04F50196E50501A6E1B6A1C6A000E76
:101EE0001924046E800E1A20056E100E1B20066E3B
:101EF000000E1C20076E000E096E1B0E086E48ECCB
:101F000035F0020E89EC35F04F50196E50501A6EB4
:101F10001B6A1C6A000E1924046E800E1A20056EBE
:101F2000100E1B20066E000E1C20076E060E096E9A
:101F3000000E086E48EC35F0020E89EC35F04F507B
:101F4000196E50501A6E1B6A1C6A000E1924096E15
:101F5000800E1A200A6E100E1B200B6E000E1C2025
:101F60000C6E010E0D6E0F0E0E6E67EC33F089ECE9
:101F700035F0120066D30C0E116EFF0E126EFF0EBE
:101F8000136EFF0E146E70EC34F04F501B6E5050F9
:101F90001C6E1D6A1E6A000E1B24046E800E1C201F
:101FA000056E100E1D20066E000E1E20076E000E20
:101FB000096E8B0E086E48EC35F0020E89EC35F098
:101FC0004F501B6E50501C6E1D6A1E6A000E1B2463
:101FD000046E800E1C20056E100E1D20066E000E75
:101FE0001E20076E000E096E920E086E48EC35F04A
:101FF000020E89EC35F04F501B6E50501C6E1D6A5E
:102000001E6A000E1B24046E800E1C20056E100E2E
:102010001D20066E000E1E20076E000E096E1B0EA0
:10202000086E48EC35F0020E89EC35F04F501B6E0F
:1020300050501C6E1D6A1E6A000E1B24046E800E1A
:102040001C20056E100E1D20066E000E1E20076E51
:10205000020E096E000E086E48EC35F0020E89EC97
:1020600035F04F501B6E50501C6E1D6A1E6A000EDC
:102070001B24096E800E1C200A6E100E1D200B6E94
:10208000000E1E200C6E650E0D6E0F0E0E6E67ECB0
:1020900033F089EC35F012000C0E116EFF0E126E4B
:1020A000FF0E136EFF0E146E70EC34F04F501B6E6B
:1020B00050501C6E1D6A1E6A000E1B24046E800E9A
:1020C0001C20056E100E1D20066E000E1E20076ED1
:1020D000000E096E8B0E086E48EC35F0020E89EC8E
:1020E00035F04F501B6E50501C6E1D6A1E6A000E5C
:1020F0001B24046E800E1C20056E100E1D20066E23
:10210000000E1E20076E000E096E920E086E48EC3F
:1021100035F0020E89EC35F04F501B6E50501C6E9E
:102120001D6A1E6A000E1B24046E800E1C20056EA4
:10213000100E1D20066E000E1E20076E000E096E8A
:102140001B0E086E48EC35F0020E89EC35F04F504E
:102150001B6E50501C6E1D6A1E6A000E1B24046EFE
:10216000800E1C20056E100E1D20066E000E1E2017
:10217000076E020E096E000E086E48EC35F0020E76
:1021800089EC35F04F501B6E50501C6E1D6A1E6A54
:10219000000E1B24096E800E1C200A6E100E1D20DE
:1021A0000B6E000E1E200C6E210E0D6E0F0E0E6EAD
:1021B00067EC33F089EC35F012000C0E116EFF0E57
:1021C000126EFF0E136EFF0E146E70EC34F04F5053
:1021D0001B6E50501C6E1D6A1E6A000E1B24046E7E
:1021E000800E1C20056E100E1D20066E000E1E2097
:1021F000076E000E096E8B0E086E48EC35F0020E6D
:1022000089EC35F04F501B6E50501C6E1D6A1E6AD3
:10221000000E1B24046E800E1C20056E100E1D2067
:10222000066E000E1E20076E000E096E920E086EDE
:1022300048EC35F0020E89EC35F04F501B6E5050D3
:102240001C6E1D6A1E6A000E1B24046E800E1C206C
:10225000056E100E1D20066E000E1E20076E000E6D
:10226000096E1B0E086E48EC35F0020E89EC35F055
:102270004F501B6E50501C6E1D6A1E6A000E1B24B0
:10228000046E800E1C20056E100E1D20066E000EC2
:102290001E20076E020E096E000E086E48EC35F027
:1022A000020E89EC35F04F501B6E50501C6E1D6AAB
:1022B0001E6A000E1B24096E800E1C200A6E100E72
:1022C0001D200B6E000E1E200C6E5F0E0D6E0F0E8D
:1022D0000E6E67EC33F089EC35F012000C0E116EC7
:1022E000FF0E126EFF0E136EFF0E146E70EC34F0C4
:1022F0004F501B6E50501C6E1D6A1E6A000E1B2430
:10230000046E800E1C20056E100E1D20066E000E41
:102310001E20076E000E096E8B0E086E48EC35F01D
:10232000020E89EC35F04F501B6E50501C6E1D6A2A
:102330001E6A000E1B24046E800E1C20056E100EFB
:102340001D20066E000E1E20076E000E096E920EF6
:10235000086E48EC35F0020E89EC35F04F501B6EDC
:1023600050501C6E1D6A1E6A000E1B24046E800EE7
:102370001C20056E100E1D20066E000E1E20076E1E
:10238000000E096E1B0E086E48EC35F0020E89EC4B
:1023900035F04F501B6E50501C6E1D6A1E6A000EA9
:1023A0001B24046E800E1C20056E100E1D20066E70
:1023B000000E1E20076E020E096E000E086E48EC1D
:1023C00035F0020E89EC35F04F501B6E50501C6EEC
:1023D0001D6A1E6A000E1B24096E800E1C200A6EE8
:1023E000100E1D200B6E000E1E200C6E0C0E0D6EBE
:1023F0000F0E0E6E67EC33F089EC35F012000C0E08
:10240000116EFF0E126EFF0E136EFF0E146E70EC47
:1024100034F04F501B6E50501C6E1D6A1E6A000E29
:102420001B24046E800E1C20056E100E1D20066EEF
:10243000000E1E20076E000E096E8B0E086E48EC13
:1024400035F0020E89EC35F04F501B6E50501C6E6B
:102450001D6A1E6A000E1B24046E800E1C20056E71
:10246000100E1D20066E000E1E20076E000E096E57
:10247000920E086E48EC35F0020E89EC35F04F50A4
:102480001B6E50501C6E1D6A1E6A000E1B24046ECB
:10249000800E1C20056E100E1D20066E000E1E20E4
:1024A000076E000E096E1B0E086E48EC35F0020E2A
:1024B00089EC35F04F501B6E50501C6E1D6A1E6A21
:1024C000000E1B24046E800E1C20056E100E1D20B5
:1024D000066E000E1E20076E020E096E000E086EBC
:1024E00048EC35F0020E89EC35F04F501B6E505021
:1024F0001C6E1D6A1E6A000E1B24096E800E1C20B5
:102500000A6E100E1D200B6E000E1E200C6E790E32
:102510000D6E0F0E0E6E67EC33F089EC35F0120085
:102520000C0E116EFF0E126EFF0E136EFF0E146E68
:1025300070EC34F04F501B6E50501C6E1D6A1E6ABA
:10254000000E1B24046E800E1C20056E100E1D2034
:10255000066E000E1E20076E000E096E8B0E086EB2
:1025600048EC35F0020E89EC35F04F501B6E5050A0
:102570001C6E1D6A1E6A000E1B24046E800E1C2039
:10258000056E100E1D20066E000E1E20076E000E3A
:10259000096E920E086E48EC35F0020E89EC35F0AB
:1025A0004F501B6E50501C6E1D6A1E6A000E1B247D
:1025B000046E800E1C20056E100E1D20066E000E8F
:1025C0001E20076E000E096E1B0E086E48EC35F0DB
:1025D000020E89EC35F04F501B6E50501C6E1D6A78
:1025E0001E6A000E1B24046E800E1C20056E100E49
:1025F0001D20066E000E1E20076E020E096E000ED4
:10260000086E48EC35F0020E89EC35F04F501B6E29
:1026100050501C6E1D6A1E6A000E1B24096E800E2F
:102620001C200A6E100E1D200B6E000E1E200C6E5C
:10263000400E0D6E0F0E0E6E67EC33F089EC35F028
:10264000120019C01BF01AC01CF01C50000AD8A4BC
:1026500067D71B50010AD8B48ED4030AD8B41CD54E
:10266000010AD8B4AAD5070AD8B438D6010AD8B412
:10267000C6D656D7206E090E116E000E126E000ED1
:10268000136E1F0E146E70EC34F02050D8B40BD0C3
:10269000000E116EFF0E126E000E136E040E146EFD
:1026A00070EC34F00AD03C0E116E3C0E126E3C0EF3
:1026B000136E040E146E70EC34F0000E116E700E7A
:1026C000126E4D0E136E810E146E70EC34F0000E0F
:1026D000116E600E126E4E0E136E8B0E146E70EC39
:1026E00034F01950D8B40BD0000E116EFF0E126EDC
:1026F000000E136E040E146E70EC34F00AD03C0E13
:10270000116E3C0E126E3C0E136E040E146E70ECC5
:1027100034F0000E116E700E126E8D0E136E8C0E54
:10272000146E70EC34F0000E116E600E126E8E0E90
:10273000136E960E146E70EC34F01A50D8B40BD0A1
:10274000000E116EFF0E126E000E136E040E146E4C
:1027500070EC34F00AD03C0E116E3C0E126E3C0E42
:10276000136E040E146E70EC34F0000E116EE00E59
:10277000126E4B0E136E810E146E70EC34F0000E60
:10278000116ED00E126E4C0E136E8B0E146E70EC1A
:1027900034F01B50D8B40BD0000E116EFF0E126E29
:1027A000000E136E040E146E70EC34F00AD03C0E62
:1027B000116E3C0E126E3C0E136E040E146E70EC15
:1027C00034F0000E116EE00E126E8B0E136E8C0E36
:1027D000146E70EC34F0000E116ED00E126E8C0E72
:1027E000136E960E146E70EC34F02050D8B40BD0EB
:1027F000000E116E000E126E000E136E040E146E9B
:1028000070EC34F00AD0FF0E116EFF0E126EFF0E48
:10281000136E040E146E70EC34F00C0E116EFF0E7D
:10282000126EFF0E136EFF0E146E70EC34F04F50EC
:102830001C6E50501D6E1E6A1F6A000E1C24046E12
:10284000800E1D20056E100E1E20066E000E1F202D
:10285000076E000E096E320E086E48EC35F0020E5F
:1028600089EC35F04F501C6E50501D6E1E6A1F6A69
:10287000000E1C24046E800E1D20056E100E1E20FE
:10288000066E000E1F20076E000E096EDE0E086E2B
:1028900048EC35F0020E89EC35F04F501C6E50506C
:1028A0001D6E1E6A1F6A000E1C24046E800E1D2001
:1028B000056E100E1E20066E000E1F20076E000E05
:1028C000096E1C0E086E48EC35F0020E89EC35F0EE
:1028D0004F501C6E50501D6E1E6A1F6A000E1C2445
:1028E000046E800E1D20056E100E1E20066E000E5A
:1028F0001F20076E060E096E000E086E48EC35F0BC
:10290000020E89EC35F04F501C6E50501D6E1E6A41
:102910001F6A000E1C24096E800E1D200A6E100E08
:102920001E200B6E000E1F200C6E320E0D6E0F0E51
:102930000E6E67EC33F089EC35F01950D8B40BD03B
:10294000000E116E000E126E000E136E040E146E49
:1029500070EC34F00AD0FF0E116EFF0E126EFF0EF7
:10296000136E040E146E70EC34F00C0E116EFF0E2C
:10297000126EFF0E136EFF0E146E70EC34F04F509B
:102980001C6E50501D6E1E6A1F6A000E1C24046EC1
:10299000800E1D20056E100E1E20066E000E1F20DC
:1029A000076E000E096E8C0E086E48EC35F0020EB4
:1029B00089EC35F04F501C6E50501D6E1E6A1F6A18
:1029C000000E1C24046E800E1D20056E100E1E20AD
:1029D000066E000E1F20076E000E096EDE0E086EDA
:1029E00048EC35F0020E89EC35F04F501C6E50501B
:1029F0001D6E1E6A1F6A000E1C24046E800E1D20B0
:102A0000056E100E1E20066E000E1F20076E000EB3
:102A1000096E1C0E086E48EC35F0020E89EC35F09C
:102A20004F501C6E50501D6E1E6A1F6A000E1C24F3
:102A3000046E800E1D20056E100E1E20066E000E08
:102A40001F20076E060E096E000E086E48EC35F06A
:102A5000020E89EC35F04F501C6E50501D6E1E6AF0
:102A60001F6A000E1C24096E800E1D200A6E100EB7
:102A70001E200B6E000E1F200C6E6F0E0D6E0F0EC3
:102A80000E6E67EC33F089EC35F01A50D8B40BD0E9
:102A9000000E116E000E126E000E136E040E146EF8
:102AA00070EC34F00AD0FF0E116EFF0E126EFF0EA6
:102AB000136E040E146E70EC34F00C0E116EFF0EDB
:102AC000126EFF0E136EFF0E146E70EC34F04F504A
:102AD0001C6E50501D6E1E6A1F6A000E1C24046E70
:102AE000800E1D20056E100E1E20066E000E1F208B
:102AF000076E000E096E320E086E48EC35F0020EBD
:102B000089EC35F04F501C6E50501D6E1E6A1F6AC6
:102B1000000E1C24046E800E1D20056E100E1E205B
:102B2000066E000E1F20076E000E096EC50E086EA1
:102B300048EC35F0020E89EC35F04F501C6E5050C9
:102B40001D6E1E6A1F6A000E1C24046E800E1D205E
:102B5000056E100E1E20066E000E1F20076E000E62
:102B6000096E1C0E086E48EC35F0020E89EC35F04B
:102B70004F501C6E50501D6E1E6A1F6A000E1C24A2
:102B8000046E800E1D20056E100E1E20066E000EB7
:102B90001F20076E060E096E000E086E48EC35F019
:102BA000020E89EC35F04F501C6E50501D6E1E6A9F
:102BB0001F6A000E1C24096E800E1D200A6E100E66
:102BC0001E200B6E000E1F200C6E390E0D6E0F0EA8
:102BD0000E6E67EC33F089EC35F01B50D8B40BD097
:102BE000000E116E000E126E000E136E040E146EA7
:102BF00070EC34F00AD0FF0E116EFF0E126EFF0E55
:102C0000136E040E146E70EC34F00C0E116EFF0E89
:102C1000126EFF0E136EFF0E146E70EC34F04F50F8
:102C20001C6E50501D6E1E6A1F6A000E1C24046E1E
:102C3000800E1D20056E100E1E20066E000E1F2039
:102C4000076E000E096E8C0E086E48EC35F0020E11
:102C500089EC35F04F501C6E50501D6E1E6A1F6A75
:102C6000000E1C24046E800E1D20056E100E1E200A
:102C7000066E000E1F20076E000E096EC50E086E50
:102C800048EC35F0020E89EC35F04F501C6E505078
:102C90001D6E1E6A1F6A000E1C24046E800E1D200D
:102CA000056E100E1E20066E000E1F20076E000E11
:102CB000096E1C0E086E48EC35F0020E89EC35F0FA
:102CC0004F501C6E50501D6E1E6A1F6A000E1C2451
:102CD000046E800E1D20056E100E1E20066E000E66
:102CE0001F20076E060E096E000E086E48EC35F0C8
:102CF000020E89EC35F04F501C6E50501D6E1E6A4E
:102D00001F6A000E1C24096E800E1D200A6E100E14
:102D10001E200B6E000E1F200C6E4D0E0D6E0F0E42
:102D20000E6E67EC33F089EC35F012001DC029F00F
:102D30001EC02AF0291E2A1E294A2A2A2150292487
:102D40002F6E22502A20306E1FC029F020C02AF09A
:102D5000291E2A1E294A2A2A235029242D6E24504E
:102D60002A202E6E30BEA0D0305003E12F04D8A010
:102D70009BD0000E116E000E126EFF0E136E040E2D
:102D8000146E70EC34F00C0E116EFF0E126EFF0E0E
:102D9000136EFF0E146E70EC34F04F50296E5050CD
:102DA0002A6E2B6A2C6A000E2924046E800E2A20BB
:102DB000056E100E2B20066E000E2C20076E010EE5
:102DC000096E6A0E086E48EC35F0020E89EC35F09B
:102DD0004F50296E50502A6E2B6A2C6A000E2924FF
:102DE000046E800E2A20056E100E2B20066E000E3B
:102DF0002C20076E000E096EC30E086E48EC35F0ED
:102E0000020E89EC35F04F50296E50502A6E2B6A15
:102E10002C6A000E2924046E800E2A20056E100EE6
:102E20002B20066E000E2C20076E000E096E1E0E63
:102E3000086E48EC35F0020E89EC35F04F50296EE3
:102E400050502A6E2B6A2C6A000E2924046E800EC4
:102E50002A20056E100E2B20066E000E2C20076E09
:102E6000000E096E000E086E48EC35F0020E89EC7B
:102E700035F04F50296E50502A6E2B6A2C6A000E86
:102E80002924096E800E2A200A6E100E2B200B6E4C
:102E9000000E2C200C6E930E0D6E0F0E0E6E67EC56
:102EA00033F089EC35F09AD0000E116EFF0E126EE1
:102EB000000E136E040E146E70EC34F00C0E116ED6
:102EC000FF0E126EFF0E136EFF0E146E70EC34F0D8
:102ED0004F50296E50502A6E2B6A2C6A000E2924FE
:102EE000046E800E2A20056E100E2B20066E000E3A
:102EF0002C20076E010E096E6A0E086E48EC35F044
:102F0000020E89EC35F04F50296E50502A6E2B6A14
:102F10002C6A000E2924046E800E2A20056E100EE5
:102F20002B20066E000E2C20076E000E096EC30EBD
:102F3000086E48EC35F0020E89EC35F04F50296EE2
:102F400050502A6E2B6A2C6A000E2924046E800EC3
:102F50002A20056E100E2B20066E000E2C20076E08
:102F6000000E096E1E0E086E48EC35F0020E89EC5C
:102F700035F04F50296E50502A6E2B6A2C6A000E85
:102F80002924046E800E2A20056E100E2B20066E5A
:102F9000000E2C20076E000E096E000E086E48EC25
:102FA00035F0020E89EC35F04F50296E50502A6EE4
:102FB0002B6A2C6A000E2924096E800E2A200A6EC4
:102FC000100E2B200B6E000E2C200C6E950E0D6E2D
:102FD0000F0E0E6E67EC33F089EC35F00C0E116EAF
:102FE000FF0E126EFF0E136EFF0E146E70EC34F0B7
:102FF0004F50296E50502A6E2B6A2C6A000E2924DD
:10300000046E800E2A20056E100E2B20066E000E18
:103010002C20076E010E096E9F0E086E48EC35F0ED
:10302000020E89EC35F04F50296E50502A6E2B6AF3
:103030002C6A000E2924046E800E2A20056E100EC4
:103040002B20066E000E2C20076E000E096EC30E9C
:10305000086E48EC35F0020E89EC35F04F50296EC1
:1030600050502A6E2B6A2C6A000E2924046E800EA2
:103070002A20056E100E2B20066E000E2C20076EE7
:10308000000E096E1E0E086E48EC35F0020E89EC3B
:1030900035F04F50296E50502A6E2B6A2C6A000E64
:1030A0002924046E800E2A20056E100E2B20066E39
:1030B000000E2C20076E000E096E000E086E48EC04
:1030C00035F0020E89EC35F04F50296E50502A6EC3
:1030D0002B6A2C6A000E2924096E800E2A200A6EA3
:1030E000100E2B200B6E000E2C200C6E970E0D6E0A
:1030F0000F0E0E6E67EC33F089EC35F02E0E116E6C
:10310000FF0E126EFF0E136EFF0E146E70EC34F095
:103110004F50296E50502A6E2B6A2C6A000E2924BB
:10312000046E800E2A20056E100E2B20066E000EF7
:103130002C20076E010E096E9A0E086E48EC35F0D1
:10314000020E89EC35F04F50296E50502A6E2B6AD2
:103150002C6A000E2924046E800E2A20056E100EA3
:103160002B20066E000E2C20076E000E096EC30E7B
:10317000086E48EC35F0020E89EC35F04F50296EA0
:1031800050502A6E2B6A2C6A000E2924046E800E81
:103190002A20056E100E2B20066E000E2C20076EC6
:1031A000000E096E1E0E086E48EC35F0020E89EC1A
:1031B00035F04F50296E50502A6E2B6A2C6A000E43
:1031C0002924046E800E2A20056E100E2B20066E18
:1031D000000E2C20076E080E096E000E086E48ECDB
:1031E00035F0020E89EC35F02FC011F030C012F02E
:1031F000000E12BEFF0E136E146E70EC34F02E0E25
:10320000116EFF0E126EFF0E136EFF0E146E70EC39
:1032100034F04F50296E50502A6E2B6A2C6A000EE3
:103220002924046E800E2A20056E100E2B20066EB7
:10323000000E2C20076E010E096EA90E086E48ECD8
:1032400035F0020E89EC35F04F50296E50502A6E41
:103250002B6A2C6A000E2924046E800E2A20056E2B
:10326000100E2B20066E000E2C20076E000E096E2D
:10327000C30E086E48EC35F0020E89EC35F04F5065
:10328000296E50502A6E2B6A2C6A000E2924046E77
:10329000800E2A20056E100E2B20066E000E2C20AC
:1032A000076E000E096E1E0E086E48EC35F0020E19
:1032B00089EC35F04F50296E50502A6E2B6A2C6ADB
:1032C000000E2924046E800E2A20056E100E2B207D
:1032D000066E000E2C20076E000E096E000E086EA2
:1032E00048EC35F0020E89EC35F02DC011F02EC0FF
:1032F00012F0000E12BEFF0E136E146E70EC34F05E
:10330000120019C003F01AC004F0030E066EE80E96
:10331000056E25EC33F003C023F004C024F0000E4A
:10332000066E640E056E19C003F01AC004F025EC99
:1033300033F003C00BF004C00CF0000E0E6E0A0E4A
:103340000D6EA3EC33F00BC025F00CC026F0020E7E
:10335000286E910E276E19C003F01AC004F027C022
:1033600005F028C006F025EC33F003C029F004C0B6
:103370002AF02E0E116EFF0E126EFF0E136EFF0E50
:10338000146E70EC34F04F501B6E50501C6E1D6A62
:103390001E6A000E1B24046E800E1C20056E100E8B
:1033A0001D20066E000E1E20076E010E096E7C0E9B
:1033B000086E48EC35F0020E89EC35F04F501B6E6C
:1033C00050501C6E1D6A1E6A000E1B24046E800E77
:1033D0001C20056E100E1D20066E000E1E20076EAE
:1033E000000E096E370E086E48EC35F0020E89ECBF
:1033F00035F04F501B6E50501C6E1D6A1E6A000E39
:103400001B24046E800E1C20056E100E1D20066EFF
:10341000000E1E20076E000E096E1F0E086E48EC8F
:1034200035F0020E89EC35F04F501B6E50501C6E7B
:103430001D6A1E6A000E1B24046E800E1C20056E81
:10344000100E1D20066E000E1E20076E080E096E5F
:10345000000E086E48EC35F0020E89EC35F023C002
:1034600011F024C012F0000E12BEFF0E136E146E87
:1034700070EC34F02E0E116EFF0E126EFF0E136EF6
:10348000FF0E146E70EC34F04F501B6E50501C6EDB
:103490001D6A1E6A000E1B24046E800E1C20056E21
:1034A000100E1D20066E000E1E20076E010E096E06
:1034B0008D0E086E48EC35F0020E89EC35F04F5059
:1034C0001B6E50501C6E1D6A1E6A000E1B24046E7B
:1034D000800E1C20056E100E1D20066E000E1E2094
:1034E000076E000E096E370E086E48EC35F0020EBE
:1034F00089EC35F04F501B6E50501C6E1D6A1E6AD1
:10350000000E1B24046E800E1C20056E100E1D2064
:10351000066E000E1E20076E000E096E1F0E086E4E
:1035200048EC35F0020E89EC35F04F501B6E5050D0
:103530001C6E1D6A1E6A000E1B24046E800E1C2069
:10354000056E100E1D20066E000E1E20076E000E6A
:10355000096E000E086E48EC35F0020E89EC35F06D
:1035600025C011F026C012F0000E12BEFF0E136E21
:10357000146E70EC34F00C0E116EFF0E126EFF0E16
:10358000136EFF0E146E70EC34F04F501B6E5050E3
:103590001C6E1D6A1E6A000E1B24046E800E1C2009
:1035A000056E100E1D20066E000E1E20076E010E09
:1035B000096E7C0E086E48EC35F0020E89EC35F091
:1035C0004F501B6E50501C6E1D6A1E6A000E1B244D
:1035D000046E800E1C20056E100E1D20066E000E5F
:1035E0001E20076E000E096E370E086E48EC35F08F
:1035F000020E89EC35F04F501B6E50501C6E1D6A48
:103600001E6A000E1B24046E800E1C20056E100E18
:103610001D20066E000E1E20076E000E096E1F0E86
:10362000086E48EC35F0020E89EC35F04F501B6EF9
:1036300050501C6E1D6A1E6A000E1B24046E800E04
:103640001C20056E100E1D20066E000E1E20076E3B
:10365000000E096E000E086E48EC35F0020E89EC83
:1036600035F04F501B6E50501C6E1D6A1E6A000EC6
:103670001B24096E800E1C200A6E100E1D200B6E7E
:10368000000E1E200C6E970E0D6E0F0E0E6E67EC68
:1036900033F089EC35F00C0E116EFF0E126EFF0E3A
:1036A000136EFF0E146E70EC34F04F501B6E5050C2
:1036B0001C6E1D6A1E6A000E1B24046E800E1C20E8
:1036C000056E100E1D20066E000E1E20076E010EE8
:1036D000096EA90E086E48EC35F0020E89EC35F043
:1036E0004F501B6E50501C6E1D6A1E6A000E1B242C
:1036F000046E800E1C20056E100E1D20066E000E3E
:103700001E20076E000E096E4A0E086E48EC35F05A
:10371000020E89EC35F04F501B6E50501C6E1D6A26
:103720001E6A000E1B24046E800E1C20056E100EF7
:103730001D20066E000E1E20076E000E096E1C0E68
:10374000086E48EC35F0020E89EC35F04F501B6ED8
:1037500050501C6E1D6A1E6A000E1B24046E800EE3
:103760001C20056E100E1D20066E000E1E20076E1A
:10377000000E096E000E086E48EC35F0020E89EC62
:1037800035F04F501B6E50501C6E1D6A1E6A000EA5
:103790001B24096E800E1C200A6E100E1D200B6E5D
:1037A000000E1E200C6E9B0E0D6E0F0E0E6E67EC43
:1037B00033F089EC35F0020E116E000E126E000E21
:1037C000136E1F0E146E70EC34F0960E116E000E18
:1037D000126E000E136E0D0E146E70EC34F0000EAF
:1037E000116EFF0E126E000E136E040E146E70EC4E
:1037F00034F0000E2C6E000E2B6E5DD02CBE10D05F
:103800002C5004E10A0E2B5CD8A00AD0000E116ED9
:10381000FF0E126EFF0E136E040E146E70EC34F079
:103820002CBE10D02C5004E10F0E2B5CD8A00AD077
:10383000000E116E000E126EFF0E136E040E146E4B
:1038400070EC34F02BC003F02CC004F0000E066EB8
:10385000190E056E35EC35F00F0E03241B6E000EAD
:1038600004201C6E1D6A1CBE1D061D501E6EFF0E20
:103870001B141F6E010E1C14206E000E1D14216EF1
:10388000000E1E14226E150ED8901F3620362136DB
:103890002236E82EF9D7000E1F10116E400E2010B0
:1038A000126E010E2110136E800E2210146E70EC39
:1038B00034F02B4A2C2A29502B5C2C50800A1B6E8A
:1038C0002A50800A1B58D8B0120098D720EED1F0A9
:1038D00010EE98F0150EDBCFE3FFE806FCE2000ED9
:1038E0000001746F000E816F20EEAEF010EE60F0FC
:1038F000130EDBCFE3FFE806FCE2000E856F000E3F
:10390000846F000E776F000E766F000E876F000ECB
:10391000866F000E976F000E966F000E896F000E77
:10392000886F000E8B6F000E8A6F000E8D6F000E79
:103930008C6F000E8F6F000E8E6F000E916F000E59
:10394000906F000E796F000E786F000E936F000E6F
:10395000926F000E956F000E946F000E806F000E38
:103960007F6F000E836F000E826F000E7B6F000E64
:103970007A6F97EC35F06BEC35F07080708A709E42
:10398000708C608A609C609476907692779A779C2F
:10399000C80E0E01E86F400EE96FFE0EF86F1F0EA5
:1039A000F96FFE0EFC6F110EFD6FC79EC78CC68AA5
:1039B000C688C650F00B0209C66EBDEC29F097EC24
:1039C00035F0C650F00B0109C66E84C02DF085C0DD
:1039D0002EF076C02FF077C030F092C031F093C057
:1039E00032F086C033F087C034F096C035F097C00F
:1039F00036F082C037F083C038F094C039F095C0FB
:103A00003AF088C03BF089C03CF08AC03DF08BC0E2
:103A10003EF08CC03FF08DC040F08EC041F08FC0B2
:103A200042F090C043F091C044F09FEC32F0D60ECB
:103A3000036E6B0E046EE1EC35F0EFEC35F0F28EB8
:103A4000F28CC30E166E000E176E76EC2CF0000989
:103A5000D8B458D1400E0001C41944E1060EC5196E
:103A6000C611C711D8A43ED0CA51C9C045F0466A94
:103A700045C046F0456A4510846F4650856FCC516D
:103A8000CBC045F0466A45C046F0456A4510036E16
:103A90004650046E000E066E0A0E056E25EC33F0DD
:103AA00003C076F004C077F00001CE51CDC045F0E0
:103AB000466A45C046F0456A4510036E4650046E9E
:103AC000000E066E0A0E056E25EC33F003C092F070
:103AD00004C093F0CFC096F00001976BD0C088F07F
:103AE000896B10D1410EC41923E1060EC519C61108
:103AF000C711D8A41DD0CA51C9C045F0466A45C0F7
:103B000046F0456A4510036E4650046E000E066E80
:103B10000A0E056E25EC33F003C07AF004C07BF08A
:103B2000CFC08AF000018B6BD0C078F0796BEAD0FF
:103B3000420EC41910E1060EC519C611C711D8A44A
:103B40000AD0C9C08CF08D6BCAC08EF08F6BCBC011
:103B500090F0916BD7D0430EC4195BE1060EC519E6
:103B6000C611C711D8A455D0C945010BD8B402D08D
:103B7000010E01D0000E816FC9C045F0060E466EE1
:103B8000D8904532462EFCD745A002D0010E01D078
:103B9000000E756FC9C045F0D8904532D8904532B7
:103BA000D8904532070E45164550946F956BC9C0A5
:103BB00045F0D8904532D8904532010E4516455013
:103BC000866F876B456ACAAF01D0452A45A002D0EF
:103BD000010E01D0000E7C6FCAC045F0060E466E85
:103BE000D8904532462EFCD745A002D0010E01D018
:103BF000000E7D6FCAC045F0050E466ED890453266
:103C0000462EFCD745A002D0010E01D0000E7E6FDB
:103C100079D0440EC41976E1060EC519C611C71134
:103C2000D8A470D0CA51C9C045F0466A45C046F014
:103C3000456A4510A06F4650A16FCC51CBC045F0EE
:103C4000466A45C046F0456A4510986F4650996FE0
:103C5000CE51CDC045F0466A45C046F0456A451094
:103C60009A6F46509B6FA0C003F0A1C004F0000EF5
:103C7000066E640E056E25EC33F003C0A2F004C09E
:103C8000A3F0A0C00BF0A1C00CF0000E0E6E640EED
:103C90000D6EA3EC33F00BC0A4F00CC0A5F098C0DF
:103CA00003F099C004F0000E066E640E056E25EC5C
:103CB00033F003C09CF004C09DF098C00BF099C095
:103CC0000CF0000E0E6E640E0D6EA3EC33F00BC004
:103CD0009EF00CC09FF00001A651985D9951800A9A
:103CE000456EA751800A4558D8B00CD098C0A6F0B0
:103CF00099C0A7F09CC0AAF09DC0ABF09EC0ACF0EC
:103D00009FC0ADF00001C251D8B49BD697BF2DD053
:103D1000975104E1160E965DD8A027D0EC0E116ED7
:103D2000510E126EB80E136E3F0E146E7AC003F071
:103D30007BC004F0000E04BEFF0E056E066E010E81
:103D40002DEC2EF003C015F004C016F005C017F0DE
:103D500006C018F0CDEC2EF0D8B007D000017F4B94
:103D6000802B000E836F010E08D0000E0001806FC3
:103D7000000E7F6F000E836F000E826F80BF0AD02F
:103D8000805104E1210E7F5DD8A004D0000E836F26
:103D9000020E826F90EC34F0CFEC07F044EC1FF091
:103DA00090C01FF091C020F096C021F097C022F083
:103DB00056EC32F084C019F085C01AF081EC19F08D
:103DC00088C019F089C01AF075EC30F08CC019F079
:103DD0008DC01AF0E9EC2FF08EC019F08FC01AF0E8
:103DE00001EC31F094C019F095C01AF0BAEC0FF064
:103DF00078C019F079C01AF05DEC2FF092C019F07C
:103E000093C01AF016EC28F08AC019F08BC01AF093
:103E10000BEC22F086C019F087C01AF03CEC2BF0B6
:103E20007DC019F07EC01AF081C01BF000017C51EA
:103E30003AEC13F09CC019F09DC01AF09EC01BF024
:103E40009FC01CF0AAC01DF0ABC01EF0ACC01FF09C
:103E5000ADC020F0A2C021F0A3C022F0A4C023F086
:103E6000A5C024F09AC025F09BC026F0A8C027F07A
:103E7000A9C028F096EC16F00CEC34F0000E00010E
:103E8000C26FDCEC35F0DDD5040E116E000E126E43
:103E9000000E136E1F0E146E70EC34F00A0E116ECD
:103EA000000E126E000E136E0E0E146E70EC34F0D7
:103EB000000E116ED00E126EE20E136E810E146E95
:103EC00070EC34F0000E116ED00E126EA20E136E56
:103ED000800E146E70EC34F0000E116EE00E126E57
:103EE000A60E136E800E146E70EC34F0000E116E80
:103EF000E00E126E460E136E8B0E146E70EC34F0E4
:103F0000000E116ED00E126E420E136E8B0E146EDA
:103F100070EC34F0000E116ED00E126E020E136EA5
:103F20008A0E146E70EC34F0000E116E000E126EDC
:103F3000000E136E210E146E70EC34F0040E116E30
:103F4000000E126E000E136E1F0E146E70EC34F025
:103F5000000E116ED00E126E620E136E8F0E146E66
:103F600070EC34F0000E116ED00E126E420E136E15
:103F70008C0E146E70EC34F0000E116EE00E126EAA
:103F8000460E136E8C0E146E70EC34F0000E116E33
:103F9000E00E126E860E136E960E146E70EC34F0F8
:103FA000000E116ED00E126E820E136E960E146EEF
:103FB00070EC34F0000E116ED00E126E620E136EA5
:103FC000930E146E70EC34F0000E116E000E126E33
:103FD000000E136E210E146E70EC34F0040E116E90
:103FE000000E126E000E136E1F0E146E70EC34F085
:103FF0000A0E116E000E126E000E136E0E0E146E6F
:1040000070EC34F0000E116ED00E126E870E136E2F
:10401000820E146E70EC34F0000E116ED00E126E23
:10402000A70E136E800E146E70EC34F0000E116E3D
:10403000400E126EAB0E136E800E146E70EC34F0E8
:10404000000E116E400E126E4B0E136E8B0E146E20
:1040500070EC34F0000E116ED00E126E470E136E1F
:104060008B0E146E70EC34F0000E116ED00E126ECA
:10407000070E136E8A0E146E70EC34F0000E116E83
:10408000000E126E000E136E210E146E70EC34F0E2
:10409000040E116E000E126E000E136E1F0E146EC3
:1040A00070EC34F00A0E116E000E126E000E136EDC
:1040B0000E0E146E70EC34F0000E116ED00E126EF7
:1040C000070E136E8F0E146E70EC34F0000E116E2E
:1040D000D00E126E470E136E8C0E146E70EC34F010
:1040E000000E116E400E126E4B0E136E8C0E146E7F
:1040F00070EC34F0000E116E400E126E8B0E136ECB
:10410000960E146E70EC34F0000E116ED00E126E1E
:10411000870E136E960E146E70EC34F0000E116E56
:10412000D00E126EC70E136E930E146E70EC34F038
:10413000000E116E000E126E000E136E210E146E24
:1041400070EC34F0040E116E000E126E000E136E41
:104150001F0E146E70EC34F00A0E116E000E126E0B
:10416000000E136E0E0E146E70EC34F0000E116E15
:10417000D00E126E020E136EAD0E146E70EC34F093
:10418000000E116ED00E126E820E136EA50E146EFE
:1041900070EC34F0000E116E900E126E860E136EDF
:1041A000A50E146E70EC34F0000E116E900E126EAF
:1041B000C60E136EBA0E146E70EC34F0000E116E53
:1041C000D00E126EC20E136EBA0E146E70EC34F076
:1041D000000E116ED00E126E420E136EB30E146EE0
:1041E00070EC34F0000E116E000E126E000E136EA5
:1041F000210E146E70EC34F0040E116E000E126E6F
:10420000000E136E1F0E146E70EC34F00A0E116E59
:10421000000E126E000E136E0E0E146E70EC34F063
:10422000000E116E800E126EC70E136EAB0E146E62
:1042300070EC34F0000E116E800E126E870E136E4D
:10424000A50E146E70EC34F0000E116E400E126E5E
:104250008B0E136EA50E146E70EC34F0000E116E02
:10426000400E126ECB0E136EBA0E146E70EC34F05C
:10427000000E116E800E126EC70E136EBA0E146E03
:1042800070EC34F0000E116E800E126E870E136EFD
:10429000B40E146E70EC34F0000E116E000E126E3F
:1042A000000E136E210E146E70EC34F0040E116EBD
:1042B000000E126E000E136E1F0E146E70EC34F0B2
:1042C0000A0E116E000E126E000E136E0E0E146E9C
:1042D00070EC34F0000E116EE00E126E8B0E136E49
:1042E0009B0E146E70EC34F0000E116EE00E126E28
:1042F000CB0E136E970E146E70EC34F0000E116E30
:10430000600E126ECE0E136E970E146E70EC34F0BB
:10431000000E116E600E126E2E0E136EAB0E146E2A
:1043200070EC34F0000E116EE00E126E2B0E136E58
:10433000AB0E146E70EC34F0000E116EE00E126EC7
:104340006B0E136EA70E146E70EC34F0000E116E2F
:10435000000E126E000E136E210E146E70EC34F00F
:10436000040E116E000E126E000E136E1F0E146EF0
:1043700070EC34F00A0E116E000E126E000E136E09
:104380000E0E146E70EC34F0000E116EE00E126E14
:10439000AB0E136EAD0E146E70EC34F0000E116E99
:1043A000E00E126E6B0E136EAC0E146E70EC34F0E9
:1043B000000E116E600E126E6E0E136EAC0E146E49
:1043C00070EC34F0000E116E600E126E2E0E136E35
:1043D000BA0E146E70EC34F0000E116EE00E126E18
:1043E0002B0E136EBA0E146E70EC34F0000E116EBC
:1043F000E00E126EEB0E136EB80E146E70EC34F00D
:10440000000E116E000E126E000E136E210E146E51
:1044100070EC34F01200600E116E000E126E000E81
:10442000136E0E0E146E70EC34F0000E116E7D0ED5
:10443000126ECA0E136E040E146E70EC34F0030E7E
:10444000116E000E126E000E136E1F0E146E70ECC5
:1044500034F037D2000E116ED00E126E020E136EB3
:10446000990E146E70EC34F0000E116E500E126E38
:104470000A0E136E990E146E70EC34F0000E116E6D
:10448000D00E126E020E136E990E146E70EC34F094
:10449000000E116E500E126E0A0E136EA30E146EE5
:1044A00070EC34F0000E116E500E126E0A0E136E88
:1044B000A30E146E70EC34F0000E116ED00E126E5E
:1044C000020E136EA30E146E70EC34F01200000E88
:1044D000116ED00E126E020E136E9E0E146E70ECE4
:1044E00034F0000E116E400E126E0A0E136E9E0E08
:1044F000146E70EC34F0000E116ED00E126EE20EDF
:10450000136E9D0E146E70EC34F0000E116E700E72
:10451000126E830E136E9B0E146E70EC34F0000E50
:10452000116E500E126E8A0E136E9B0E146E70EC8E
:1045300034F0000E116E500E126E0A0E136E9E0EA7
:10454000146E70EC34F01200000E116ED00E126E6C
:10455000020E136E990E146E70EC34F0000E116E94
:10456000D00E126E020E136EA30E146E70EC34F0A9
:10457000000E116EE00E126E020E136EA30E146E7C
:1045800070EC34F0000E116E800E126E060E136E7B
:10459000A30E146E70EC34F0000E116E900E126EBD
:1045A000E60E136EA20E146E70EC34F0000E116E57
:1045B000900E126E060E136E990E146E70EC34F09F
:1045C000000E116EA00E126E060E136E990E146E72
:1045D00070EC34F0000E116E500E126E0A0E136E57
:1045E000990E146E70EC34F0000E116E500E126EB7
:1045F0002A0E136E990E146E70EC34F0000E116ECC
:10460000500E126E0A0E136EA30E146E70EC34F080
:104610001200000E116ED00E126E020E136E990E65
:10462000146E70EC34F0000E116ED00E126EE20EAD
:10463000136EA20E146E70EC34F0000E116ED00EDC
:10464000126E020E136EA30E146E70EC34F0000E98
:10465000116E500E126E0A0E136EA30E146E70ECD5
:1046600034F0000E116E900E126EE60E136EA20E56
:10467000146E70EC34F0000E116E900E126E060E79
:10468000136E990E146E70EC34F0000E116E500E15
:10469000126E0A0E136E990E146E70EC34F0000E4A
:1046A000116E500E126EEA0E136EA20E146E70ECA6
:1046B00034F01200000E116ED00E126E020E136E48
:1046C000990E146E70EC34F0000E116E800E126EA6
:1046D000060E136E990E146E70EC34F0000E116E0F
:1046E000D00E126E020E136EA30E146E70EC34F028
:1046F000000E116E500E126E0A0E136EA30E146E83
:1047000070EC34F0000E116E900E126EE60E136E09
:10471000A20E146E70EC34F0000E116E900E126E3C
:10472000260E136E990E146E70EC34F01200000E0B
:10473000116ED00E126E020E136E990E146E70EC86
:1047400034F0000E116ED00E126E020E136EA30E18
:10475000146E70EC34F0000E116EE00E126E020E4C
:10476000136E990E146E70EC34F0000E116E800E04
:10477000126E060E136E990E146E70EC34F0000E6D
:10478000116E900E126EE60E136EA20E146E70EC89
:1047900034F0000E116E900E126E060E136E990E0E
:1047A000146E70EC34F0000E116EA00E126E060E38
:1047B000136EA30E146E70EC34F0000E116E400EEA
:1047C000126E0A0E136EA30E146E70EC34F0000E0F
:1047D000116E500E126E2A0E136E990E146E70EC3E
:1047E00034F0000E116E500E126E0A0E136EA30EF0
:1047F000146E70EC34F01200000E116ED00E126EBA
:10480000220E136E990E146E70EC34F0000E116EC1
:10481000D00E126E020E136EA30E146E70EC34F0F6
:10482000000E116EE00E126E020E136E990E146ED3
:1048300070EC34F0000E116E400E126E0A0E136E04
:10484000990E146E70EC34F0000E116E900E126E14
:10485000260E136E990E146E70EC34F0000E116E6D
:10486000900E126E060E136EA30E146E70EC34F0E2
:10487000000E116EA00E126E060E136EA30E146EB5
:1048800070EC34F0000E116E400E126E0A0E136EB4
:10489000A30E146E70EC34F0000E116E500E126EFA
:1048A0000A0E136E990E146E70EC34F0000E116E39
:1048B000500E126EEA0E136EA20E146E70EC34F0EF
:1048C000120019C01BF01AC01CF01C50000AD8A41A
:1048D00012001B50000AD8B4BDD5010AD8B4F7D5D0
:1048E000030AD8B431D6010AD8B493D6070AD8B48B
:1048F000E1D6010AD8B41BD7030AD8A412007CD78A
:10490000D1D1000E116EFF0E126E000E136E040E4A
:10491000146E70EC34F00C0E116EFF0E126EFF0E62
:10492000136EFF0E146E70EC34F04F501B6E50502F
:104930001C6E1D6A1E6A000E1B24046E800E1C2055
:10494000056E100E1D20066E000E1E20076E010E55
:10495000096E0C0E086E48EC35F0020E89EC35F04D
:104960004F501B6E50501C6E1D6A1E6A000E1B2499
:10497000046E800E1C20056E100E1D20066E000EAB
:104980001E20076E000E096ED40E086E48EC35F03E
:10499000020E89EC35F04F501B6E50501C6E1D6A94
:1049A0001E6A000E1B24046E800E1C20056E100E65
:1049B0001D20066E000E1E20076E000E096E1C0ED6
:1049C000086E48EC35F0020E89EC35F04F501B6E46
:1049D00050501C6E1D6A1E6A000E1B24046E800E51
:1049E0001C20056E100E1D20066E000E1E20076E88
:1049F000060E096E000E086E48EC35F0020E89ECCA
:104A000035F04F501B6E50501C6E1D6A1E6A000E12
:104A10001B24096E800E1C200A6E100E1D200B6ECA
:104A2000000E1E200C6E400E0D6E0F0E0E6E67EC0B
:104A300033F089EC35F01200000E116EFF0E126E8D
:104A4000FF0E136E040E146E70EC34F00C0E116E2B
:104A5000FF0E126EFF0E136EFF0E146E70EC34F02C
:104A60004F501B6E50501C6E1D6A1E6A000E1B2498
:104A7000046E800E1C20056E100E1D20066E000EAA
:104A80001E20076E010E096E0C0E086E48EC35F004
:104A9000020E89EC35F04F501B6E50501C6E1D6A93
:104AA0001E6A000E1B24046E800E1C20056E100E64
:104AB0001D20066E000E1E20076E000E096ED40E1D
:104AC000086E48EC35F0020E89EC35F04F501B6E45
:104AD00050501C6E1D6A1E6A000E1B24046E800E50
:104AE0001C20056E100E1D20066E000E1E20076E87
:104AF000000E096E1C0E086E48EC35F0020E89ECB3
:104B000035F04F501B6E50501C6E1D6A1E6A000E11
:104B10001B24046E800E1C20056E100E1D20066ED8
:104B2000000E1E20076E060E096E000E086E48EC81
:104B300035F0020E89EC35F04F501B6E50501C6E54
:104B40001D6A1E6A000E1B24096E800E1C200A6E50
:104B5000100E1D200B6E000E1E200C6E2A0E0D6E08
:104B60000F0E0E6E67EC33F089EC35F01200000E7C
:104B7000116E000E126EFF0E136E040E146E70ECAA
:104B800034F00C0E116EFF0E126EFF0E136EFF0E40
:104B9000146E70EC34F04F501B6E50501C6E1D6A3A
:104BA0001E6A000E1B24046E800E1C20056E100E63
:104BB0001D20066E000E1E20076E010E096E0C0EE3
:104BC000086E48EC35F0020E89EC35F04F501B6E44
:104BD00050501C6E1D6A1E6A000E1B24046E800E4F
:104BE0001C20056E100E1D20066E000E1E20076E86
:104BF000000E096ED40E086E48EC35F0020E89ECFA
:104C000035F04F501B6E50501C6E1D6A1E6A000E10
:104C10001B24046E800E1C20056E100E1D20066ED7
:104C2000000E1E20076E000E096E1C0E086E48EC6A
:104C300035F0020E89EC35F04F501B6E50501C6E53
:104C40001D6A1E6A000E1B24046E800E1C20056E59
:104C5000100E1D20066E000E1E20076E060E096E39
:104C6000000E086E48EC35F0020E89EC35F04F501E
:104C70001B6E50501C6E1D6A1E6A000E1B24096EAE
:104C8000800E1C200A6E100E1D200B6E000E1E20C2
:104C90000C6E590E0D6E0F0E0E6E67EC33F089EC34
:104CA00035F0120019C01BF01AC01CF01C50000A8D
:104CB000D8A412001B50000AD8B423D6010AD8B4D5
:104CC000BBD6030AD8A4120052D7FF0E116EFF0EF6
:104CD000126EFF0E136E040E146E70EC34F02E0E76
:104CE000116EFF0E126EFF0E136EFF0E146E70EC3F
:104CF00034F04F501B6E50501C6E1D6A1E6A000E21
:104D00001B24046E800E1C20056E100E1D20066EE6
:104D1000000E1E20076E000E096EF00E086E48ECA5
:104D200035F0020E89EC35F04F501B6E50501C6E62
:104D30001D6A1E6A000E1B24046E800E1C20056E68
:104D4000100E1D20066E000E1E20076E000E096E4E
:104D5000EC0E086E48EC35F0020E89EC35F04F5041
:104D60001B6E50501C6E1D6A1E6A000E1B24046EC2
:104D7000800E1C20056E100E1D20066E000E1E20DB
:104D8000076E000E096E1E0E086E48EC35F0020E1E
:104D900089EC35F04F501B6E50501C6E1D6A1E6A18
:104DA000000E1B24046E800E1C20056E100E1D20AC
:104DB000066E000E1E20076E080E096E000E086EAD
:104DC00048EC35F0020E89EC35F019C003F01AC03A
:104DD00004F0000E066E0A0E056E25EC33F003C0DB
:104DE00011F004C012F0000E12BEFF0E136E146E0E
:104DF00070EC34F00C0E116EFF0E126EFF0E136E7F
:104E0000FF0E146E70EC34F04F501B6E50501C6E41
:104E10001D6A1E6A000E1B24046E800E1C20056E87
:104E2000100E1D20066E000E1E20076E000E096E6D
:104E3000F00E086E48EC35F0020E89EC35F04F505C
:104E40001B6E50501C6E1D6A1E6A000E1B24046EE1
:104E5000800E1C20056E100E1D20066E000E1E20FA
:104E6000076E000E096EEC0E086E48EC35F0020E6F
:104E700089EC35F04F501B6E50501C6E1D6A1E6A37
:104E8000000E1B24046E800E1C20056E100E1D20CB
:104E9000066E000E1E20076E000E096E1E0E086EB6
:104EA00048EC35F0020E89EC35F04F501B6E505037
:104EB0001C6E1D6A1E6A000E1B24046E800E1C20D0
:104EC000056E100E1D20066E000E1E20076E000ED1
:104ED000096E000E086E48EC35F0020E89EC35F0D4
:104EE0004F501B6E50501C6E1D6A1E6A000E1B2414
:104EF000096E800E1C200A6E100E1D200B6E000E17
:104F00001E200C6E970E0D6E0F0E0E6E67EC33F0BA
:104F100089EC35F02E0E116EFF0E126EFF0E136E21
:104F2000FF0E146E70EC34F04F501B6E50501C6E20
:104F30001D6A1E6A000E1B24046E800E1C20056E66
:104F4000100E1D20066E000E1E20076E000E096E4C
:104F5000F80E086E48EC35F0020E89EC35F04F5033
:104F60001B6E50501C6E1D6A1E6A000E1B24046EC0
:104F7000800E1C20056E100E1D20066E000E1E20D9
:104F8000076E000E096EEC0E086E48EC35F0020E4E
:104F900089EC35F04F501B6E50501C6E1D6A1E6A16
:104FA000000E1B24046E800E1C20056E100E1D20AA
:104FB000066E000E1E20076E000E096E1E0E086E95
:104FC00048EC35F0020E89EC35F04F501B6E505016
:104FD0001C6E1D6A1E6A000E1B24046E800E1C20AF
:104FE000056E100E1D20066E000E1E20076E000EB0
:104FF000096E000E086E48EC35F0020E89EC35F0B3
:1050000019C00BF01AC00CF0000E0E6E0A0E0D6ED9
:10501000A3EC33F00BC011F00CC012F0000E12BE66
:10502000FF0E136E146E70EC34F012002E0E116E23
:10503000FF0E126EFF0E136EFF0E146E70EC34F046
:105040004F501B6E50501C6E1D6A1E6A000E1B24B2
:10505000046E800E1C20056E100E1D20066E000EC4
:105060001E20076E010E096E330E086E48EC35F0F7
:10507000020E89EC35F04F501B6E50501C6E1D6AAD
:105080001E6A000E1B24046E800E1C20056E100E7E
:105090001D20066E000E1E20076E000E096EC30E48
:1050A000086E48EC35F0020E89EC35F04F501B6E5F
:1050B00050501C6E1D6A1E6A000E1B24046E800E6A
:1050C0001C20056E100E1D20066E000E1E20076EA1
:1050D000000E096E1E0E086E48EC35F0020E89ECCB
:1050E00035F04F501B6E50501C6E1D6A1E6A000E2C
:1050F0001B24046E800E1C20056E100E1D20066EF3
:10510000000E1E20076E080E096E000E086E48EC99
:1051100035F0020E89EC35F019C003F01AC004F026
:10512000000E066E0A0E056E25EC33F003C011F07A
:1051300004C012F0000E12BEFF0E136E146E70EC5F
:1051400034F00C0E116EFF0E126EFF0E136EFF0E7A
:10515000146E70EC34F04F501B6E50501C6E1D6A74
:105160001E6A000E1B24046E800E1C20056E100E9D
:105170001D20066E000E1E20076E010E096E360EF3
:10518000086E48EC35F0020E89EC35F04F501B6E7E
:1051900050501C6E1D6A1E6A000E1B24046E800E89
:1051A0001C20056E100E1D20066E000E1E20076EC0
:1051B000000E096EC30E086E48EC35F0020E89EC45
:1051C00035F04F501B6E50501C6E1D6A1E6A000E4B
:1051D0001B24046E800E1C20056E100E1D20066E12
:1051E000000E1E20076E000E096E1E0E086E48ECA3
:1051F00035F0020E89EC35F04F501B6E50501C6E8E
:105200001D6A1E6A000E1B24046E800E1C20056E93
:10521000100E1D20066E000E1E20076E000E096E79
:10522000000E086E48EC35F0020E89EC35F04F5058
:105230001B6E50501C6E1D6A1E6A000E1B24096EE8
:10524000800E1C200A6E100E1D200B6E000E1E20FC
:105250000C6E970E0D6E0F0E0E6E67EC33F089EC30
:1052600035F02E0E116EFF0E126EFF0E136EFF0E36
:10527000146E70EC34F04F501B6E50501C6E1D6A53
:105280001E6A000E1B24046E800E1C20056E100E7C
:105290001D20066E000E1E20076E010E096E3E0ECA
:1052A000086E48EC35F0020E89EC35F04F501B6E5D
:1052B00050501C6E1D6A1E6A000E1B24046E800E68
:1052C0001C20056E100E1D20066E000E1E20076E9F
:1052D000000E096EC30E086E48EC35F0020E89EC24
:1052E00035F04F501B6E50501C6E1D6A1E6A000E2A
:1052F0001B24046E800E1C20056E100E1D20066EF1
:10530000000E1E20076E000E096E1E0E086E48EC81
:1053100035F0020E89EC35F04F501B6E50501C6E6C
:105320001D6A1E6A000E1B24046E800E1C20056E72
:10533000100E1D20066E000E1E20076E000E096E58
:10534000000E086E48EC35F0020E89EC35F019C0FD
:105350000BF01AC00CF0000E0E6E0A0E0D6EA3ECD0
:1053600033F00BC011F00CC012F0000E12BEFF0E95
:10537000136E146E70EC34F012008B92020E116EEC
:10538000A00E106E920EE82EFED7102EFCD7112E16
:10539000FAD700D08B82020E116EA00E106E920E04
:1053A000E82EFED7102EFCD7112EFAD700D0000E13
:1053B000A4EC35F0440EA4EC35F0620EA4EC35F00C
:1053C000300E046E240E056E100E066E000E076E73
:1053D000010E096EE00E086E48EC35F0440E046EC6
:1053E000240E056E100E066E000E076E010E096E7D
:1053F000100E086E48EC35F0280E046E240E056E73
:10540000100E066E000E076E020E096E0D0E086E6F
:1054100048EC35F0340E046E240E056E100E066E48
:10542000000E076E000E096E000E086E48EC35F097
:10543000380E046E240E056E100E066E000E076EFA
:10544000000E096E290E086E48EC35F02C0E046E25
:10545000240E056E100E066E000E076E000E096E0D
:105460002B0E086E48EC35F03C0E046E240E056ED3
:10547000100E066E000E076E010E096E1E0E086EEF
:1054800048EC35F0480E046E240E056E100E066EC4
:10549000000E076E000E096E000E086E48EC35F027
:1054A0004C0E046E240E056E100E066E000E076E76
:1054B000000E096E0A0E086E48EC35F0400E046EC0
:1054C000240E056E100E066E000E076E000E096E9D
:1054D0000C0E086E48EC35F0640E046E240E056E5A
:1054E000100E066E000E076E000E086E5BEC35F0B7
:1054F0005C0E046E240E056E100E066E000E076E16
:10550000000E086E5BEC35F0580E046E240E056E2E
:10551000100E066E000E076E010E096EB60E086EB6
:1055200048EC35F0600E046E240E056E100E066E0B
:10553000000E076E000E086E5BEC35F0680E046E10
:10554000240E056E100E066E000E076E000E086E1D
:105550005BEC35F0540E046E240E056E100E066ED4
:10556000000E076E000E086E5BEC35F0000E046E48
:10557000000E056E100E066E000E076E000E086E11
:105580001A0E096E000E0A6E020E0B6EDBEC33F083
:10559000040E046E000E056E100E066E000E076EF1
:1055A000070E086E000E096E000E0A6E260E0B6EB8
:1055B000DBEC33F0080E046E000E056E100E066E66
:1055C000000E076E000E086E000E096E000E0A6EC9
:1055D000000E0B6EDBEC33F0500E046E240E056EE5
:1055E000100E066E000E076E020E086E5BEC35F0B4
:1055F0008C0E046E240E056E100E066E000E076EE5
:10560000FC0E086E5BEC35F0900E046E240E056EF9
:10561000100E066E000E076EFF0E086E5BEC35F086
:105620006C0E046E240E056E100E066E000E076ED4
:10563000050E086E5BEC35F0E80E046E240E056E68
:10564000100E066E000E076ECDEC34F004C04FF065
:1056500005C050F0E40E046E240E056E100E066EAA
:10566000000E076ECDEC34F04F500418F3E15050AB
:105670000518D8B41200EED719041A10D8A49BD07C
:10568000FF0E116EFF0E126EFF0E136E040E146EDF
:1056900070EC34F00C0E116EFF0E126EFF0E136ED6
:1056A000FF0E146E70EC34F04F501B6E50501C6E99
:1056B0001D6A1E6A000E1B24046E800E1C20056EDF
:1056C000100E1D20066E000E1E20076E000E096EC5
:1056D0002F0E086E48EC35F0020E89EC35F04F5075
:1056E0001B6E50501C6E1D6A1E6A000E1B24046E39
:1056F000800E1C20056E100E1D20066E000E1E2052
:10570000076E000E096E8E0E086E48EC35F0020E24
:1057100089EC35F04F501B6E50501C6E1D6A1E6A8E
:10572000000E1B24046E800E1C20056E100E1D2022
:10573000066E000E1E20076E000E096E1C0E086E0F
:1057400048EC35F0020E89EC35F04F501B6E50508E
:105750001C6E1D6A1E6A000E1B24046E800E1C2027
:10576000056E100E1D20066E000E1E20076E020E26
:10577000096E000E086E48EC35F0020E89EC35F02B
:105780004F501B6E50501C6E1D6A1E6A000E1B246B
:10579000096E800E1C200A6E100E1D200B6E000E6E
:1057A0001E200C6E400E0D6E0F0E0E6E67EC33F069
:1057B00089EC35F01200000E116E000E126EFF0E15
:1057C000136E040E146E70EC34F00C0E116EFF0E9E
:1057D000126EFF0E136EFF0E146E70EC34F04F500D
:1057E0001B6E50501C6E1D6A1E6A000E1B24046E38
:1057F000800E1C20056E100E1D20066E000E1E2051
:10580000076E000E096E2F0E086E48EC35F0020E82
:1058100089EC35F04F501B6E50501C6E1D6A1E6A8D
:10582000000E1B24046E800E1C20056E100E1D2021
:10583000066E000E1E20076E000E096E8E0E086E9C
:1058400048EC35F0020E89EC35F04F501B6E50508D
:105850001C6E1D6A1E6A000E1B24046E800E1C2026
:10586000056E100E1D20066E000E1E20076E000E27
:10587000096E1C0E086E48EC35F0020E89EC35F00E
:105880004F501B6E50501C6E1D6A1E6A000E1B246A
:10589000046E800E1C20056E100E1D20066E000E7C
:1058A0001E20076E020E096E000E086E48EC35F0E1
:1058B000020E89EC35F04F501B6E50501C6E1D6A65
:1058C0001E6A000E1B24096E800E1C200A6E100E2C
:1058D0001D200B6E000E1E200C6E2A0E0D6E0F0E7C
:1058E0000E6E67EC33F089EC35F01200000E186E86
:1058F00060AE83D062A61ED016C0D9FF17C0DAFFF3
:10590000020EDF6E64CF03F061CF04F062CF05F0CA
:10591000635089EC2DF020EE01F01650D926175077
:10592000DA2203C0DEFF04C0DEFF05C0DEFF06C0D2
:10593000DEFF19D016C0D9FF17C0DAFF010EDF6EE7
:1059400062CF03F06150E2EC32F020EE01F016502D
:10595000D9261750DA2203C0DEFF04C0DEFF05C0DF
:10596000DEFF06C0DEFF20EE05F01650D9261750E8
:10597000DA2265CFDFFF20EE06F01650D926175049
:10598000DA2266CFDFFF20EE07F01650D926175037
:10599000DA2267CFDFFF20EE08F01650D926175025
:1059A000DA2268CFDFFF20EE09F01650D926175013
:1059B000DA2269CFDFFF20EE0AF01650D926175001
:1059C000DA226ACFDFFF20EE0BF01650D9261750EF
:1059D000DA226BCFDFFF20EE0CF01650D9261750DD
:1059E000DA226CCFDFFF20EE0DF01650D9261750CB
:1059F000DA226DCFDFFF609E87D00F0130AF86D0F7
:105A000032A71ED016C0D9FF17C0DAFF020EDF6E14
:105A100034CF03F031CF04F032CF05F0335189ECAD
:105A20002DF020EE01F01650D9261750DA2203C0CF
:105A3000DEFF04C0DEFF05C0DEFF06C0DEFF1AD0B9
:105A400016C0D9FF17C0DAFF010EDF6E32CF03F0A8
:105A50000F013151E2EC32F020EE01F01650D92660
:105A60001750DA2203C0DEFF04C0DEFF05C0DEFFF0
:105A700006C0DEFF20EE05F01650D9261750DA22B8
:105A800035CFDFFF20EE06F01650D9261750DA2268
:105A900036CFDFFF20EE07F01650D9261750DA2256
:105AA00037CFDFFF20EE08F01650D9261750DA2244
:105AB00038CFDFFF20EE09F01650D9261750DA2232
:105AC00039CFDFFF20EE0AF01650D9261750DA2220
:105AD0003ACFDFFF20EE0BF01650D9261750DA220E
:105AE0003BCFDFFF20EE0CF01650D9261750DA22FC
:105AF0003CCFDFFF20EE0DF01650D9261750DA22EA
:105B00003DCFDFFF0F01309F010E186E77921850C6
:105B100012000B6E000E0C6E000E0D6E000E0E6E5F
:105B2000000E0F6E000E126E000E136E000E146E3D
:105B3000000E156E0550030B106E0538E842070B7A
:105B4000116E0450076E086AD89007360836D89050
:105B500007360836D8900736083607C012F008C056
:105B600013F0000E13BEFF0E146E156E11501224AA
:105B7000126E000E1320136E000E1420146E000E11
:105B80001520156E12C007F013C008F014C009F0FC
:105B900015C00AF0020ED8900736083609360A36C4
:105BA000E82EF9D707C012F008C013F009C014F0AE
:105BB0000AC015F010501224126E000E1320136E3E
:105BC000000E1420146E000E1520156E12C008F081
:105BD00013C009F014C00AF0076A07C012F008C029
:105BE00013F009C014F00AC015F00B501224126E05
:105BF000000E1320136E000E1420146E000E1520DC
:105C0000156E12C008F013C009F014C00AF0076A3C
:105C100007C012F008C013F009C014F00AC015F054
:105C200003501224126E000E1320136E000E142067
:105C3000146E000E1520156E12C00CF013C00DF07E
:105C400014C00EF015C00FF00CC003F00DC004F02E
:105C50000EC005F00FC006F012000B6E0B50D8A45A
:105C600006AE1AD003C007F004C008F005C009F062
:105C700006C00AF0071E081E091E0A1E072A000E8B
:105C8000082209220A2207C00DF008C00EF009C040
:105C90000FF00AC010F008D003C00DF004C00EF0E1
:105CA00005C00FF006C010F00350041005100610D8
:105CB000D8A409D0000E036E000E046E000E056E0F
:105CC000000E066E1200960E0C6E06D00C2AD890AE
:105CD00010320F320E320D32000E0D14076E000E10
:105CE0000E14086E000E0F14096EFE0E10140A6ECC
:105CF0000750081009100A10D8B40DD0E7D70C2AA5
:105D0000010E0D26000E0E220F221022D890103206
:105D10000F320E320D32000E0D14076E000E0E14EF
:105D2000086E000E0F14096EFF0E10140A6E075055
:105D3000081009100A10D8B407D0E1D70C06D89083
:105D40000D360E360F3610360FBE03D0020E0C6025
:105D5000F5D70CA00F9ED8900C320CC007F0086A43
:105D6000096A0A6A07C00AF0096A086A076A0750DE
:105D70000D1208500E1209500F120A5010120B503B
:105D8000D8A406AE01D0108E0DC003F00EC004F0F2
:105D90000FC005F010C006F01200000E1114196EAD
:105DA000000E12141A6E800E13141B6E7F0E141444
:105DB0001C6E19501A101B101C10D8A408D0000E0D
:105DC000116E000E126E000E136E000E146E000E99
:105DD0001514196E000E16141A6E800E17141B6E11
:105DE0007F0E18141C6E19501A101B101C10D8A40A
:105DF00008D0000E156E000E166E000E176E000E07
:105E0000186E14AE1DD011C019F012C01AF013C0D4
:105E10001BF014C01CF0191E1A1E1B1E1C1E192A72
:105E2000000E1A221B221C22000E1924116E000ED5
:105E30001A20126E000E1B20136E800E1C20146E92
:105E400018AE1DD015C019F016C01AF017C01BF0FF
:105E500018C01CF0191E1A1E1B1E1C1E192A000E2B
:105E60001A221B221C22000E1924156E000E1A2065
:105E7000166E000E1B20176E800E1C20186E000E72
:105E8000111A000E121A000E131A800E141A000EA8
:105E9000151A000E161A000E171A800E181A155031
:105EA000115C165012581750135818501458D8B087
:105EB00002D0D8901200D8801200FF0E116EFF0E93
:105EC000126EFF0E136E040E146E70EC34F02E0E74
:105ED000116EFF0E126EFF0E136EFF0E146E70EC3D
:105EE00034F04F501B6E50501C6E1D6A1E6A000E1F
:105EF0001B24046E800E1C20056E100E1D20066EE5
:105F0000000E1E20076E000E096E050E086E48EC8E
:105F100035F0020E89EC35F04F501B6E50501C6E60
:105F20001D6A1E6A000E1B24046E800E1C20056E66
:105F3000100E1D20066E000E1E20076E000E096E4C
:105F4000EC0E086E48EC35F0020E89EC35F04F503F
:105F50001B6E50501C6E1D6A1E6A000E1B24046EC0
:105F6000800E1C20056E100E1D20066E000E1E20D9
:105F7000076E000E096E1E0E086E48EC35F0020E1C
:105F800089EC35F04F501B6E50501C6E1D6A1E6A16
:105F9000000E1B24046E800E1C20056E100E1D20AA
:105FA000066E000E1E20076E000E096E000E086EB3
:105FB00048EC35F0020E89EC35F019C011F01AC02A
:105FC00012F0000E12BEFF0E136E146E70EC34F061
:105FD0001200FF0E116EFF0E126EFF0E136E040EF6
:105FE000146E70EC34F02E0E116EFF0E126EFF0E5A
:105FF000136EFF0E146E70EC34F04F501B6E505049
:106000001C6E1D6A1E6A000E1B24046E800E1C206E
:10601000056E100E1D20066E000E1E20076E000E6F
:10602000096E2F0E086E48EC35F0020E89EC35F043
:106030004F501B6E50501C6E1D6A1E6A000E1B24B2
:10604000046E800E1C20056E100E1D20066E000EC4
:106050001E20076E000E096E3A0E086E48EC35F0F1
:10606000020E89EC35F04F501B6E50501C6E1D6AAD
:106070001E6A000E1B24046E800E1C20056E100E7E
:106080001D20066E000E1E20076E000E096E1F0EEC
:10609000086E48EC35F0020E89EC35F04F501B6E5F
:1060A00050501C6E1D6A1E6A000E1B24046E800E6A
:1060B0001C20056E100E1D20066E000E1E20076EA1
:1060C000020E096E000E086E48EC35F0020E89ECE7
:1060D00035F019C011F01AC012F0000E12BEFF0EFA
:1060E000136E146E70EC34F01200FF0E116EFF0E82
:1060F000126EFF0E136E040E146E70EC34F02E0E42
:10610000116EFF0E126EFF0E136EFF0E146E70EC0A
:1061100034F04F501B6E50501C6E1D6A1E6A000EEC
:106120001B24046E800E1C20056E100E1D20066EB2
:10613000000E1E20076E010E096E980E086E48ECC8
:1061400035F0020E89EC35F04F501B6E50501C6E2E
:106150001D6A1E6A000E1B24046E800E1C20056E34
:10616000100E1D20066E000E1E20076E000E096E1A
:10617000820E086E48EC35F0020E89EC35F04F5077
:106180001B6E50501C6E1D6A1E6A000E1B24046E8E
:10619000800E1C20056E100E1D20066E000E1E20A7
:1061A000076E000E096E1F0E086E48EC35F0020EE9
:1061B00089EC35F04F501B6E50501C6E1D6A1E6AE4
:1061C000000E1B24046E800E1C20056E100E1D2078
:1061D000066E000E1E20076E080E096E000E086E79
:1061E00048EC35F0020E89EC35F019C011F01AC0F8
:1061F00012F0000E12BEFF0E136E146E70EC34F02F
:1062000012002E0E116EFF0E126EFF0E136EFF0E99
:10621000146E70EC34F04F501B6E50501C6E1D6AA3
:106220001E6A000E1B24046E800E1C20056E100ECC
:106230001D20066E000E1E20076E000E096E8B0ECE
:10624000086E48EC35F0020E89EC35F04F501B6EAD
:1062500050501C6E1D6A1E6A000E1B24046E800EB8
:106260001C20056E100E1D20066E000E1E20076EEF
:10627000000E096E3A0E086E48EC35F0020E89ECFD
:1062800035F04F501B6E50501C6E1D6A1E6A000E7A
:106290001B24046E800E1C20056E100E1D20066E41
:1062A000000E1E20076E000E096E1F0E086E48ECD1
:1062B00035F0020E89EC35F04F501B6E50501C6EBD
:1062C0001D6A1E6A000E1B24046E800E1C20056EC3
:1062D000100E1D20066E000E1E20076E020E096EA7
:1062E000000E086E48EC35F0020E89EC35F019C04E
:1062F00011F01AC012F0000E12BEFF0E136E146ED3
:1063000070EC34F012002E0E116EFF0E126EFF0EA6
:10631000136EFF0E146E70EC34F04F501B6E505025
:106320001C6E1D6A1E6A000E1B24046E800E1C204B
:10633000056E100E1D20066E000E1E20076E010E4B
:10634000096EC70E086E48EC35F0020E89EC35F088
:106350004F501B6E50501C6E1D6A1E6A000E1B248F
:10636000046E800E1C20056E100E1D20066E000EA1
:106370001E20076E000E096EEC0E086E48EC35F01C
:10638000020E89EC35F04F501B6E50501C6E1D6A8A
:106390001E6A000E1B24046E800E1C20056E100E5B
:1063A0001D20066E000E1E20076E000E096E1E0ECA
:1063B000086E48EC35F0020E89EC35F04F501B6E3C
:1063C00050501C6E1D6A1E6A000E1B24046E800E47
:1063D0001C20056E100E1D20066E000E1E20076E7E
:1063E000080E096E000E086E48EC35F0020E89ECBE
:1063F00035F019C011F01AC012F0000E12BEFF0ED7
:10640000136E146E70EC34F01200800E6F6E6E50CE
:10641000E00B800AD8A4FBD7000E726E0E01FA6959
:10642000FB69F869F969FE69FF69FC69FD69000E9D
:10643000E26F000EE36F000EE06F000EE16F000EE2
:10644000E66F000EE76F000EE46F000EE56F000EC2
:10645000EA6F000EEB6F000EE86F000EE96F000EA2
:10646000EE6F000EEF6F000EEC6F000EED6F000E82
:10647000F26F000EF36F000EF06F000EF16F000E62
:10648000F66F000EF76F000EF46F000EF56F030E3F
:10649000436F980E446F010E456F000E6F6E6ECF06
:1064A00003F0E00E0316D8B41200F9D7000E116EF7
:1064B000000E126EFF0E136E040E146E70EC34F0AC
:1064C000030E116E000E126E000E136E1F0E146E70
:1064D00070EC34F01E0E116E000E126E000E136E74
:1064E0000E0E146E70EC34F0000E116ED00E126EA3
:1064F0000E0E136E800E146E70EC34F0000E116EE2
:10650000D00E126E0E0E136EBC0E146E70EC34F0C4
:10651000000E116E000E126E000E136E210E146E20
:1065200070EC34F01FC019F020C01AF065EC26F0B2
:1065300021C019F022C01AF083EC31F0120090EC67
:1065400034F0CFEC07F044EC1FF043C01FF044C020
:1065500020F035C021F036C022F056EC32F02DC0CC
:1065600019F02EC01AF081EC19F03BC019F03CC0B4
:106570001AF075EC30F03FC019F040C01AF0E9ECA9
:106580002FF041C019F042C01AF001EC31F039C0CF
:1065900019F03AC01AF0BAEC0FF03DC019F03EC045
:1065A0001AF00BEC22F033C019F034C01AF03CECB6
:1065B0002BF037C019F038C01AF080EC24F00CEC46
:1065C00034F01200096E000E0A6E000E0B6E000E03
:1065D0000C6E000E0D6E0950076E086AD8900736D3
:1065E0000836D89007360836D8900736083607C0E0
:1065F0000EF008C00FF0000E0FBEFF0E106E116EF1
:1066000003C007F0050E086ED8900732082EFCD79D
:1066100007500E240E6E000E0F200F6E000E10207D
:10662000106E000E1120116E0EC00AF00FC00BF09C
:1066300010C00CF011C00DF00AC003F00BC004F044
:106640000CC005F00DC006F01200000E086E06AE7C
:1066500006D0056C061ED8B0062A010E086E04AEE0
:1066600006D0036C041ED8B0042A010E081A000ECE
:106670000A6E000E096E05500610D8B41CD0010E2B
:10668000076E04D0D89005360636072A06AEFAD72C
:10669000D89009360A360550035C06500458D8A035
:1066A00005D00550035E0650045A0980D890063282
:1066B0000532072EEDD70850D8B404D0096C0A1E55
:1066C000D8B00A2A09C003F00AC004F012008C9066
:1066D0000B508009C5EC35F00A50C5EC35F0095077
:1066E000C5EC35F00DC003F00EC004F050EC34F0F2
:1066F0000350116E000E126E14D01250010D0DC019
:106700000FF00EC010F0F3500F26F45010220FC0FF
:10671000F6FF10C0F7FFF86A0800F550C5EC35F039
:10672000122A1250115CD8A005D0E7D7000EC5EC94
:1067300035F0122A12C00FF0030E0F16D8A4F6D7A8
:106740008C8012501200000E106E0CAE06D00B6C36
:106750000C1ED8B00C2A010E106E0EAE04D00D6CBB
:106760000E1ED8B00E2A0D500E10D8B418D0010E3F
:106770000F6E04D0D8900D360E360F2A0EAEFAD713
:106780000D500B5C0E500C58D8A004D00D500B5E71
:106790000E500C5AD8900E320D320F2EF1D71050E9
:1067A000D8B404D00B6C0C1ED8B00C2A0BC00BF064
:1067B0000CC00CF012008C9006508009C5EC35F02E
:1067C0000550C5EC35F00450C5EC35F00850C5EC6B
:1067D00035F00950C5EC35F00A50C5EC35F008C06D
:1067E0000CF009C00DF00AC00EF00BC00FF0110E36
:1067F00005D0D8900F320E320D320C32E82EF9D778
:106800000DC00CF00EC00DF00FC00EF00F6A0C5052
:10681000C5EC35F08C801200000E116E000E126E69
:10682000000E136E000E146E70EC34F0010E116E3B
:10683000FF0E126EFF0E136EFF0E146E70EC34F02E
:10684000E80E046E240E056E100E066E000E076E26
:106850004FC008F050C009F048EC35F01200620E4D
:10686000F66E6B0EF76E000EF86E00EED1F010EEC5
:1068700016F00900F5CFEEFFE550E150FAE100EE29
:10688000AEF0230EEE6AE806FDE100EE47F00D0ED5
:10689000EE6AE806FDE154905492000166EF1CF0A8
:1068A00003C007F004C008F002D0034A042A03C062
:1068B000F6FF04C0F7FFF86A0800F5500009D8A4F5
:1068C000F4D707C005F008C006F0051E061E054AED
:1068D000062A03500524036E04500620046E12009D
:1068E0004F50156E5050166E176A186A000E152418
:1068F000046E800E1620056E100E1720066E000E18
:106900001820076E11C008F012C009F013C00AF079
:1069100014C00BF0DBEC33F0040E89EC35F0120000
:10692000000E116EFF0E126EFF0E136EFF0E146E30
:1069300070EC34F0000E116E000E126E000E136E2D
:10694000020E146E70EC34F0070E116E000E126E13
:10695000000E136E260E146E70EC34F01200300E22
:10696000CD6E000EAA6E150ECF6EA00ECE6ECE505E
:10697000CFCF05F0066A05C006F0056A05104D6E1A
:1069800006504E6E9E909D80EE0E036E6B0E046E52
:10699000E1EC35F0F1EC35F012008C900650C5ECCE
