:020000040000FA
:040000001CEF00F001
:100008005482FACF01F0FBCF02F0F2BC9DA005D0DC
:100018009EA003D03EEC34F005D0F2BAF2A402D090
:1000280092EC33F002C0FBFF01C0FAFF54921100BA
:04003800A0EF32F013
:100F00000042535044205374617465004765617218
:100F1000205368696674004761696E2F4C6F737364
:100F200000416E7469204C6167005761726E696E92
:100F300067004C61756E636800436C75746368008C
:100F40004E6F726D616C0053706565640052616430
:100F5000696F005761746572004572726F72004C60
:100F6000696D69740049646C65004675656C004183
:100F700075746F0042696173005465737400455461
:100F800043004B50480052504D004F696C00545084
:100F90000025002B002D002E0056006B0000FF0ED8
:100FA000116EFF0E126EFF0E136E040E146EE1EC46
:100FB00032F00C0E116EFF0E126EFF0E136EFF0E4E
:100FC000146EE1EC32F04F50196E50501A6E1B6ADD
:100FD0001C6A000E1924046E800E1A20056E100E75
:100FE0001B20066E000E1C20076E010E096EA20E5D
:100FF000086EB9EC33F0020EFAEC33F04F50196E74
:1010000050501A6E1B6A1C6A000E1924046E800E62
:101010001A20056E100E1B20066E000E1C20076E97
:10102000000E096E950E086EB9EC33F0020EFAEC64
:1010300033F04F50196E50501A6E1B6A1C6A000E26
:101040001924046E800E1A20056E100E1B20066EE9
:10105000000E1C20076E000E096E1C0E086EB9EC07
:1010600033F0020EFAEC33F04F50196E50501A6EF6
:101070001B6A1C6A000E1924046E800E1A20056E6D
:10108000100E1B20066E000E1C20076E000E096E4F
:10109000000E086EB9EC33F0020EFAEC33F04F504C
:1010A000196E50501A6E1B6A1C6A000E1924096EC4
:1010B000800E1A200A6E100E1B200B6E000E1C20D4
:1010C0000C6E820E0D6E0F0E0E6ED8EC31F0FAEC37
:1010D00033F00C0E116EFF0E126EFF0E136EFF0E2C
:1010E000146EE1EC32F04F50196E50501A6E1B6ABC
:1010F0001C6A000E1924046E800E1A20056E100E54
:101100001B20066E000E1C20076E010E096E9A0E43
:10111000086EB9EC33F0020EFAEC33F04F50196E52
:1011200050501A6E1B6A1C6A000E1924046E800E41
:101130001A20056E100E1B20066E000E1C20076E76
:10114000000E096EBE0E086EB9EC33F0020EFAEC1A
:1011500033F04F50196E50501A6E1B6A1C6A000E05
:101160001924046E800E1A20056E100E1B20066EC8
:10117000000E1C20076E000E096E1B0E086EB9ECE7
:1011800033F0020EFAEC33F04F50196E50501A6ED5
:101190001B6A1C6A000E1924046E800E1A20056E4C
:1011A000100E1B20066E000E1C20076E060E096E28
:1011B000000E086EB9EC33F0020EFAEC33F04F502B
:1011C000196E50501A6E1B6A1C6A000E1924096EA3
:1011D000800E1A200A6E100E1B200B6E000E1C20B3
:1011E0000C6E170E0D6E0F0E0E6ED8EC31F0FAEC81
:1011F00033F00C0E116EFF0E126EFF0E136EFF0E0B
:10120000146EE1EC32F04F50196E50501A6E1B6A9A
:101210001C6A000E1924046E800E1A20056E100E32
:101220001B20066E000E1C20076E000E096E2F0E8E
:10123000086EB9EC33F0020EFAEC33F04F50196E31
:1012400050501A6E1B6A1C6A000E1924046E800E20
:101250001A20056E100E1B20066E000E1C20076E55
:10126000000E096E2D0E086EB9EC33F0020EFAEC8A
:1012700033F04F50196E50501A6E1B6A1C6A000EE4
:101280001924046E800E1A20056E100E1B20066EA7
:10129000000E1C20076E000E096E1C0E086EB9ECC5
:1012A00033F0020EFAEC33F04F50196E50501A6EB4
:1012B0001B6A1C6A000E1924046E800E1A20056E2B
:1012C000100E1B20066E000E1C20076E060E096E07
:1012D000000E086EB9EC33F0020EFAEC33F04F500A
:1012E000196E50501A6E1B6A1C6A000E1924096E82
:1012F000800E1A200A6E100E1B200B6E000E1C2092
:101300000C6E530E0D6E0F0E0E6ED8EC31F0FAEC23
:1013100033F00C0E116EFF0E126EFF0E136EFF0EE9
:10132000146EE1EC32F04F50196E50501A6E1B6A79
:101330001C6A000E1924046E800E1A20056E100E11
:101340001B20066E000E1C20076E000E096E8B0E11
:10135000086EB9EC33F0020EFAEC33F04F50196E10
:1013600050501A6E1B6A1C6A000E1924046E800EFF
:101370001A20056E100E1B20066E000E1C20076E34
:10138000000E096E2D0E086EB9EC33F0020EFAEC69
:1013900033F04F50196E50501A6E1B6A1C6A000EC3
:1013A0001924046E800E1A20056E100E1B20066E86
:1013B000000E1C20076E000E096E1C0E086EB9ECA4
:1013C00033F0020EFAEC33F04F50196E50501A6E93
:1013D0001B6A1C6A000E1924046E800E1A20056E0A
:1013E000100E1B20066E000E1C20076E060E096EE6
:1013F000000E086EB9EC33F0020EFAEC33F04F50E9
:10140000196E50501A6E1B6A1C6A000E1924096E60
:10141000800E1A200A6E100E1B200B6E000E1C2070
:101420000C6E8A0E0D6E0F0E0E6ED8EC31F0FAECCB
:1014300033F00C0E116EFF0E126EFF0E136EFF0EC8
:10144000146EE1EC32F04F50196E50501A6E1B6A58
:101450001C6A000E1924046E800E1A20056E100EF0
:101460001B20066E000E1C20076E010E096E810EF9
:10147000086EB9EC33F0020EFAEC33F04F50196EEF
:1014800050501A6E1B6A1C6A000E1924046E800EDE
:101490001A20056E100E1B20066E000E1C20076E13
:1014A000000E096E2D0E086EB9EC33F0020EFAEC48
:1014B00033F04F50196E50501A6E1B6A1C6A000EA2
:1014C0001924046E800E1A20056E100E1B20066E65
:1014D000000E1C20076E000E096E1C0E086EB9EC83
:1014E00033F0020EFAEC33F04F50196E50501A6E72
:1014F0001B6A1C6A000E1924046E800E1A20056EE9
:10150000100E1B20066E000E1C20076E060E096EC4
:10151000000E086EB9EC33F0020EFAEC33F04F50C7
:10152000196E50501A6E1B6A1C6A000E1924096E3F
:10153000800E1A200A6E100E1B200B6E000E1C204F
:101540000C6E860E0D6E0F0E0E6ED8EC31F0FAECAE
:1015500033F00C0E116EFF0E126EFF0E136EFF0EA7
:10156000146EE1EC32F04F50196E50501A6E1B6A37
:101570001C6A000E1924046E800E1A20056E100ECF
:101580001B20066E000E1C20076E010E096E810ED8
:10159000086EB9EC33F0020EFAEC33F04F50196ECE
:1015A00050501A6E1B6A1C6A000E1924046E800EBD
:1015B0001A20056E100E1B20066E000E1C20076EF2
:1015C000000E096E780E086EB9EC33F0020EFAECDC
:1015D00033F04F50196E50501A6E1B6A1C6A000E81
:1015E0001924046E800E1A20056E100E1B20066E44
:1015F000000E1C20076E000E096E1C0E086EB9EC62
:1016000033F0020EFAEC33F04F50196E50501A6E50
:101610001B6A1C6A000E1924046E800E1A20056EC7
:10162000100E1B20066E000E1C20076E060E096EA3
:10163000000E086EB9EC33F0020EFAEC33F04F50A6
:10164000196E50501A6E1B6A1C6A000E1924096E1E
:10165000800E1A200A6E100E1B200B6E000E1C202E
:101660000C6E470E0D6E0F0E0E6ED8EC31F0FAECCC
:1016700033F00C0E116EFF0E126EFF0E136EFF0E86
:10168000146EE1EC32F04F50196E50501A6E1B6A16
:101690001C6A000E1924046E800E1A20056E100EAE
:1016A0001B20066E000E1C20076E000E096E410EF8
:1016B000086EB9EC33F0020EFAEC33F04F50196EAD
:1016C00050501A6E1B6A1C6A000E1924046E800E9C
:1016D0001A20056E100E1B20066E000E1C20076ED1
:1016E000000E096EF50E086EB9EC33F0020EFAEC3E
:1016F00033F04F50196E50501A6E1B6A1C6A000E60
:101700001924046E800E1A20056E100E1B20066E22
:10171000000E1C20076E000E096E1C0E086EB9EC40
:1017200033F0020EFAEC33F04F50196E50501A6E2F
:101730001B6A1C6A000E1924046E800E1A20056EA6
:10174000100E1B20066E000E1C20076E000E096E88
:10175000000E086EB9EC33F0020EFAEC33F04F5085
:10176000196E50501A6E1B6A1C6A000E1924096EFD
:10177000800E1A200A6E100E1B200B6E000E1C200D
:101780000C6E740E0D6E0F0E0E6ED8EC31F0FAEC7E
:1017900033F00C0E116EFF0E126EFF0E136EFF0E65
:1017A000146EE1EC32F04F50196E50501A6E1B6AF5
:1017B0001C6A000E1924046E800E1A20056E100E8D
:1017C0001B20066E000E1C20076E000E096E2D0EEB
:1017D000086EB9EC33F0020EFAEC33F04F50196E8C
:1017E00050501A6E1B6A1C6A000E1924046E800E7B
:1017F0001A20056E100E1B20066E000E1C20076EB0
:10180000000E096EF50E086EB9EC33F0020EFAEC1C
:1018100033F04F50196E50501A6E1B6A1C6A000E3E
:101820001924046E800E1A20056E100E1B20066E01
:10183000000E1C20076E000E096E1C0E086EB9EC1F
:1018400033F0020EFAEC33F04F50196E50501A6E0E
:101850001B6A1C6A000E1924046E800E1A20056E85
:10186000100E1B20066E000E1C20076E000E096E67
:10187000000E086EB9EC33F0020EFAEC33F04F5064
:10188000196E50501A6E1B6A1C6A000E1924096EDC
:10189000800E1A200A6E100E1B200B6E000E1C20EC
:1018A0000C6E910E0D6E0F0E0E6ED8EC31F0FAEC40
:1018B00033F00C0E116EFF0E126EFF0E136EFF0E44
:1018C000146EE1EC32F04F50196E50501A6E1B6AD4
:1018D0001C6A000E1924046E800E1A20056E100E6C
:1018E0001B20066E000E1C20076E010E096E720E84
:1018F000086EB9EC33F0020EFAEC33F04F50196E6B
:1019000050501A6E1B6A1C6A000E1924046E800E59
:101910001A20056E100E1B20066E000E1C20076E8E
:10192000000E096EF50E086EB9EC33F0020EFAECFB
:1019300033F04F50196E50501A6E1B6A1C6A000E1D
:101940001924046E800E1A20056E100E1B20066EE0
:10195000000E1C20076E000E096E1C0E086EB9ECFE
:1019600033F0020EFAEC33F04F50196E50501A6EED
:101970001B6A1C6A000E1924046E800E1A20056E64
:10198000100E1B20066E000E1C20076E000E096E46
:10199000000E086EB9EC33F0020EFAEC33F04F5043
:1019A000196E50501A6E1B6A1C6A000E1924096EBB
:1019B000800E1A200A6E100E1B200B6E000E1C20CB
:1019C0000C6E8E0E0D6E0F0E0E6ED8EC31F0FAEC22
:1019D00033F00C0E116EFF0E126EFF0E136EFF0E23
:1019E000146EE1EC32F04F50196E50501A6E1B6AB3
:1019F0001C6A000E1924046E800E1A20056E100E4B
:101A00001B20066E000E1C20076E010E096ECB0E09
:101A1000086EB9EC33F0020EFAEC33F04F50196E49
:101A200050501A6E1B6A1C6A000E1924046E800E38
:101A30001A20056E100E1B20066E000E1C20076E6D
:101A4000000E096EF50E086EB9EC33F0020EFAECDA
:101A500033F04F50196E50501A6E1B6A1C6A000EFC
:101A60001924046E800E1A20056E100E1B20066EBF
:101A7000000E1C20076E000E096E1C0E086EB9ECDD
:101A800033F0020EFAEC33F04F50196E50501A6ECC
:101A90001B6A1C6A000E1924046E800E1A20056E43
:101AA000100E1B20066E000E1C20076E000E096E25
:101AB000000E086EB9EC33F0020EFAEC33F04F5022
:101AC000196E50501A6E1B6A1C6A000E1924096E9A
:101AD000800E1A200A6E100E1B200B6E000E1C20AA
:101AE0000C6E910E0D6E0F0E0E6ED8EC31F0FAECFE
:101AF00033F00C0E116EFF0E126EFF0E136EFF0E02
:101B0000146EE1EC32F04F50196E50501A6E1B6A91
:101B10001C6A000E1924046E800E1A20056E100E29
:101B20001B20066E000E1C20076E000E096E8B0E29
:101B3000086EB9EC33F0020EFAEC33F04F50196E28
:101B400050501A6E1B6A1C6A000E1924046E800E17
:101B50001A20056E100E1B20066E000E1C20076E4C
:101B6000000E096E7D0E086EB9EC33F0020EFAEC31
:101B700033F04F50196E50501A6E1B6A1C6A000EDB
:101B80001924046E800E1A20056E100E1B20066E9E
:101B9000000E1C20076E000E096E1B0E086EB9ECBD
:101BA00033F0020EFAEC33F04F50196E50501A6EAB
:101BB0001B6A1C6A000E1924046E800E1A20056E22
:101BC000100E1B20066E000E1C20076E060E096EFE
:101BD000000E086EB9EC33F0020EFAEC33F04F5001
:101BE000196E50501A6E1B6A1C6A000E1924096E79
:101BF000800E1A200A6E100E1B200B6E000E1C2089
:101C00000C6E7E0E0D6E0F0E0E6ED8EC31F0FAECEF
:101C100033F00C0E116EFF0E126EFF0E136EFF0EE0
:101C2000146EE1EC32F04F50196E50501A6E1B6A70
:101C30001C6A000E1924046E800E1A20056E100E08
:101C40001B20066E000E1C20076E010E096E0E0E84
:101C5000086EB9EC33F0020EFAEC33F04F50196E07
:101C600050501A6E1B6A1C6A000E1924046E800EF6
:101C70001A20056E100E1B20066E000E1C20076E2B
:101C8000000E096EF50E086EB9EC33F0020EFAEC98
:101C900033F04F50196E50501A6E1B6A1C6A000EBA
:101CA0001924046E800E1A20056E100E1B20066E7D
:101CB000000E1C20076E000E096E1C0E086EB9EC9B
:101CC00033F0020EFAEC33F04F50196E50501A6E8A
:101CD0001B6A1C6A000E1924046E800E1A20056E01
:101CE000100E1B20066E000E1C20076E000E096EE3
:101CF000000E086EB9EC33F0020EFAEC33F04F50E0
:101D0000196E50501A6E1B6A1C6A000E1924096E57
:101D1000800E1A200A6E100E1B200B6E000E1C2067
:101D20000C6E990E0D6E0F0E0E6ED8EC31F0FAECB3
:101D300033F00C0E116EFF0E126EFF0E136EFF0EBF
:101D4000146EE1EC32F04F50196E50501A6E1B6A4F
:101D50001C6A000E1924046E800E1A20056E100EE7
:101D60001B20066E000E1C20076E000E096E2F0E43
:101D7000086EB9EC33F0020EFAEC33F04F50196EE6
:101D800050501A6E1B6A1C6A000E1924046E800ED5
:101D90001A20056E100E1B20066E000E1C20076E0A
:101DA000000E096E7D0E086EB9EC33F0020EFAECEF
:101DB00033F04F50196E50501A6E1B6A1C6A000E99
:101DC0001924046E800E1A20056E100E1B20066E5C
:101DD000000E1C20076E000E096E1C0E086EB9EC7A
:101DE00033F0020EFAEC33F04F50196E50501A6E69
:101DF0001B6A1C6A000E1924046E800E1A20056EE0
:101E0000100E1B20066E000E1C20076E060E096EBB
:101E1000000E086EB9EC33F0020EFAEC33F04F50BE
:101E2000196E50501A6E1B6A1C6A000E1924096E36
:101E3000800E1A200A6E100E1B200B6E000E1C2046
:101E40000C6E6A0E0D6E0F0E0E6ED8EC31F0FAECC1
:101E500033F00C0E116EFF0E126EFF0E136EFF0E9E
:101E6000146EE1EC32F04F50196E50501A6E1B6A2E
:101E70001C6A000E1924046E800E1A20056E100EC6
:101E80001B20066E000E1C20076E010E096E0C0E44
:101E9000086EB9EC33F0020EFAEC33F04F50196EC5
:101EA00050501A6E1B6A1C6A000E1924046E800EB4
:101EB0001A20056E100E1B20066E000E1C20076EE9
:101EC000000E096EBE0E086EB9EC33F0020EFAEC8D
:101ED00033F04F50196E50501A6E1B6A1C6A000E78
:101EE0001924046E800E1A20056E100E1B20066E3B
:101EF000000E1C20076E000E096E1B0E086EB9EC5A
:101F000033F0020EFAEC33F04F50196E50501A6E47
:101F10001B6A1C6A000E1924046E800E1A20056EBE
:101F2000100E1B20066E000E1C20076E060E096E9A
:101F3000000E086EB9EC33F0020EFAEC33F04F509D
:101F4000196E50501A6E1B6A1C6A000E1924096E15
:101F5000800E1A200A6E100E1B200B6E000E1C2025
:101F60000C6E010E0D6E0F0E0E6ED8EC31F0FAEC09
:101F700033F0120066D30C0E116EFF0E126EFF0EC0
:101F8000136EFF0E146EE1EC32F04F501B6E50508A
:101F90001C6E1D6A1E6A000E1B24046E800E1C201F
:101FA000056E100E1D20066E000E1E20076E000E20
:101FB000096E8B0E086EB9EC33F0020EFAEC33F0BA
:101FC0004F501B6E50501C6E1D6A1E6A000E1B2463
:101FD000046E800E1C20056E100E1D20066E000E75
:101FE0001E20076E000E096E920E086EB9EC33F0DB
:101FF000020EFAEC33F04F501B6E50501C6E1D6AEF
:102000001E6A000E1B24046E800E1C20056E100E2E
:102010001D20066E000E1E20076E000E096E1B0EA0
:10202000086EB9EC33F0020EFAEC33F04F501B6E31
:1020300050501C6E1D6A1E6A000E1B24046E800E1A
:102040001C20056E100E1D20066E000E1E20076E51
:10205000020E096E000E086EB9EC33F0020EFAECB7
:1020600033F04F501B6E50501C6E1D6A1E6A000EDE
:102070001B24096E800E1C200A6E100E1D200B6E94
:10208000000E1E200C6E650E0D6E0F0E0E6ED8EC3F
:1020900031F0FAEC33F012000C0E116EFF0E126EDE
:1020A000FF0E136EFF0E146EE1EC32F04F501B6EFC
:1020B00050501C6E1D6A1E6A000E1B24046E800E9A
:1020C0001C20056E100E1D20066E000E1E20076ED1
:1020D000000E096E8B0E086EB9EC33F0020EFAECAE
:1020E00033F04F501B6E50501C6E1D6A1E6A000E5E
:1020F0001B24046E800E1C20056E100E1D20066E23
:10210000000E1E20076E000E096E920E086EB9ECCE
:1021100033F0020EFAEC33F04F501B6E50501C6E31
:102120001D6A1E6A000E1B24046E800E1C20056EA4
:10213000100E1D20066E000E1E20076E000E096E8A
:102140001B0E086EB9EC33F0020EFAEC33F04F5070
:102150001B6E50501C6E1D6A1E6A000E1B24046EFE
:10216000800E1C20056E100E1D20066E000E1E2017
:10217000076E020E096E000E086EB9EC33F0020E07
:10218000FAEC33F04F501B6E50501C6E1D6A1E6AE5
:10219000000E1B24096E800E1C200A6E100E1D20DE
:1021A0000B6E000E1E200C6E210E0D6E0F0E0E6EAD
:1021B000D8EC31F0FAEC33F012000C0E116EFF0E79
:1021C000126EFF0E136EFF0E146EE1EC32F04F50E4
:1021D0001B6E50501C6E1D6A1E6A000E1B24046E7E
:1021E000800E1C20056E100E1D20066E000E1E2097
:1021F000076E000E096E8B0E086EB9EC33F0020EFE
:10220000FAEC33F04F501B6E50501C6E1D6A1E6A64
:10221000000E1B24046E800E1C20056E100E1D2067
:10222000066E000E1E20076E000E096E920E086EDE
:10223000B9EC33F0020EFAEC33F04F501B6E5050F5
:102240001C6E1D6A1E6A000E1B24046E800E1C206C
:10225000056E100E1D20066E000E1E20076E000E6D
:10226000096E1B0E086EB9EC33F0020EFAEC33F077
:102270004F501B6E50501C6E1D6A1E6A000E1B24B0
:10228000046E800E1C20056E100E1D20066E000EC2
:102290001E20076E020E096E000E086EB9EC33F0B8
:1022A000020EFAEC33F04F501B6E50501C6E1D6A3C
:1022B0001E6A000E1B24096E800E1C200A6E100E72
:1022C0001D200B6E000E1E200C6E5F0E0D6E0F0E8D
:1022D0000E6ED8EC31F0FAEC33F012000C0E116EE9
:1022E000FF0E126EFF0E136EFF0E146EE1EC32F055
:1022F0004F501B6E50501C6E1D6A1E6A000E1B2430
:10230000046E800E1C20056E100E1D20066E000E41
:102310001E20076E000E096E8B0E086EB9EC33F0AE
:10232000020EFAEC33F04F501B6E50501C6E1D6ABB
:102330001E6A000E1B24046E800E1C20056E100EFB
:102340001D20066E000E1E20076E000E096E920EF6
:10235000086EB9EC33F0020EFAEC33F04F501B6EFE
:1023600050501C6E1D6A1E6A000E1B24046E800EE7
:102370001C20056E100E1D20066E000E1E20076E1E
:10238000000E096E1B0E086EB9EC33F0020EFAEC6B
:1023900033F04F501B6E50501C6E1D6A1E6A000EAB
:1023A0001B24046E800E1C20056E100E1D20066E70
:1023B000000E1E20076E020E096E000E086EB9ECAC
:1023C00033F0020EFAEC33F04F501B6E50501C6E7F
:1023D0001D6A1E6A000E1B24096E800E1C200A6EE8
:1023E000100E1D200B6E000E1E200C6E0C0E0D6EBE
:1023F0000F0E0E6ED8EC31F0FAEC33F012000C0E2A
:10240000116EFF0E126EFF0E136EFF0E146EE1ECD6
:1024100032F04F501B6E50501C6E1D6A1E6A000E2B
:102420001B24046E800E1C20056E100E1D20066EEF
:10243000000E1E20076E000E096E8B0E086EB9ECA2
:1024400033F0020EFAEC33F04F501B6E50501C6EFE
:102450001D6A1E6A000E1B24046E800E1C20056E71
:10246000100E1D20066E000E1E20076E000E096E57
:10247000920E086EB9EC33F0020EFAEC33F04F50C6
:102480001B6E50501C6E1D6A1E6A000E1B24046ECB
:10249000800E1C20056E100E1D20066E000E1E20E4
:1024A000076E000E096E1B0E086EB9EC33F0020EBB
:1024B000FAEC33F04F501B6E50501C6E1D6A1E6AB2
:1024C000000E1B24046E800E1C20056E100E1D20B5
:1024D000066E000E1E20076E020E096E000E086EBC
:1024E000B9EC33F0020EFAEC33F04F501B6E505043
:1024F0001C6E1D6A1E6A000E1B24096E800E1C20B5
:102500000A6E100E1D200B6E000E1E200C6E790E32
:102510000D6E0F0E0E6ED8EC31F0FAEC33F01200A7
:102520000C0E116EFF0E126EFF0E136EFF0E146E68
:10253000E1EC32F04F501B6E50501C6E1D6A1E6A4B
:10254000000E1B24046E800E1C20056E100E1D2034
:10255000066E000E1E20076E000E096E8B0E086EB2
:10256000B9EC33F0020EFAEC33F04F501B6E5050C2
:102570001C6E1D6A1E6A000E1B24046E800E1C2039
:10258000056E100E1D20066E000E1E20076E000E3A
:10259000096E920E086EB9EC33F0020EFAEC33F0CD
:1025A0004F501B6E50501C6E1D6A1E6A000E1B247D
:1025B000046E800E1C20056E100E1D20066E000E8F
:1025C0001E20076E000E096E1B0E086EB9EC33F06C
:1025D000020EFAEC33F04F501B6E50501C6E1D6A09
:1025E0001E6A000E1B24046E800E1C20056E100E49
:1025F0001D20066E000E1E20076E020E096E000ED4
:10260000086EB9EC33F0020EFAEC33F04F501B6E4B
:1026100050501C6E1D6A1E6A000E1B24096E800E2F
:102620001C200A6E100E1D200B6E000E1E200C6E5C
:10263000400E0D6E0F0E0E6ED8EC31F0FAEC33F04A
:10264000120019C01BF01AC01CF01C50000AD8A4BC
:1026500067D71B50010AD8B48ED4030AD8B41CD54E
:10266000010AD8B4AAD5070AD8B438D6010AD8B412
:10267000C6D656D7206E090E116E000E126E000ED1
:10268000136E1F0E146EE1EC32F02050D8B40BD054
:10269000000E116EFF0E126E000E136E040E146EFD
:1026A000E1EC32F00AD03C0E116E3C0E126E3C0E84
:1026B000136E040E146EE1EC32F0000E116E700E0B
:1026C000126E4D0E136E810E146EE1EC32F0000EA0
:1026D000116E600E126E4E0E136E8B0E146EE1ECC8
:1026E00032F01950D8B40BD0000E116EFF0E126EDE
:1026F000000E136E040E146EE1EC32F00AD03C0EA4
:10270000116E3C0E126E3C0E136E040E146EE1EC54
:1027100032F0000E116E700E126E8D0E136E8C0E56
:10272000146EE1EC32F0000E116E600E126E8E0E21
:10273000136E960E146EE1EC32F01A50D8B40BD032
:10274000000E116EFF0E126E000E136E040E146E4C
:10275000E1EC32F00AD03C0E116E3C0E126E3C0ED3
:10276000136E040E146EE1EC32F0000E116EE00EEA
:10277000126E4B0E136E810E146EE1EC32F0000EF1
:10278000116ED00E126E4C0E136E8B0E146EE1ECA9
:1027900032F01B50D8B40BD0000E116EFF0E126E2B
:1027A000000E136E040E146EE1EC32F00AD03C0EF3
:1027B000116E3C0E126E3C0E136E040E146EE1ECA4
:1027C00032F0000E116EE00E126E8B0E136E8C0E38
:1027D000146EE1EC32F0000E116ED00E126E8C0E03
:1027E000136E960E146EE1EC32F02050D8B40BD07C
:1027F000000E116E000E126E000E136E040E146E9B
:10280000E1EC32F00AD0FF0E116EFF0E126EFF0ED9
:10281000136E040E146EE1EC32F00C0E116EFF0E0E
:10282000126EFF0E136EFF0E146EE1EC32F04F507D
:102830001C6E50501D6E1E6A1F6A000E1C24046E12
:10284000800E1D20056E100E1E20066E000E1F202D
:10285000076E000E096E320E086EB9EC33F0020EF0
:10286000FAEC33F04F501C6E50501D6E1E6A1F6AFA
:10287000000E1C24046E800E1D20056E100E1E20FE
:10288000066E000E1F20076E000E096EDE0E086E2B
:10289000B9EC33F0020EFAEC33F04F501C6E50508E
:1028A0001D6E1E6A1F6A000E1C24046E800E1D2001
:1028B000056E100E1E20066E000E1F20076E000E05
:1028C000096E1C0E086EB9EC33F0020EFAEC33F010
:1028D0004F501C6E50501D6E1E6A1F6A000E1C2445
:1028E000046E800E1D20056E100E1E20066E000E5A
:1028F0001F20076E060E096E000E086EB9EC33F04D
:10290000020EFAEC33F04F501C6E50501D6E1E6AD2
:102910001F6A000E1C24096E800E1D200A6E100E08
:102920001E200B6E000E1F200C6E320E0D6E0F0E51
:102930000E6ED8EC31F0FAEC33F01950D8B40BD05D
:10294000000E116E000E126E000E136E040E146E49
:10295000E1EC32F00AD0FF0E116EFF0E126EFF0E88
:10296000136E040E146EE1EC32F00C0E116EFF0EBD
:10297000126EFF0E136EFF0E146EE1EC32F04F502C
:102980001C6E50501D6E1E6A1F6A000E1C24046EC1
:10299000800E1D20056E100E1E20066E000E1F20DC
:1029A000076E000E096E8C0E086EB9EC33F0020E45
:1029B000FAEC33F04F501C6E50501D6E1E6A1F6AA9
:1029C000000E1C24046E800E1D20056E100E1E20AD
:1029D000066E000E1F20076E000E096EDE0E086EDA
:1029E000B9EC33F0020EFAEC33F04F501C6E50503D
:1029F0001D6E1E6A1F6A000E1C24046E800E1D20B0
:102A0000056E100E1E20066E000E1F20076E000EB3
:102A1000096E1C0E086EB9EC33F0020EFAEC33F0BE
:102A20004F501C6E50501D6E1E6A1F6A000E1C24F3
:102A3000046E800E1D20056E100E1E20066E000E08
:102A40001F20076E060E096E000E086EB9EC33F0FB
:102A5000020EFAEC33F04F501C6E50501D6E1E6A81
:102A60001F6A000E1C24096E800E1D200A6E100EB7
:102A70001E200B6E000E1F200C6E6F0E0D6E0F0EC3
:102A80000E6ED8EC31F0FAEC33F01A50D8B40BD00B
:102A9000000E116E000E126E000E136E040E146EF8
:102AA000E1EC32F00AD0FF0E116EFF0E126EFF0E37
:102AB000136E040E146EE1EC32F00C0E116EFF0E6C
:102AC000126EFF0E136EFF0E146EE1EC32F04F50DB
:102AD0001C6E50501D6E1E6A1F6A000E1C24046E70
:102AE000800E1D20056E100E1E20066E000E1F208B
:102AF000076E000E096E320E086EB9EC33F0020E4E
:102B0000FAEC33F04F501C6E50501D6E1E6A1F6A57
:102B1000000E1C24046E800E1D20056E100E1E205B
:102B2000066E000E1F20076E000E096EC50E086EA1
:102B3000B9EC33F0020EFAEC33F04F501C6E5050EB
:102B40001D6E1E6A1F6A000E1C24046E800E1D205E
:102B5000056E100E1E20066E000E1F20076E000E62
:102B6000096E1C0E086EB9EC33F0020EFAEC33F06D
:102B70004F501C6E50501D6E1E6A1F6A000E1C24A2
:102B8000046E800E1D20056E100E1E20066E000EB7
:102B90001F20076E060E096E000E086EB9EC33F0AA
:102BA000020EFAEC33F04F501C6E50501D6E1E6A30
:102BB0001F6A000E1C24096E800E1D200A6E100E66
:102BC0001E200B6E000E1F200C6E390E0D6E0F0EA8
:102BD0000E6ED8EC31F0FAEC33F01B50D8B40BD0B9
:102BE000000E116E000E126E000E136E040E146EA7
:102BF000E1EC32F00AD0FF0E116EFF0E126EFF0EE6
:102C0000136E040E146EE1EC32F00C0E116EFF0E1A
:102C1000126EFF0E136EFF0E146EE1EC32F04F5089
:102C20001C6E50501D6E1E6A1F6A000E1C24046E1E
:102C3000800E1D20056E100E1E20066E000E1F2039
:102C4000076E000E096E8C0E086EB9EC33F0020EA2
:102C5000FAEC33F04F501C6E50501D6E1E6A1F6A06
:102C6000000E1C24046E800E1D20056E100E1E200A
:102C7000066E000E1F20076E000E096EC50E086E50
:102C8000B9EC33F0020EFAEC33F04F501C6E50509A
:102C90001D6E1E6A1F6A000E1C24046E800E1D200D
:102CA000056E100E1E20066E000E1F20076E000E11
:102CB000096E1C0E086EB9EC33F0020EFAEC33F01C
:102CC0004F501C6E50501D6E1E6A1F6A000E1C2451
:102CD000046E800E1D20056E100E1E20066E000E66
:102CE0001F20076E060E096E000E086EB9EC33F059
:102CF000020EFAEC33F04F501C6E50501D6E1E6ADF
:102D00001F6A000E1C24096E800E1D200A6E100E14
:102D10001E200B6E000E1F200C6E4D0E0D6E0F0E42
:102D20000E6ED8EC31F0FAEC33F0120020EED4F055
:102D300010EE9BF0150EDBCFE3FFE806FCE2000E81
:102D40000001766F000E836F20EEB1F010EE60F0A0
:102D5000130EDBCFE3FFE806FCE2000E986F000ED7
:102D6000976F000E796F000E786F000E936F000E54
:102D7000926F000E9A6F000E996F000E856F000E15
:102D8000846F000E876F000E866F000E896F000E35
:102D9000886F000E8B6F000E8A6F000E8D6F000E15
:102DA0008C6F000E7B6F000E7A6F000E756F000E39
:102DB000746F000E8F6F000E8E6F000E916F000EFD
:102DC000906F000E826F000E816F000E966F000EE6
:102DD000956F000E7D6F000E7C6F000E946F08ECF7
:102DE00034F0DCEC33F07080708A709E708C608AF6
:102DF000609C609476907692779A779CC80E0E01CC
:102E0000E86F400EE96FFE0EF86F1F0EF96FFE0EB1
:102E1000FC6F110EFD6FC79EC78CC68AC688C65050
:102E2000F00B0209C66E26EC28F008EC34F0C65010
:102E3000F00B0109C66E97C02DF098C02EF078C037
:102E40002FF079C030F08EC031F08FC032F092C0D8
:102E500033F093C034F099C035F09AC036F095C085
:102E600037F096C038F090C039F091C03AF084C085
:102E70003BF085C03CF086C03DF087C03EF088C086
:102E80003FF089C040F08AC041F08BC042F08CC056
:102E900043F08DC044F010EC31F0B80E036E680EB4
:102EA000046E52EC34F060EC34F0F28EF28CC60E0C
:102EB000166E000E176EDFEC2AF00009D8B442D16E
:102EC000400E0001C71939E1060EC819C911CA110F
:102ED000D8A433D0CD51CCC045F0466A45C046F0A9
:102EE000456A4510976F4650986FCF51CEC045F058
:102EF000466A45C046F0456A4510036E4650046E6A
:102F0000000E066E0A0E056E96EC31F003C078F0E6
:102F100004C079F00001D151D0C045F0466A45C0E7
:102F200046F0456A45108E6F46508F6FD2C099F0BB
:102F30009A6BD3C084F0856B05D1410EC71923E18C
:102F4000060EC819C911CA11D8A41DD0CD51CCC0C4
:102F500045F0466A45C046F0456A4510036E465046
:102F6000046E000E066E0A0E056E96EC31F003C07C
:102F70007CF004C07DF0D2C086F00001876BD3C026
:102F80007AF07B6BDFD0420EC71910E1060EC8192C
:102F9000C911CA11D8A40AD0CCC088F0896BCDC0A1
:102FA0008AF08B6BCEC08CF08D6BCCD0430EC719E2
:102FB00050E1060EC819C911CA11D8A44AD0CC458F
:102FC000010BD8B402D0010E01D0000E836FCCC02B
:102FD00045F0060E466ED8904532462EFCD745A0E9
:102FE00002D0010E01D0000E776FCCC045F0D89012
:102FF0004532D8904532D8904532070E4516455097
:10300000906F916B456ACDAF01D0452A45A002D0A3
:10301000010E01D0000E7E6FCDC045F0060E466E4B
:10302000D8904532462EFCD745A002D0010E01D0E3
:10303000000E7F6FCDC045F0050E466ED89045322C
:10304000462EFCD745A002D0010E01D0000E806FA5
:1030500079D0440EC71976E1060EC819C911CA11F4
:10306000D8A470D0CD51CCC045F0466A45C046F0DA
:10307000456A4510A36F4650A46FCF51CEC045F0AE
:10308000466A45C046F0456A45109B6F46509C6FA6
:10309000D151D0C045F0466A45C046F0456A45105A
:1030A0009D6F46509E6FA3C003F0A4C004F0000EB5
:1030B000066E640E056E96EC31F003C0A5F004C0F8
:1030C000A6F0A3C00BF0A4C00CF0000E0E6E640EB0
:1030D0000D6E14EC32F00BC0A7F00CC0A8F09BC032
:1030E00003F09CC004F0000E066E640E056E96ECB4
:1030F00031F003C09FF004C0A0F09BC00BF09CC057
:103100000CF0000E0E6E640E0D6E14EC32F00BC05F
:10311000A1F00CC0A2F00001A9519B5D9C51800A56
:10312000456EAA51800A4558D8B00CD09BC0A9F072
:103130009CC0AAF09FC0ADF0A0C0AEF0A1C0AFF09F
:10314000A2C0B0F00001C551D8B4B1D69451D8A4F2
:1031500038D09ABF2DD09A5104E1160E995DD8A0AF
:1031600027D0EC0E116E510E126EB80E136E3F0E7C
:10317000146E7CC003F07DC004F0000E04BEFF0E90
:10318000056E066E010E96EC2CF003C015F004C01F
:1031900016F005C017F006C018F0CAEC2DF0D8B034
:1031A00007D00001814B822B000E966F010E08D0D4
:1031B000000E0001826F000E816F000E966F000EF0
:1031C000956F82BF08D0825104E1210E815DD8A0A5
:1031D00002D0010E946F9451D8B404D0000E966FB3
:1031E000020E956F98BF12D0E90E975D030E9859A5
:1031F000D8A00CD08FBF06D0400E8E5D010E8F5927
:10320000D8B004D0000E936F000E03D0000E936F61
:10321000010E926F01EC33F0CFEC07F054EC1FF08D
:103220008CC01FF08DC020F099C021F09AC022F010
:10323000C7EC30F097C019F098C01AF06FEC1CF092
:1032400084C019F085C01AF0E6EC2EF088C019F0A1
:1032500089C01AF05AEC2EF08AC019F08BC01AF00F
:1032600072EC2FF090C019F091C01AF0BAEC0FF088
:103270007AC019F07BC01AF036EC2DF095C019F029
:1032800096C01AF090EC24F086C019F087C01AF0AE
:103290001BEC22F092C019F093C01AF0A5EC29F0B3
:1032A0007FC019F080C01AF083C01BF000017E516E
:1032B0003AEC13F09FC019F0A0C01AF0A1C01BF0A7
:1032C000A2C01CF0ADC01DF0AEC01EF0AFC01FF01C
:1032D000B0C020F0A5C021F0A6C022F0A7C023F006
:1032E000A8C024F09DC025F09EC026F0ABC027F0FA
:1032F000ACC028F084EC19F07DEC32F0000E000137
:10330000C56F4DEC34F0D3D51DC029F01EC02AF096
:10331000291E2A1E294A2A2A215029242F6E22508A
:103320002A20306E1FC029F020C02AF0291E2A1E34
:10333000294A2A2A235029242D6E24502A202E6E11
:1033400030BEA0D0305003E12F04D8A09BD0000E97
:10335000116E000E126EFF0E136E040E146EE1EC71
:1033600032F00C0E116EFF0E126EFF0E136EFF0E7A
:10337000146EE1EC32F04F50296E50502A6E2B6AD9
:103380002C6A000E2924046E800E2A20056E100E71
:103390002B20066E000E2C20076E010E096E6A0EA1
:1033A000086EB9EC33F0020EFAEC33F04F50296E90
:1033B00050502A6E2B6A2C6A000E2924046E800E4F
:1033C0002A20056E100E2B20066E000E2C20076E94
:1033D000000E096EC30E086EB9EC33F0020EFAEC63
:1033E00033F04F50296E50502A6E2B6A2C6A000E13
:1033F0002924046E800E2A20056E100E2B20066EE6
:10340000000E2C20076E000E096E1E0E086EB9EC21
:1034100033F0020EFAEC33F04F50296E50502A6E02
:103420002B6A2C6A000E2924046E800E2A20056E59
:10343000100E2B20066E000E2C20076E000E096E5B
:10344000000E086EB9EC33F0020EFAEC33F04F5078
:10345000296E50502A6E2B6A2C6A000E2924096EA0
:10346000800E2A200A6E100E2B200B6E000E2C20D0
:103470000C6E930E0D6E0F0E0E6ED8EC31F0FAEC52
:1034800033F09AD0000E116EFF0E126E000E136E06
:10349000040E146EE1EC32F00C0E116EFF0E126E83
:1034A000FF0E136EFF0E146EE1EC32F04F50296EDA
:1034B00050502A6E2B6A2C6A000E2924046E800E4E
:1034C0002A20056E100E2B20066E000E2C20076E93
:1034D000010E096E6A0E086EB9EC33F0020EFAECBA
:1034E00033F04F50296E50502A6E2B6A2C6A000E12
:1034F0002924046E800E2A20056E100E2B20066EE5
:10350000000E2C20076E000E096EC30E086EB9EC7B
:1035100033F0020EFAEC33F04F50296E50502A6E01
:103520002B6A2C6A000E2924046E800E2A20056E58
:10353000100E2B20066E000E2C20076E000E096E5A
:103540001E0E086EB9EC33F0020EFAEC33F04F5059
:10355000296E50502A6E2B6A2C6A000E2924046EA4
:10356000800E2A20056E100E2B20066E000E2C20D9
:10357000076E000E096E000E086EB9EC33F0020EF5
:10358000FAEC33F04F50296E50502A6E2B6A2C6A99
:10359000000E2924096E800E2A200A6E100E2B20A0
:1035A0000B6E000E2C200C6E950E0D6E0F0E0E6E17
:1035B000D8EC31F0FAEC33F00C0E116EFF0E126EF7
:1035C000FF0E136EFF0E146EE1EC32F04F50296EB9
:1035D00050502A6E2B6A2C6A000E2924046E800E2D
:1035E0002A20056E100E2B20066E000E2C20076E72
:1035F000010E096E9F0E086EB9EC33F0020EFAEC64
:1036000033F04F50296E50502A6E2B6A2C6A000EF0
:103610002924046E800E2A20056E100E2B20066EC3
:10362000000E2C20076E000E096EC30E086EB9EC5A
:1036300033F0020EFAEC33F04F50296E50502A6EE0
:103640002B6A2C6A000E2924046E800E2A20056E37
:10365000100E2B20066E000E2C20076E000E096E39
:103660001E0E086EB9EC33F0020EFAEC33F04F5038
:10367000296E50502A6E2B6A2C6A000E2924046E83
:10368000800E2A20056E100E2B20066E000E2C20B8
:10369000076E000E096E000E086EB9EC33F0020ED4
:1036A000FAEC33F04F50296E50502A6E2B6A2C6A78
:1036B000000E2924096E800E2A200A6E100E2B207F
:1036C0000B6E000E2C200C6E970E0D6E0F0E0E6EF4
:1036D000D8EC31F0FAEC33F02E0E116EFF0E126EB4
:1036E000FF0E136EFF0E146EE1EC32F04F50296E98
:1036F00050502A6E2B6A2C6A000E2924046E800E0C
:103700002A20056E100E2B20066E000E2C20076E50
:10371000010E096E9A0E086EB9EC33F0020EFAEC47
:1037200033F04F50296E50502A6E2B6A2C6A000ECF
:103730002924046E800E2A20056E100E2B20066EA2
:10374000000E2C20076E000E096EC30E086EB9EC39
:1037500033F0020EFAEC33F04F50296E50502A6EBF
:103760002B6A2C6A000E2924046E800E2A20056E16
:10377000100E2B20066E000E2C20076E000E096E18
:103780001E0E086EB9EC33F0020EFAEC33F04F5017
:10379000296E50502A6E2B6A2C6A000E2924046E62
:1037A000800E2A20056E100E2B20066E000E2C2097
:1037B000076E080E096E000E086EB9EC33F0020EAB
:1037C000FAEC33F02FC011F030C012F0000E12BE30
:1037D000FF0E136E146EE1EC32F02E0E116EFF0E22
:1037E000126EFF0E136EFF0E146EE1EC32F04F50AE
:1037F000296E50502A6E2B6A2C6A000E2924046E02
:10380000800E2A20056E100E2B20066E000E2C2036
:10381000076E010E096EA90E086EB9EC33F0020EA8
:10382000FAEC33F04F50296E50502A6E2B6A2C6AF6
:10383000000E2924046E800E2A20056E100E2B2007
:10384000066E000E2C20076E000E096EC30E086E69
:10385000B9EC33F0020EFAEC33F04F50296E5050B1
:103860002A6E2B6A2C6A000E2924046E800E2A20F0
:10387000056E100E2B20066E000E2C20076E000E1B
:10388000096E1E0E086EB9EC33F0020EFAEC33F03E
:103890004F50296E50502A6E2B6A2C6A000E292434
:1038A000046E800E2A20056E100E2B20066E000E70
:1038B0002C20076E000E096E000E086EB9EC33F076
:1038C000020EFAEC33F02DC011F02EC012F0000EF3
:1038D00012BEFF0E136E146EE1EC32F0120019C02E
:1038E00003F01AC004F0030E066EE80E056E96ECA7
:1038F00031F003C023F004C024F0000E066E640E05
:10390000056E19C003F01AC004F096EC31F003C044
:103910000BF004C00CF0000E0E6E0A0E0D6E14ECCF
:1039200032F00BC025F00CC026F0020E286E910E6E
:10393000276E19C003F01AC004F027C005F028C094
:1039400006F096EC31F003C029F004C02AF02E0EE8
:10395000116EFF0E126EFF0E136EFF0E146EE1EC71
:1039600032F04F501B6E50501C6E1D6A1E6A000EC6
:103970001B24046E800E1C20056E100E1D20066E8A
:10398000000E1E20076E010E096E7C0E086EB9EC4B
:1039900033F0020EFAEC33F04F501B6E50501C6E99
:1039A0001D6A1E6A000E1B24046E800E1C20056E0C
:1039B000100E1D20066E000E1E20076E000E096EF2
:1039C000370E086EB9EC33F0020EFAEC33F04F50BC
:1039D0001B6E50501C6E1D6A1E6A000E1B24046E66
:1039E000800E1C20056E100E1D20066E000E1E207F
:1039F000076E000E096E1F0E086EB9EC33F0020E52
:103A0000FAEC33F04F501B6E50501C6E1D6A1E6A4C
:103A1000000E1B24046E800E1C20056E100E1D204F
:103A2000066E000E1E20076E080E096E000E086E50
:103A3000B9EC33F0020EFAEC33F023C011F024C0DD
:103A400012F0000E12BEFF0E136E146EE1EC32F097
:103A50002E0E116EFF0E126EFF0E136EFF0E146E01
:103A6000E1EC32F04F501B6E50501C6E1D6A1E6A06
:103A7000000E1B24046E800E1C20056E100E1D20EF
:103A8000066E000E1E20076E010E096E8D0E086E6A
:103A9000B9EC33F0020EFAEC33F04F501B6E50507D
:103AA0001C6E1D6A1E6A000E1B24046E800E1C20F4
:103AB000056E100E1D20066E000E1E20076E000EF5
:103AC000096E370E086EB9EC33F0020EFAEC33F0E3
:103AD0004F501B6E50501C6E1D6A1E6A000E1B2438
:103AE000046E800E1C20056E100E1D20066E000E4A
:103AF0001E20076E000E096E1F0E086EB9EC33F023
:103B0000020EFAEC33F04F501B6E50501C6E1D6AC3
:103B10001E6A000E1B24046E800E1C20056E100E03
:103B20001D20066E000E1E20076E000E096E000E90
:103B3000086EB9EC33F0020EFAEC33F025C011F048
:103B400026C012F0000E12BEFF0E136E146EE1ECD2
:103B500032F00C0E116EFF0E126EFF0E136EFF0E82
:103B6000146EE1EC32F04F501B6E50501C6E1D6A0B
:103B70001E6A000E1B24046E800E1C20056E100EA3
:103B80001D20066E000E1E20076E010E096E7C0EB3
:103B9000086EB9EC33F0020EFAEC33F04F501B6EA6
:103BA00050501C6E1D6A1E6A000E1B24046E800E8F
:103BB0001C20056E100E1D20066E000E1E20076EC6
:103BC000000E096E370E086EB9EC33F0020EFAECF7
:103BD00033F04F501B6E50501C6E1D6A1E6A000E53
:103BE0001B24046E800E1C20056E100E1D20066E18
:103BF000000E1E20076E000E096E1F0E086EB9EC37
:103C000033F0020EFAEC33F04F501B6E50501C6E26
:103C10001D6A1E6A000E1B24046E800E1C20056E99
:103C2000100E1D20066E000E1E20076E000E096E7F
:103C3000000E086EB9EC33F0020EFAEC33F04F5080
:103C40001B6E50501C6E1D6A1E6A000E1B24096EEE
:103C5000800E1C200A6E100E1D200B6E000E1E2002
:103C60000C6E970E0D6E0F0E0E6ED8EC31F0FAEC56
:103C700033F00C0E116EFF0E126EFF0E136EFF0E60
:103C8000146EE1EC32F04F501B6E50501C6E1D6AEA
:103C90001E6A000E1B24046E800E1C20056E100E82
:103CA0001D20066E000E1E20076E010E096EA90E65
:103CB000086EB9EC33F0020EFAEC33F04F501B6E85
:103CC00050501C6E1D6A1E6A000E1B24046E800E6E
:103CD0001C20056E100E1D20066E000E1E20076EA5
:103CE000000E096E4A0E086EB9EC33F0020EFAECC3
:103CF00033F04F501B6E50501C6E1D6A1E6A000E32
:103D00001B24046E800E1C20056E100E1D20066EF6
:103D1000000E1E20076E000E096E1C0E086EB9EC18
:103D200033F0020EFAEC33F04F501B6E50501C6E05
:103D30001D6A1E6A000E1B24046E800E1C20056E78
:103D4000100E1D20066E000E1E20076E000E096E5E
:103D5000000E086EB9EC33F0020EFAEC33F04F505F
:103D60001B6E50501C6E1D6A1E6A000E1B24096ECD
:103D7000800E1C200A6E100E1D200B6E000E1E20E1
:103D80000C6E9B0E0D6E0F0E0E6ED8EC31F0FAEC31
:103D900033F0020E116E000E126E000E136E1F0E27
:103DA000146EE1EC32F0960E116E000E126E000EE3
:103DB000136E0D0E146EE1EC32F0000E116EFF0E5C
:103DC000126E000E136E040E146EE1EC32F0000E53
:103DD0002C6E000E2B6E5DD02CBE10D02C5004E14A
:103DE0000A0E2B5CD8A00AD0000E116EFF0E126EC8
:103DF000FF0E136E040E146EE1EC32F02CBE10D0E8
:103E00002C5004E10F0E2B5CD8A00AD0000E116ECE
:103E1000000E126EFF0E136E040E146EE1EC32F003
:103E20002BC003F02CC004F0000E066E190E056EB8
:103E3000A6EC33F00F0E03241B6E000E04201C6E44
:103E40001D6A1CBE1D061D501E6EFF0E1B141F6E2C
:103E5000010E1C14206E000E1D14216E000E1E1487
:103E6000226E150ED8901F36203621362236E82EC7
:103E7000F9D7000E1F10116E400E2010126E010EA9
:103E80002110136E800E2210146EE1EC32F02B4ADA
:103E90002C2A29502B5C2C50800A1B6E2A50800A39
:103EA0001B58D8B0120098D7040E116E000E126E77
:103EB000000E136E1F0E146EE1EC32F00A0E116E3E
:103EC000000E126E000E136E0E0E146EE1EC32F048
:103ED000000E116ED00E126EE20E136E810E146E75
:103EE000E1EC32F0000E116ED00E126EA20E136EC7
:103EF000800E146EE1EC32F0000E116EE00E126EC8
:103F0000A60E136E800E146EE1EC32F0000E116EF0
:103F1000E00E126E460E136E8B0E146EE1EC32F054
:103F2000000E116ED00E126E420E136E8B0E146EBA
:103F3000E1EC32F0000E116ED00E126E020E136E16
:103F40008A0E146EE1EC32F0000E116E000E126E4D
:103F5000000E136E210E146EE1EC32F0040E116EA1
:103F6000000E126E000E136E1F0E146EE1EC32F096
:103F7000000E116ED00E126E620E136E8F0E146E46
:103F8000E1EC32F0000E116ED00E126E420E136E86
:103F90008C0E146EE1EC32F0000E116EE00E126E1B
:103FA000460E136E8C0E146EE1EC32F0000E116EA4
:103FB000E00E126E860E136E960E146EE1EC32F069
:103FC000000E116ED00E126E820E136E960E146ECF
:103FD000E1EC32F0000E116ED00E126E620E136E16
:103FE000930E146EE1EC32F0000E116E000E126EA4
:103FF000000E136E210E146EE1EC32F0040E116E01
:10400000000E126E000E136E1F0E146EE1EC32F0F5
:104010000A0E116E000E126E000E136E0E0E146E4E
:10402000E1EC32F0000E116ED00E126E870E136EA0
:10403000820E146EE1EC32F0000E116ED00E126E94
:10404000A70E136E800E146EE1EC32F0000E116EAE
:10405000400E126EAB0E136E800E146EE1EC32F059
:10406000000E116E400E126E4B0E136E8B0E146E00
:10407000E1EC32F0000E116ED00E126E470E136E90
:104080008B0E146EE1EC32F0000E116ED00E126E3B
:10409000070E136E8A0E146EE1EC32F0000E116EF4
:1040A000000E126E000E136E210E146EE1EC32F053
:1040B000040E116E000E126E000E136E1F0E146EA3
:1040C000E1EC32F00A0E116E000E126E000E136E4D
:1040D0000E0E146EE1EC32F0000E116ED00E126E68
:1040E000070E136E8F0E146EE1EC32F0000E116E9F
:1040F000D00E126E470E136E8C0E146EE1EC32F081
:10410000000E116E400E126E4B0E136E8C0E146E5E
:10411000E1EC32F0000E116E400E126E8B0E136E3B
:10412000960E146EE1EC32F0000E116ED00E126E8F
:10413000870E136E960E146EE1EC32F0000E116EC7
:10414000D00E126EC70E136E930E146EE1EC32F0A9
:10415000000E116E000E126E000E136E210E146E04
:10416000E1EC32F0040E116E000E126E000E136EB2
:104170001F0E146EE1EC32F00A0E116E000E126E7C
:10418000000E136E0E0E146EE1EC32F0000E116E86
:10419000D00E126E020E136EAD0E146EE1EC32F004
:1041A000000E116ED00E126E820E136EA50E146EDE
:1041B000E1EC32F0000E116E900E126E860E136E50
:1041C000A50E146EE1EC32F0000E116E900E126E20
:1041D000C60E136EBA0E146EE1EC32F0000E116EC4
:1041E000D00E126EC20E136EBA0E146EE1EC32F0E7
:1041F000000E116ED00E126E420E136EB30E146EC0
:10420000E1EC32F0000E116E000E126E000E136E15
:10421000210E146EE1EC32F0040E116E000E126EDF
:10422000000E136E1F0E146EE1EC32F00A0E116ECA
:10423000000E126E000E136E0E0E146EE1EC32F0D4
:10424000000E116E800E126EC70E136EAB0E146E42
:10425000E1EC32F0000E116E800E126E870E136EBE
:10426000A50E146EE1EC32F0000E116E400E126ECF
:104270008B0E136EA50E146EE1EC32F0000E116E73
:10428000400E126ECB0E136EBA0E146EE1EC32F0CD
:10429000000E116E800E126EC70E136EBA0E146EE3
:1042A000E1EC32F0000E116E800E126E870E136E6E
:1042B000B40E146EE1EC32F0000E116E000E126EB0
:1042C000000E136E210E146EE1EC32F0040E116E2E
:1042D000000E126E000E136E1F0E146EE1EC32F023
:1042E0000A0E116E000E126E000E136E0E0E146E7C
:1042F000E1EC32F0000E116EE00E126E8B0E136EBA
:104300009B0E146EE1EC32F0000E116EE00E126E98
:10431000CB0E136E970E146EE1EC32F0000E116EA0
:10432000600E126ECE0E136E970E146EE1EC32F02C
:10433000000E116E600E126E2E0E136EAB0E146E0A
:10434000E1EC32F0000E116EE00E126E2B0E136EC9
:10435000AB0E146EE1EC32F0000E116EE00E126E38
:104360006B0E136EA70E146EE1EC32F0000E116EA0
:10437000000E126E000E136E210E146EE1EC32F080
:10438000040E116E000E126E000E136E1F0E146ED0
:10439000E1EC32F00A0E116E000E126E000E136E7A
:1043A0000E0E146EE1EC32F0000E116EE00E126E85
:1043B000AB0E136EAD0E146EE1EC32F0000E116E0A
:1043C000E00E126E6B0E136EAC0E146EE1EC32F05A
:1043D000000E116E600E126E6E0E136EAC0E146E29
:1043E000E1EC32F0000E116E600E126E2E0E136EA6
:1043F000BA0E146EE1EC32F0000E116EE00E126E89
:104400002B0E136EBA0E146EE1EC32F0000E116E2C
:10441000E00E126EEB0E136EB80E146EE1EC32F07D
:10442000000E116E000E126E000E136E210E146E31
:10443000E1EC32F01200600E116E000E126E000EF2
:10444000136E0E0E146EE1EC32F0000E116E7D0E46
:10445000126ECA0E136E040E146EE1EC32F0030EEF
:10446000116E000E126E000E136E1F0E146EE1EC34
:1044700032F037D2000E116ED00E126E020E136E95
:10448000990E146EE1EC32F0000E116E500E126EA9
:104490000A0E136E990E146EE1EC32F0000E116EDE
:1044A000D00E126E020E136E990E146EE1EC32F005
:1044B000000E116E500E126E0A0E136EA30E146EC5
:1044C000E1EC32F0000E116E500E126E0A0E136EF9
:1044D000A30E146EE1EC32F0000E116ED00E126ECF
:1044E000020E136EA30E146EE1EC32F01200000EF9
:1044F000116ED00E126E020E136E9E0E146EE1EC53
:1045000032F0000E116E400E126E0A0E136E9E0EE9
:10451000146EE1EC32F0000E116ED00E126EE20E4F
:10452000136E9D0E146EE1EC32F0000E116E700EE3
:10453000126E830E136E9B0E146EE1EC32F0000EC1
:10454000116E500E126E8A0E136E9B0E146EE1ECFD
:1045500032F0000E116E500E126E0A0E136E9E0E89
:10456000146EE1EC32F01200000E116ED00E126EDD
:10457000020E136E990E146EE1EC32F0000E116E05
:10458000D00E126E020E136EA30E146EE1EC32F01A
:10459000000E116EE00E126E020E136EA30E146E5C
:1045A000E1EC32F0000E116E800E126E060E136EEC
:1045B000A30E146EE1EC32F0000E116E900E126E2E
:1045C000E60E136EA20E146EE1EC32F0000E116EC8
:1045D000900E126E060E136E990E146EE1EC32F010
:1045E000000E116EA00E126E060E136E990E146E52
:1045F000E1EC32F0000E116E500E126E0A0E136EC8
:10460000990E146EE1EC32F0000E116E500E126E27
:104610002A0E136E990E146EE1EC32F0000E116E3C
:10462000500E126E0A0E136EA30E146EE1EC32F0F1
:104630001200000E116ED00E126E020E136E990E45
:10464000146EE1EC32F0000E116ED00E126EE20E1E
:10465000136EA20E146EE1EC32F0000E116ED00E4D
:10466000126E020E136EA30E146EE1EC32F0000E09
:10467000116E500E126E0A0E136EA30E146EE1EC44
:1046800032F0000E116E900E126EE60E136EA20E38
:10469000146EE1EC32F0000E116E900E126E060EEA
:1046A000136E990E146EE1EC32F0000E116E500E86
:1046B000126E0A0E136E990E146EE1EC32F0000EBB
:1046C000116E500E126EEA0E136EA20E146EE1EC15
:1046D00032F01200000E116ED00E126E020E136E2A
:1046E000990E146EE1EC32F0000E116E800E126E17
:1046F000060E136E990E146EE1EC32F0000E116E80
:10470000D00E126E020E136EA30E146EE1EC32F098
:10471000000E116E500E126E0A0E136EA30E146E62
:10472000E1EC32F0000E116E900E126EE60E136E7A
:10473000A20E146EE1EC32F0000E116E900E126EAD
:10474000260E136E990E146EE1EC32F01200000E7C
:10475000116ED00E126E020E136E990E146EE1ECF5
:1047600032F0000E116ED00E126E020E136EA30EFA
:10477000146EE1EC32F0000E116EE00E126E020EBD
:10478000136E990E146EE1EC32F0000E116E800E75
:10479000126E060E136E990E146EE1EC32F0000EDE
:1047A000116E900E126EE60E136EA20E146EE1ECF8
:1047B00032F0000E116E900E126E060E136E990EF0
:1047C000146EE1EC32F0000E116EA00E126E060EA9
:1047D000136EA30E146EE1EC32F0000E116E400E5B
:1047E000126E0A0E136EA30E146EE1EC32F0000E80
:1047F000116E500E126E2A0E136E990E146EE1ECAD
:1048000032F0000E116E500E126E0A0E136EA30ED1
:10481000146EE1EC32F01200000E116ED00E126E2A
:10482000220E136E990E146EE1EC32F0000E116E32
:10483000D00E126E020E136EA30E146EE1EC32F067
:10484000000E116EE00E126E020E136E990E146EB3
:10485000E1EC32F0000E116E400E126E0A0E136E75
:10486000990E146EE1EC32F0000E116E900E126E85
:10487000260E136E990E146EE1EC32F0000E116EDE
:10488000900E126E060E136EA30E146EE1EC32F053
:10489000000E116EA00E126E060E136EA30E146E95
:1048A000E1EC32F0000E116E400E126E0A0E136E25
:1048B000A30E146EE1EC32F0000E116E500E126E6B
:1048C0000A0E136E990E146EE1EC32F0000E116EAA
:1048D000500E126EEA0E136EA20E146EE1EC32F060
:1048E000120019C01BF01AC01CF01C50000AD8A4FA
:1048F00012001B50000AD8B4BDD5010AD8B4F7D5B0
:10490000030AD8B431D6010AD8B493D6070AD8B46A
:10491000E1D6010AD8B41BD7030AD8A412007CD769
:10492000D1D1000E116EFF0E126E000E136E040E2A
:10493000146EE1EC32F00C0E116EFF0E126EFF0ED3
:10494000136EFF0E146EE1EC32F04F501B6E5050A0
:104950001C6E1D6A1E6A000E1B24046E800E1C2035
:10496000056E100E1D20066E000E1E20076E010E35
:10497000096E0C0E086EB9EC33F0020EFAEC33F04F
:104980004F501B6E50501C6E1D6A1E6A000E1B2479
:10499000046E800E1C20056E100E1D20066E000E8B
:1049A0001E20076E000E096ED40E086EB9EC33F0AF
:1049B000020EFAEC33F04F501B6E50501C6E1D6A05
:1049C0001E6A000E1B24046E800E1C20056E100E45
:1049D0001D20066E000E1E20076E000E096E1C0EB6
:1049E000086EB9EC33F0020EFAEC33F04F501B6E48
:1049F00050501C6E1D6A1E6A000E1B24046E800E31
:104A00001C20056E100E1D20066E000E1E20076E67
:104A1000060E096E000E086EB9EC33F0020EFAECC9
:104A200033F04F501B6E50501C6E1D6A1E6A000EF4
:104A30001B24096E800E1C200A6E100E1D200B6EAA
:104A4000000E1E200C6E400E0D6E0F0E0E6ED8EC7A
:104A500031F0FAEC33F01200000E116EFF0E126E00
:104A6000FF0E136E040E146EE1EC32F00C0E116E9C
:104A7000FF0E126EFF0E136EFF0E146EE1EC32F09D
:104A80004F501B6E50501C6E1D6A1E6A000E1B2478
:104A9000046E800E1C20056E100E1D20066E000E8A
:104AA0001E20076E010E096E0C0E086EB9EC33F075
:104AB000020EFAEC33F04F501B6E50501C6E1D6A04
:104AC0001E6A000E1B24046E800E1C20056E100E44
:104AD0001D20066E000E1E20076E000E096ED40EFD
:104AE000086EB9EC33F0020EFAEC33F04F501B6E47
:104AF00050501C6E1D6A1E6A000E1B24046E800E30
:104B00001C20056E100E1D20066E000E1E20076E66
:104B1000000E096E1C0E086EB9EC33F0020EFAECB2
:104B200033F04F501B6E50501C6E1D6A1E6A000EF3
:104B30001B24046E800E1C20056E100E1D20066EB8
:104B4000000E1E20076E060E096E000E086EB9ECF0
:104B500033F0020EFAEC33F04F501B6E50501C6EC7
:104B60001D6A1E6A000E1B24096E800E1C200A6E30
:104B7000100E1D200B6E000E1E200C6E2A0E0D6EE8
:104B80000F0E0E6ED8EC31F0FAEC33F01200000E7E
:104B9000116E000E126EFF0E136E040E146EE1EC19
:104BA00032F00C0E116EFF0E126EFF0E136EFF0E22
:104BB000146EE1EC32F04F501B6E50501C6E1D6AAB
:104BC0001E6A000E1B24046E800E1C20056E100E43
:104BD0001D20066E000E1E20076E010E096E0C0EC3
:104BE000086EB9EC33F0020EFAEC33F04F501B6E46
:104BF00050501C6E1D6A1E6A000E1B24046E800E2F
:104C00001C20056E100E1D20066E000E1E20076E65
:104C1000000E096ED40E086EB9EC33F0020EFAECF9
:104C200033F04F501B6E50501C6E1D6A1E6A000EF2
:104C30001B24046E800E1C20056E100E1D20066EB7
:104C4000000E1E20076E000E096E1C0E086EB9ECD9
:104C500033F0020EFAEC33F04F501B6E50501C6EC6
:104C60001D6A1E6A000E1B24046E800E1C20056E39
:104C7000100E1D20066E000E1E20076E060E096E19
:104C8000000E086EB9EC33F0020EFAEC33F04F5020
:104C90001B6E50501C6E1D6A1E6A000E1B24096E8E
:104CA000800E1C200A6E100E1D200B6E000E1E20A2
:104CB0000C6E590E0D6E0F0E0E6ED8EC31F0FAEC34
:104CC00033F0120019C01BF01AC01CF01C50000A6F
:104CD000D8A412001B50000AD8B423D6010AD8B4B5
:104CE000BBD6030AD8A4120052D7FF0E116EFF0ED6
:104CF000126EFF0E136E040E146EE1EC32F02E0EE7
:104D0000116EFF0E126EFF0E136EFF0E146EE1ECAD
:104D100032F04F501B6E50501C6E1D6A1E6A000E02
:104D20001B24046E800E1C20056E100E1D20066EC6
:104D3000000E1E20076E000E096EF00E086EB9EC14
:104D400033F0020EFAEC33F04F501B6E50501C6ED5
:104D50001D6A1E6A000E1B24046E800E1C20056E48
:104D6000100E1D20066E000E1E20076E000E096E2E
:104D7000EC0E086EB9EC33F0020EFAEC33F04F5043
:104D80001B6E50501C6E1D6A1E6A000E1B24046EA2
:104D9000800E1C20056E100E1D20066E000E1E20BB
:104DA000076E000E096E1E0E086EB9EC33F0020E8F
:104DB000FAEC33F04F501B6E50501C6E1D6A1E6A89
:104DC000000E1B24046E800E1C20056E100E1D208C
:104DD000066E000E1E20076E080E096E000E086E8D
:104DE000B9EC33F0020EFAEC33F019C003F01AC03C
:104DF00004F0000E066E0A0E056E96EC31F003C04C
:104E000011F004C012F0000E12BEFF0E136E146EED
:104E1000E1EC32F00C0E116EFF0E126EFF0E136EEF
:104E2000FF0E146EE1EC32F04F501B6E50501C6EB2
:104E30001D6A1E6A000E1B24046E800E1C20056E67
:104E4000100E1D20066E000E1E20076E000E096E4D
:104E5000F00E086EB9EC33F0020EFAEC33F04F505E
:104E60001B6E50501C6E1D6A1E6A000E1B24046EC1
:104E7000800E1C20056E100E1D20066E000E1E20DA
:104E8000076E000E096EEC0E086EB9EC33F0020EE0
:104E9000FAEC33F04F501B6E50501C6E1D6A1E6AA8
:104EA000000E1B24046E800E1C20056E100E1D20AB
:104EB000066E000E1E20076E000E096E1E0E086E96
:104EC000B9EC33F0020EFAEC33F04F501B6E505039
:104ED0001C6E1D6A1E6A000E1B24046E800E1C20B0
:104EE000056E100E1D20066E000E1E20076E000EB1
:104EF000096E000E086EB9EC33F0020EFAEC33F0D6
:104F00004F501B6E50501C6E1D6A1E6A000E1B24F3
:104F1000096E800E1C200A6E100E1D200B6E000EF6
:104F20001E200C6E970E0D6E0F0E0E6ED8EC31F02B
:104F3000FAEC33F02E0E116EFF0E126EFF0E136E92
:104F4000FF0E146EE1EC32F04F501B6E50501C6E91
:104F50001D6A1E6A000E1B24046E800E1C20056E46
:104F6000100E1D20066E000E1E20076E000E096E2C
:104F7000F80E086EB9EC33F0020EFAEC33F04F5035
:104F80001B6E50501C6E1D6A1E6A000E1B24046EA0
:104F9000800E1C20056E100E1D20066E000E1E20B9
:104FA000076E000E096EEC0E086EB9EC33F0020EBF
:104FB000FAEC33F04F501B6E50501C6E1D6A1E6A87
:104FC000000E1B24046E800E1C20056E100E1D208A
:104FD000066E000E1E20076E000E096E1E0E086E75
:104FE000B9EC33F0020EFAEC33F04F501B6E505018
:104FF0001C6E1D6A1E6A000E1B24046E800E1C208F
:10500000056E100E1D20066E000E1E20076E000E8F
:10501000096E000E086EB9EC33F0020EFAEC33F0B4
:1050200019C00BF01AC00CF0000E0E6E0A0E0D6EB9
:1050300014EC32F00BC011F00CC012F0000E12BED6
:10504000FF0E136E146EE1EC32F012008B92020E22
:10505000116EA00E106E920EE82EFED7102EFCD709
:10506000112EFAD700D08B82020E116EA00E106E98
:10507000920EE82EFED7102EFCD7112EFAD700D0B4
:10508000000E15EC34F0440E15EC34F0620E15EC05
:1050900034F0300E046E240E056E100E066E000EF7
:1050A000076E010E096EE00E086EB9EC33F0440E87
:1050B000046E240E056E100E066E000E076E010EB5
:1050C000096E100E086EB9EC33F0280E046E240E33
:1050D000056E100E066E000E076E020E096E0D0EA6
:1050E000086EB9EC33F0340E046E240E056E100E0B
:1050F000066E000E076E000E096E000E086EB9EC0B
:1051000033F0380E046E240E056E100E066E000E7F
:10511000076E000E096E290E086EB9EC33F02C0EE6
:10512000046E240E056E100E066E000E076E000E45
:10513000096E2B0E086EB9EC33F03C0E046E240E93
:10514000056E100E066E000E076E010E096E1E0E25
:10515000086EB9EC33F0480E046E240E056E100E86
:10516000066E000E076E000E096E000E086EB9EC9A
:1051700033F04C0E046E240E056E100E066E000EFB
:10518000076E000E096E0A0E086EB9EC33F0400E81
:10519000046E240E056E100E066E000E076E000ED5
:1051A000096E0C0E086EB9EC33F0640E046E240E1A
:1051B000056E100E066E000E076E000E086ECCEC2B
:1051C00033F05C0E046E240E056E100E066E000E9B
:1051D000076E000E086ECCEC33F0580E046E240EF1
:1051E000056E100E066E000E076E010E096EB60EED
:1051F000086EB9EC33F0600E046E240E056E100ECE
:10520000066E000E076E000E086ECCEC33F0680ED2
:10521000046E240E056E100E066E000E076E000E54
:10522000086ECCEC33F0540E046E240E056E100E96
:10523000066E000E076E000E086ECCEC33F0000E0A
:10524000046E000E056E100E066E000E076E000E48
:10525000086E1A0E096E000E0A6E020E0B6E4CECF2
:1052600032F0040E046E000E056E100E066E000E77
:10527000076E070E086E000E096E000E0A6E260EEF
:105280000B6E4CEC32F0080E046E000E056E100E24
:10529000066E000E076E000E086E000E096E000E00
:1052A0000A6E000E0B6E4CEC32F0500E046E240EA3
:1052B000056E100E066E000E076E020E086ECCEC28
:1052C00033F08C0E046E240E056E100E066E000E6A
:1052D000076EFC0E086ECCEC33F0900E046E240EBC
:1052E000056E100E066E000E076EFF0E086ECCECFB
:1052F00033F06C0E046E240E056E100E066E000E5A
:10530000076E050E086ECCEC33F0E80E046E240E2A
:10531000056E100E066E000E076E3EEC33F004C0F4
:105320004FF005C050F0E40E046E240E056E100E12
:10533000066E000E076E3EEC33F04F500418F3E19A
:1053400050500518D8B41200EED719041A10D8A47A
:105350009BD0FF0E116EFF0E126EFF0E136E040E29
:10536000146EE1EC32F00C0E116EFF0E126EFF0E99
:10537000136EFF0E146EE1EC32F04F501B6E505066
:105380001C6E1D6A1E6A000E1B24046E800E1C20FB
:10539000056E100E1D20066E000E1E20076E000EFC
:1053A000096E2F0E086EB9EC33F0020EFAEC33F0F2
:1053B0004F501B6E50501C6E1D6A1E6A000E1B243F
:1053C000046E800E1C20056E100E1D20066E000E51
:1053D0001E20076E000E096E8E0E086EB9EC33F0BB
:1053E000020EFAEC33F04F501B6E50501C6E1D6ACB
:1053F0001E6A000E1B24046E800E1C20056E100E0B
:105400001D20066E000E1E20076E000E096E1C0E7B
:10541000086EB9EC33F0020EFAEC33F04F501B6E0D
:1054200050501C6E1D6A1E6A000E1B24046E800EF6
:105430001C20056E100E1D20066E000E1E20076E2D
:10544000020E096E000E086EB9EC33F0020EFAEC93
:1054500033F04F501B6E50501C6E1D6A1E6A000EBA
:105460001B24096E800E1C200A6E100E1D200B6E70
:10547000000E1E200C6E400E0D6E0F0E0E6ED8EC40
:1054800031F0FAEC33F01200000E116E000E126EC5
:10549000FF0E136E040E146EE1EC32F00C0E116E62
:1054A000FF0E126EFF0E136EFF0E146EE1EC32F063
:1054B0004F501B6E50501C6E1D6A1E6A000E1B243E
:1054C000046E800E1C20056E100E1D20066E000E50
:1054D0001E20076E000E096E2F0E086EB9EC33F019
:1054E000020EFAEC33F04F501B6E50501C6E1D6ACA
:1054F0001E6A000E1B24046E800E1C20056E100E0A
:105500001D20066E000E1E20076E000E096E8E0E08
:10551000086EB9EC33F0020EFAEC33F04F501B6E0C
:1055200050501C6E1D6A1E6A000E1B24046E800EF5
:105530001C20056E100E1D20066E000E1E20076E2C
:10554000000E096E1C0E086EB9EC33F0020EFAEC78
:1055500033F04F501B6E50501C6E1D6A1E6A000EB9
:105560001B24046E800E1C20056E100E1D20066E7E
:10557000000E1E20076E020E096E000E086EB9ECBA
:1055800033F0020EFAEC33F04F501B6E50501C6E8D
:105590001D6A1E6A000E1B24096E800E1C200A6EF6
:1055A000100E1D200B6E000E1E200C6E2A0E0D6EAE
:1055B0000F0E0E6ED8EC31F0FAEC33F01200000E44
:1055C000186E60AE83D062A61ED016C0D9FF17C079
:1055D000DAFF020EDF6E64CF03F061CF04F062CF1A
:1055E00005F06350F2EC2BF020EE01F01650D926B6
:1055F0001750DA2203C0DEFF04C0DEFF05C0DEFF65
:1056000006C0DEFF19D016C0D9FF17C0DAFF010EA1
:10561000DF6E62CF03F0615053EC31F020EE01F009
:105620001650D9261750DA2203C0DEFF04C0DEFF71
:1056300005C0DEFF06C0DEFF20EE05F01650D926BD
:105640001750DA2265CFDFFF20EE06F01650D9267C
:105650001750DA2266CFDFFF20EE07F01650D9266A
:105660001750DA2267CFDFFF20EE08F01650D92658
:105670001750DA2268CFDFFF20EE09F01650D92646
:105680001750DA2269CFDFFF20EE0AF01650D92634
:105690001750DA226ACFDFFF20EE0BF01650D92622
:1056A0001750DA226BCFDFFF20EE0CF01650D92610
:1056B0001750DA226CCFDFFF20EE0DF01650D926FE
:1056C0001750DA226DCFDFFF609E87D00F0130AF19
:1056D00086D032A71ED016C0D9FF17C0DAFF020E3F
:1056E000DF6E34CF03F031CF04F032CF05F0335109
:1056F000F2EC2BF020EE01F01650D9261750DA22EA
:1057000003C0DEFF04C0DEFF05C0DEFF06C0DEFF13
:105710001AD016C0D9FF17C0DAFF010EDF6E32CFE4
:1057200003F00F01315153EC31F020EE01F016502F
:10573000D9261750DA2203C0DEFF04C0DEFF05C001
:10574000DEFF06C0DEFF20EE05F01650D92617500A
:10575000DA2235CFDFFF20EE06F01650D92617509B
:10576000DA2236CFDFFF20EE07F01650D926175089
:10577000DA2237CFDFFF20EE08F01650D926175077
:10578000DA2238CFDFFF20EE09F01650D926175065
:10579000DA2239CFDFFF20EE0AF01650D926175053
:1057A000DA223ACFDFFF20EE0BF01650D926175041
:1057B000DA223BCFDFFF20EE0CF01650D92617502F
:1057C000DA223CCFDFFF20EE0DF01650D92617501D
:1057D000DA223DCFDFFF0F01309F010E186E779266
:1057E000185012000B6E000E0C6E000E0D6E000EA7
:1057F0000E6E000E0F6E000E126E000E136E000E77
:10580000146E000E156E0550030B106E0538E8423D
:10581000070B116E0450076E086AD89007360836D9
:10582000D89007360836D8900736083607C012F0E9
:1058300008C013F0000E13BEFF0E146E156E11504B
:105840001224126E000E1320136E000E1420146E1C
:10585000000E1520156E12C007F013C008F014C01A
:1058600009F015C00AF0020ED8900736083609363E
:105870000A36E82EF9D707C012F008C013F009C0A5
:1058800014F00AC015F010501224126E000E1320EE
:10589000136E000E1420146E000E1520156E12C02B
:1058A00008F013C009F014C00AF0076A07C012F02C
:1058B00008C013F009C014F00AC015F00B501224F0
:1058C000126E000E1320136E000E1420146E000EC4
:1058D0001520156E12C008F013C009F014C00AF0AC
:1058E000076A07C012F008C013F009C014F00AC01C
:1058F00015F003501224126E000E1320136E000ECA
:105900001420146E000E1520156E12C00CF013C07A
:105910000DF014C00EF015C00FF00CC003F00DC058
:1059200004F00EC005F00FC006F012000B6E0B5015
:10593000D8A406AE1AD003C007F004C008F005C012
:1059400009F006C00AF0071E081E091E0A1E072AD3
:10595000000E082209220A2207C00DF008C00EF02E
:1059600009C00FF00AC010F008D003C00DF004C049
:105970000EF005C00FF006C010F003500410051023
:105980000610D8A409D0000E036E000E046E000E9F
:10599000056E000E066E1200960E0C6E06D00C2AD6
:1059A000D89010320F320E320D32000E0D14076EE9
:1059B000000E0E14086E000E0F14096EFE0E101469
:1059C0000A6E0750081009100A10D8B40DD0E7D796
:1059D0000C2A010E0D26000E0E220F221022D89046
:1059E00010320F320E320D32000E0D14076E000E03
:1059F0000E14086E000E0F14096EFF0E10140A6EBE
:105A00000750081009100A10D8B407D0E1D70C06C7
:105A1000D8900D360E360F3610360FBE03D0020E5C
:105A20000C60F5D70CA00F9ED8900C320CC007F07C
:105A3000086A096A0A6A07C00AF0096A086A076AF6
:105A400007500D1208500E1209500F120A50101272
:105A50000B50D8A406AE01D0108E0DC003F00EC0BE
:105A600004F00FC005F010C006F01200FF0E116E1A
:105A7000FF0E126EFF0E136E040E146EE1EC32F088
:105A80001ABE06D01A500EE1640E195CD8B00AD0C6
:105A90002E0E116EFF0E126EFF0E136EFF0E146EA1
:105AA000E1EC32F04F501B6E50501C6E1D6A1E6AA6
:105AB000000E1B24046E800E1C20056E100E1D208F
:105AC000066E000E1E20076E000E096E050E086E93
:105AD000B9EC33F0020EFAEC33F04F501B6E50501D
:105AE0001C6E1D6A1E6A000E1B24046E800E1C2094
:105AF000056E100E1D20066E000E1E20076E000E95
:105B0000096EEC0E086EB9EC33F0020EFAEC33F0CD
:105B10004F501B6E50501C6E1D6A1E6A000E1B24D7
:105B2000046E800E1C20056E100E1D20066E000EE9
:105B30001E20076E000E096E1E0E086EB9EC33F0C3
:105B4000020EFAEC33F04F501B6E50501C6E1D6A63
:105B50001E6A000E1B24046E800E1C20056E100EA3
:105B60001D20066E000E1E20076E000E096E000E30
:105B7000086EB9EC33F0020EFAEC33F019C011F0F4
:105B80001AC012F0000E12BEFF0E136E146EE1EC7E
:105B900032F01200000E1114196E000E12141A6E5B
:105BA000800E13141B6E7F0E14141C6E19501A10E5
:105BB0001B101C10D8A408D0000E116E000E126E1F
:105BC000000E136E000E146E000E1514196E000EEA
:105BD00016141A6E800E17141B6E7F0E18141C6E8E
:105BE00019501A101B101C10D8A408D0000E156EE6
:105BF000000E166E000E176E000E186E14AE1DD03D
:105C000011C019F012C01AF013C01BF014C01CF020
:105C1000191E1A1E1B1E1C1E192A000E1A221B22D8
:105C20001C22000E1924116E000E1A20126E000E96
:105C30001B20136E800E1C20146E18AE1DD015C0D4
:105C400019F016C01AF017C01BF018C01CF0191E6E
:105C50001A1E1B1E1C1E192A000E1A221B221C2291
:105C6000000E1924156E000E1A20166E000E1B2051
:105C7000176E800E1C20186E000E111A000E121ADC
:105C8000000E131A800E141A000E151A000E161AA2
:105C9000000E171A800E181A1550115C1650125863
:105CA0001750135818501458D8B002D0D89012007A
:105CB000D8801200FF0E116EFF0E126EFF0E136ED3
:105CC000040E146EE1EC32F02E0E116EFF0E126E09
:105CD000FF0E136EFF0E146EE1EC32F04F501B6E90
:105CE00050501C6E1D6A1E6A000E1B24046E800E2E
:105CF0001C20056E100E1D20066E000E1E20076E65
:105D0000000E096E2F0E086EB9EC33F0020EFAEC9D
:105D100033F04F501B6E50501C6E1D6A1E6A000EF1
:105D20001B24046E800E1C20056E100E1D20066EB6
:105D3000000E1E20076E000E096E3A0E086EB9ECBA
:105D400033F0020EFAEC33F04F501B6E50501C6EC5
:105D50001D6A1E6A000E1B24046E800E1C20056E38
:105D6000100E1D20066E000E1E20076E000E096E1E
:105D70001F0E086EB9EC33F0020EFAEC33F04F5000
:105D80001B6E50501C6E1D6A1E6A000E1B24046E92
:105D9000800E1C20056E100E1D20066E000E1E20AB
:105DA000076E020E096E000E086EB9EC33F0020E9B
:105DB000FAEC33F019C011F01AC012F0000E12BE46
:105DC000FF0E136E146EE1EC32F01200FF0E116E36
:105DD000FF0E126EFF0E136E040E146EE1EC32F025
:105DE0002E0E116EFF0E126EFF0E136EFF0E146E4E
:105DF000E1EC32F04F501B6E50501C6E1D6A1E6A53
:105E0000000E1B24046E800E1C20056E100E1D203B
:105E1000066E000E1E20076E010E096E980E086EAB
:105E2000B9EC33F0020EFAEC33F04F501B6E5050C9
:105E30001C6E1D6A1E6A000E1B24046E800E1C2040
:105E4000056E100E1D20066E000E1E20076E000E41
:105E5000096E820E086EB9EC33F0020EFAEC33F0E4
:105E60004F501B6E50501C6E1D6A1E6A000E1B2484
:105E7000046E800E1C20056E100E1D20066E000E96
:105E80001E20076E000E096E1F0E086EB9EC33F06F
:105E9000020EFAEC33F04F501B6E50501C6E1D6A10
:105EA0001E6A000E1B24046E800E1C20056E100E50
:105EB0001D20066E000E1E20076E080E096E000ED5
:105EC000086EB9EC33F0020EFAEC33F019C011F0A1
:105ED0001AC012F0000E12BEFF0E136E146EE1EC2B
:105EE00032F012002E0E116EFF0E126EFF0E136EA8
:105EF000FF0E146EE1EC32F04F501B6E50501C6ED2
:105F00001D6A1E6A000E1B24046E800E1C20056E86
:105F1000100E1D20066E000E1E20076E000E096E6C
:105F20008B0E086EB9EC33F0020EFAEC33F04F50E2
:105F30001B6E50501C6E1D6A1E6A000E1B24046EE0
:105F4000800E1C20056E100E1D20066E000E1E20F9
:105F5000076E000E096E3A0E086EB9EC33F0020EB1
:105F6000FAEC33F04F501B6E50501C6E1D6A1E6AC7
:105F7000000E1B24046E800E1C20056E100E1D20CA
:105F8000066E000E1E20076E000E096E1F0E086EB4
:105F9000B9EC33F0020EFAEC33F04F501B6E505058
:105FA0001C6E1D6A1E6A000E1B24046E800E1C20CF
:105FB000056E100E1D20066E000E1E20076E020ECE
:105FC000096E000E086EB9EC33F0020EFAEC33F0F5
:105FD00019C011F01AC012F0000E12BEFF0E136E9F
:105FE000146EE1EC32F012002E0E116EFF0E126EE6
:105FF000FF0E136EFF0E146EE1EC32F04F501B6E6D
:1060000050501C6E1D6A1E6A000E1B24046E800E0A
:106010001C20056E100E1D20066E000E1E20076E41
:10602000010E096EC70E086EB9EC33F0020EFAECE1
:1060300033F04F501B6E50501C6E1D6A1E6A000ECE
:106040001B24046E800E1C20056E100E1D20066E93
:10605000000E1E20076E000E096EEC0E086EB9ECE5
:1060600033F0020EFAEC33F04F501B6E50501C6EA2
:106070001D6A1E6A000E1B24046E800E1C20056E15
:10608000100E1D20066E000E1E20076E000E096EFB
:106090001E0E086EB9EC33F0020EFAEC33F04F50DE
:1060A0001B6E50501C6E1D6A1E6A000E1B24046E6F
:1060B000800E1C20056E100E1D20066E000E1E2088
:1060C000076E080E096E000E086EB9EC33F0020E72
:1060D000FAEC33F019C011F01AC012F0000E12BE23
:1060E000FF0E136E146EE1EC32F01200800E6F6E34
:1060F0006E50E00B800AD8A4FBD7000E726E0E0122
:10610000FA69FB69F869F969FE69FF69FC69FD696B
:10611000000EE26F000EE36F000EE06F000EE16F05
:10612000000EE66F000EE76F000EE46F000EE56FE5
:10613000000EEA6F000EEB6F000EE86F000EE96FC5
:10614000000EEE6F000EEF6F000EEC6F000EED6FA5
:10615000000EF26F000EF36F000EF06F000EF16F85
:10616000000EF66F000EF76F000EF46F000EF56F65
:10617000030E436F980E446F010E456F000E6F6E55
:106180006ECF03F0E00E0316D8B41200F9D7000E5C
:10619000116E000E126EFF0E136E040E146EE1EC03
:1061A00032F0030E116E000E126E000E136E1F0EF3
:1061B000146EE1EC32F01E0E116E000E126E000E27
:1061C000136E0E0E146EE1EC32F0000E116ED00E56
:1061D000126E0E0E136E800E146EE1EC32F0000E95
:1061E000116ED00E126E0E0E136EBC0E146EE1EC1C
:1061F00032F0000E116E000E126E000E136E210EA4
:10620000146EE1EC32F01FC019F020C01AF075ECEA
:1062100026F021C019F022C01AF0F4EC2FF0120081
:1062200001EC33F0CFEC07F054EC1FF043C01FF04B
:1062300044C020F035C021F036C022F0C7EC30F069
:106240002DC019F02EC01AF06FEC1CF03BC019F0F5
:106250003CC01AF0E6EC2EF03FC019F040C01AF036
:106260005AEC2EF041C019F042C01AF072EC2FF037
:1062700039C019F03AC01AF0BAEC0FF03DC019F06D
:106280003EC01AF01BEC22F033C019F034C01AF0F3
:10629000A5EC29F037C019F038C01AF090EC24F0C2
:1062A0007DEC32F01200096E000E0A6E000E0B6ECD
:1062B000000E0C6E000E0D6E0950076E086AD89025
:1062C00007360836D89007360836D890073608368D
:1062D00007C00EF008C00FF0000E0FBEFF0E106ECC
:1062E000116E03C007F0050E086ED8900732082E15
:1062F000FCD707500E240E6E000E0F200F6E000EFE
:106300001020106E000E1120116E0EC00AF00FC08A
:106310000BF010C00CF011C00DF00AC003F00BC060
:1063200004F00CC005F00DC006F01200000E086E5F
:1063300006AE06D0056C061ED8B0062A010E086E01
:1063400004AE06D0036C041ED8B0042A010E081A4D
:10635000000E0A6E000E096E05500610D8B41CD04F
:10636000010E076E04D0D89005360636072A06AE11
:10637000FAD7D89009360A360550035C06500458FF
:10638000D8A005D00550035E0650045A0980D89065
:1063900006320532072EEDD70850D8B404D0096C68
:1063A0000A1ED8B00A2A09C003F00AC004F012007D
:1063B0008C900B50800936EC34F00A5036EC34F0F7
:1063C000095036EC34F00DC003F00EC004F0C1ECFF
:1063D00032F00350116E000E126E14D01250010DE7
:1063E0000DC00FF00EC010F0F3500F26F450102225
:1063F0000FC0F6FF10C0F7FFF86A0800F55036EC42
:1064000034F0122A1250115CD8A005D0E7D7000E44
:1064100036EC34F0122A12C00FF0030E0F16D8A477
:10642000F6D78C8012501200000E106E0CAE06D003
:106430000B6C0C1ED8B00C2A010E106E0EAE04D0E0
:106440000D6C0E1ED8B00E2A0D500E10D8B418D0F8
:10645000010E0F6E04D0D8900D360E360F2A0EAEF8
:10646000FAD70D500B5C0E500C58D8A004D00D502C
:106470000B5E0E500C5AD8900E320D320F2EF1D703
:106480001050D8B404D00B6C0C1ED8B00C2A0BC022
:106490000BF00CC00CF012008C900650800936EC0A
:1064A00034F0055036EC34F0045036EC34F008503B
:1064B00036EC34F0095036EC34F00A5036EC34F057
:1064C00008C00CF009C00DF00AC00EF00BC00FF0B0
:1064D000110E05D0D8900F320E320D320C32E82E4C
:1064E000F9D70DC00CF00EC00DF00FC00EF00F6A02
:1064F0000C5036EC34F08C801200000E116E000E41
:10650000126E000E136E000E146EE1EC32F0010EEE
:10651000116EFF0E126EFF0E136EFF0E146EE1EC85
:1065200032F0E80E046E240E056E100E066E000E9C
:10653000076E4FC008F050C009F0B9EC33F01200FC
:10654000440EF66E680EF76E000EF86E00EED4F094
:1065500010EE16F00900F5CFEEFFE550E150FAE13C
:1065600000EEB1F0230EEE6AE806FDE100EE47F022
:106570000D0EEE6AE806FDE154905492000196EF8C
:1065800016F003C007F004C008F002D0034A042A42
:1065900003C0F6FF04C0F7FFF86A0800F5500009D1
:1065A000D8A4F4D707C005F008C006F0051E061EE3
:1065B000054A062A03500524036E04500620046E83
:1065C00012004F50156E5050166E176A186A000E62
:1065D0001524046E800E1620056E100E1720066E10
:1065E000000E1820076E11C008F012C009F013C089
:1065F0000AF014C00BF04CEC32F0040EFAEC33F05D
:106600001200000E116EFF0E126EFF0E136EFF0EC3
:10661000146EE1EC32F0000E116E000E126E000EE0
:10662000136E020E146EE1EC32F0070E116E000EC6
:10663000126E000E136E260E146EE1EC32F0120094
:10664000300ECD6E000EAA6E150ECF6EA00ECE6E61
:10665000CE50CFCF05F0066A05C006F0056A0510DA
:106660004D6E06504E6E9E909D80D00E036E680E4D
:10667000046E52EC34F062EC34F012008C90065050
:1066800036EC34F0055036EC34F0045036EC34F08F
:10669000000E36EC34F0000E36EC34F0C9CF0AF0C0
:1066A000000E36EC34F08C80C950086E0A50046E2F
:1066B00008C005F01200150ED56ECF0ED76E2B0E4A
:1066C000D66ED650D7CF05F0066A05C006F0056A2B
:1066D0000510476E0650486EF294F28AD20E036E91
:1066E000680E046E57EC34F064EC34F01200000EC7
:1066F0008D6E000E8C6E000E896E000E8A6E000E7E
:106700008B6E070E966EEC0E926EDB0E936ED50EB0
:10671000946EC20E956E0F015D697D0E5C6FCF0E9B
:106720005B6F1200F2944850D76E47C0D6FF4950B5
:106730004A10D8B4120001D812000500FA6E495070
:10674000FD6E4A50FE6EFF6AFA50120003500502B9
:10675000F3CF07F0F4CF08F003500602F3500826F9
:1067600004500502F350082607C003F008C004F0E7
:1067700012008C900650800936EC34F0055036EC4F
:1067800034F0045036EC34F0085036EC34F0095054
:1067900036EC34F08C8012008C900650800936EC78
:1067A00034F0055036EC34F0045036EC34F0085038
:1067B00036EC34F08C80120066EC34F077EC33F079
:1067C0002DEC34F046EC34F020EC33F05BEC33F09D
:1067D00076EC30F012004B504C10D8B4120001D8B7
:1067E00012000500FA6E4B50FD6E4C50FE6EFF6AB3
:1067F000FA501200056E05504F24036E000E502013
:10680000046EFF0E03144F6E0F0E0414506E120030
:10681000A30E046E570E036E020EE82EFED7032E53
:10682000FCD7042EFAD700D01200046E8C900450CE
:1068300036EC34F0000E36EC34F0000E36EC34F06A
:106840008C80120000000100000000000000000029
:1068500000000000000000000000600ED36E000E7B
:10686000D26E000E9B6E000E9A6E1200036EC69ED4
:1068700003C0C9FFC7A0FED7C95012009E904E505A
:10688000CF6E4DC0CEFFEBEC33F01200000EC76EA2
:10689000200EC66E000EC86E12004E50CF6E4DC058
:1068A000CEFF120003C04BF004C04CF0120003C036
:1068B00049F004C04AF01200010E0001C56F120039
:1068C000D59E1200CD801200D58E1200D09E1200EF
:0468D00012001200A0
:020000040020DA
:08000000FFFFFFFFFFFFFFFF00
:020000040030CA
:0E00000015127F7CFF8991FF0FC00FE00F40AB
:00000001FF
