:020000040000FA
:040000002AEF00F0F3
:100008003482FACF01F0FBCF02F0F2AC0EEF00F031
:1000180010EF00F024EF00F09DA215EF00F017EFAD
:1000280000F024EF00F09EA21CEF00F01EEF00F09D
:1000380024EF00F07AEC05F024EF00F024EF00F054
:1000480002C0FBFF01C0FAFF3492110015EF05F062
:10005800000E186E000E196E000E1A6E000E1B6E42
:10006800000E176E0F0120B73CEF00F03EEF00F0D6
:10007800BAEF00F020EE01F01550D9261650DA221A
:10008800DECF03F0DECF04F0DECF05F0DECF06F0E2
:1000980015C0D9FF16C0DAFFDF50076E180E086EBC
:1000A800000E096E190E0A6E000E0B6E1A0E0C6EFB
:1000B800000E0D6E1B0E0E6E000E0F6ED2EC02F0CF
:1000C80018C023FF19C024FF1AC021FF1BC022FF3C
:1000D80020EE05F01550D9261650DA22DF500F0110
:1000E800256F20EE06F01550D9261650DA22DF507B
:1000F800266F20EE07F01550D9261650DA22DF5069
:10010800276F20EE08F01550D9261650DA22DF5056
:10011800286F20EE09F01550D9261650DA22DF5044
:10012800296F20EE0AF01550D9261650DA22DF5032
:100138002A6F20EE0BF01550D9261650DA22DF5020
:100148002B6F20EE0CF01550D9261650DA22DF500E
:100158002C6F20EE0DF01550D9261650DA22DF50FC
:100168002D6F2087010E176EC6EF01F010B7BFEF95
:1001780000F0C1EF00F03DEF01F020EE01F0155066
:10018800D9261650DA22DECF03F0DECF04F0DECF18
:1001980005F0DECF06F015C0D9FF16C0DAFFDF5034
:1001A800076E180E086E000E096E190E0A6E000E04
:1001B8000B6E1A0E0C6E000E0D6E1B0E0E6E000EE0
:1001C8000F6ED2EC02F018C013FF19C014FF1AC04A
:1001D80011FF1BC012FF20EE05F01550D92616504E
:1001E800DA22DF500F01156F20EE06F01550D926E0
:1001F8001650DA22DF50166F20EE07F01550D92678
:100208001650DA22DF50176F20EE08F01550D92665
:100218001650DA22DF50186F20EE09F01550D92653
:100228001650DA22DF50196F20EE0AF01550D92641
:100238001650DA22DF501A6F20EE0BF01550D9262F
:100248001650DA22DF501B6F20EE0CF01550D9261D
:100258001650DA22DF501C6F20EE0DF01550D9260B
:100268001650DA22DF501D6F1087010E176EC6EF89
:1002780001F000B742EF01F044EF01F0C6EF01F0E2
:1002880020EE01F01550D9261650DA22DECF03F001
:10029800DECF04F0DECF05F0DECF06F015C0D9FFC3
:1002A80016C0DAFFDF50076E180E086E000E096ED2
:1002B800190E0A6E000E0B6E1A0E0C6E000E0D6EE5
:1002C8001B0E0E6E000E0F6ED2EC02F018C003FF6C
:1002D80019C004FF1AC001FF1BC002FF20EE05F081
:1002E8001550D9261650DA22DF500F01056F20EE7F
:1002F80006F01550D9261650DA22DF50066F20EE88
:1003080007F01550D9261650DA22DF50076F20EE75
:1003180008F01550D9261650DA22DF50086F20EE63
:1003280009F01550D9261650DA22DF50096F20EE51
:100338000AF01550D9261650DA22DF500A6F20EE3F
:100348000BF01550D9261650DA22DF500B6F20EE2D
:100358000CF01550D9261650DA22DF500C6F20EE1B
:100368000DF01550D9261650DA22DF500D6F008790
:10037800010E176EC6EF01F0C6EF01F0C6EF01F0EF
:10038800C6EF01F012004BEC05F070887080708A9F
:1003980016EC04F0F28EF28CD2EF01F06EEC05F060
:1003A8000009D8B4DAEF01F0DCEF01F0D2EF01F088
:1003B80076EC05F0500E63EC05F03D0E63EC05F0AD
:1003C800050E63EC05F072EC05F076EC05F0500EC6
:1003D80063EC05F00A0E63EC05F03B0E63EC05F0E8
:1003E80072EC05F076EC05F0500E63EC05F0080EA3
:1003F80063EC05F072EC05F076EC05F0510E63EC59
:1004080005F0000E056E060E046E6CC006F06DC099
:1004180007F07DEC04F072EC05F06CC0D9FF6DC0FC
:10042800DAFFDF500001616F20EE01F06C51D92630
:100438006D51DA22DF50606F20EE02F06C51D92640
:100448006D51DA22DF50636F20EE03F06C51D9262C
:100458006D51DA22DF50626F20EE04F06C51D9261C
:100468006D51DA22DF50656F20EE05F06C51D92608
:100478006D51DA22DF50646F76EC05F0500E63ECB4
:1004880005F0140E63EC05F072EC05F076EC05F05F
:10049800510E63EC05F0000E056E060E046E6CC07E
:1004A80006F06DC007F07DEC04F072EC05F06CC04E
:1004B800D9FF6DC0DAFFDF500001666F20EE01F052
:1004C8006C51D9266D51DA22DF50676F20EE02F0A9
:1004D8006C51D9266D51DA22DF50686F20EE03F097
:1004E8006C51D9266D51DA22DF50696F20EE04F085
:1004F8006C51D9266D51DA22DF506A6F20EE05F073
:100508006C51D9266D51DA22DF506B6F010E6E6F78
:10051800700E6F6F040E706F000E716F000E726FA9
:10052800060E736F64C074F065C075F062C076F033
:1005380063C077F060C078F061C079F06E0E156E18
:10054800000E166E2CEC00F0010E00017C6F710E8F
:100558007D6F040E7E6F000E7F6F000E806F060E9B
:10056800816F67C082F066C083F069C084F068C09C
:1005780085F06BC086F06AC087F07C0E156E000EA1
:10058800166E2CEC00F082EC05F0F28CD2EF01F044
:10059800D2EF01F0D2EF01F02AEF00F0000E146E56
:1005A800020E0718D8A4DBEF02F0DDEF02F060EFCF
:1005B80003F00AC0D9FF0BC0DAFF03C0DFFF03C096
:1005C80010F004C011F005C012F006C013F011C0FD
:1005D80010F012C011F013C012F0136A10C003F02B
:1005E80011C004F012C005F013C006F008C0D9FF0E
:1005F80009C0DAFF03C0DFFF03C010F004C011F028
:1006080005C012F006C013F011C010F012C011F0AE
:1006180013C012F0136A10C003F011C004F012C026
:1006280005F013C006F00350030B146E03C010F05E
:1006380004C011F005C012F006C013F0030ED890E4
:100648001036113612361336E82E23EF03F010C099
:1006580003F011C004F012C005F013C006F00350F7
:10066800E00B1424146E1450080F146E1450EB0B86
:100678000EC0D9FF0FC0DAFFDF6E03C010F004C050
:1006880011F005C012F006C013F011C010F012C02E
:1006980011F013C012F0136A10C003F011C004F077
:1006A80012C005F013C006F00CC0D9FF0DC0DAFF68
:1006B80003C0DFFFAAEF03F008C0D9FF09C0DAFFC3
:1006C800000EDF6E0AC0D9FF0BC0DAFF000EDF6E26
:1006D80003C010F004C011F005C012F006C013F0FA
:1006E800050ED8901036113612361336E82E75EFEF
:1006F80003F010C003F011C004F012C005F013C0DD
:1007080006F00EC0D9FF0FC0DAFF03C0DFFF03C039
:1007180010F004C011F005C012F006C013F011C0AB
:1007280010F012C011F013C012F0136A10C003F0D9
:1007380011C004F012C005F013C006F00CC0D9FFB8
:100748000DC0DAFF03C0DFFFAAEF03F01200800E2E
:100758006F6EB1EF03F0B1EF03F06E50E00B800A5B
:10076800D8A4B9EF03F0BBEF03F0B1EF03F0BDEF8E
:1007780003F0000E726E000E0E01FA6F000EFB6F92
:10078800000EF86F000EF96FFE69FF69FC69FD69DC
:10079800000EE26F000EE36F880EE06F800EE16FCF
:1007A800000EE66F000EE76FCC0EE46FC00EE56F2B
:1007B800000EEA6F000EEB6F000EE86F000EE96F97
:1007C800000EEE6F000EEF6F000EEC6F000EED6F77
:1007D800000EF26F000EF36F000EF06F000EF16F57
:1007E800000EF66F000EF76F000EF46F000EF56F37
:1007F800000E436F980E446F010E456F000E6F6E2A
:1008080008EF04F008EF04F06ECF03F0E00E0316D3
:10081800D8A411EF04F013EF04F008EF04F015EF7B
:1008280004F0120076EC05F0500E63EC05F03D0E76
:1008380063EC05F0000E63EC05F072EC05F076EC65
:1008480005F0500E63EC05F03F0E63EC05F0200E4A
:1008580063EC05F072EC05F0680E056EE40EE82E08
:10086800FED7052EFCD700D076EC05F0500E63ECD1
:1008780005F03E0E63EC05F0000E63EC05F072EC3B
:1008880005F0680E056EE40EE82EFED7052EFCD79F
:1008980000D076EC05F0500E63EC05F0070E63EC23
:1008A80005F0000E63EC05F072EC05F076EC05F04F
:1008B800500E63EC05F03B0E63EC05F0010E63ECA3
:1008C80005F072EC05F076EC05F0500E63EC05F0DF
:1008D8003F0E63EC05F0000E63EC05F072EC05F0DA
:1008E800680E056EE40EE82EFED7052EFCD700D064
:1008F8001200000E0A6EA6EF04F0FEEC04F0C586A6
:10090800FEEC04F00A50010DF3500624D96EF450A1
:100918000720DA6EC9CFDFFF0A2AFEEC04F00A507E
:10092800086E096A0450085C05500958D8B09FEF52
:1009380004F0A2EF04F0C58AA3EF04F0C59AC588B5
:10094800A6EF04F00A50086E096A0450085C0550C6
:100958000958D8A0B2EF04F0B4EF04F081EF04F026
:10096800B6EF04F0120032503310D8B4BEEF04F0E2
:10097800C0EF04F0CFEF04F002D8CDEF04F005008B
:10098800FA6E3250FD6E3350FE6EF850FF6EFA501C
:100998001200CFEF04F01200200ECD6E000EAA6EEA
:1009A800D80ECF6EF00ECE6ECE50CFCF03F0046AC5
:1009B80003C004F0036A0310306E0450316E9E9039
:1009C80087EC05F01200940E1E6E000E1F6E940E3A
:1009D8001C6E000E1D6E20822090000E226E000EEE
:1009E800C76E280EC66E090EC86E000EC56E9E969E
:1009F8009D86120000EF05F0C7B405EF05F007EF7C
:100A080005F000EF05F0C5CF03F01F0E0316D8A4BC
:100A180010EF05F012EF05F000EF05F014EF05F008
:100A2800120000EE8AF00F0EEE6AE806FDE100EE15
:100A38001CF0140EEE6AE806FDE134903492000EC4
:100A4800F86E0001C7EF01F0000E896E000E8A6E85
:100A5800000E8B6EEF0E926E9368B80E946E1F0E9A
:100A68000F015D6F050E5C6F5B6912007A0ECA6E2E
:100A78009B0ECB6E000ECC6E9E929D82FC0E036E7A
:100A88000A0E046E69EC05F085EC05F0120089EC9D
:100A980005F028EC05F05AEC05F0E7EC04F03AEC28
:100AA80005F0D0EC04F0ABEC03F01200700ED36E3E
:100AB800000ED26E000E9B6E000E9A6E1200046E2F
:100AC800FEEC04F004C0C9FF120003C032F004C0F9
:100AD80033F01200295071EF05F01200FEEC04F01B
:100AE800C5841200FEEC04F0C58012009E92B7EC9B
:100AF80004F01200010E296EF29C1200000E296EFD
:0E0B08001200CA841200CD801200D09E12008E
:020000040020DA
:08000000FFFFFFFFFFFFFFFF00
:020000040030CA
:0E00000015087F7CFF8891FF0FC00FE00F40B6
:00000001FF
